{
  "contractName": "ETHMaximalist",
  "abi": [
    {
      "constant": true,
      "inputs": [],
      "name": "Invest2Fulcrum1xShortBTCContract",
      "outputs": [
        {
          "name": "",
          "type": "address"
        }
      ],
      "payable": false,
      "stateMutability": "view",
      "type": "function"
    },
    {
      "constant": true,
      "inputs": [],
      "name": "owner",
      "outputs": [
        {
          "name": "",
          "type": "address"
        }
      ],
      "payable": false,
      "stateMutability": "view",
      "type": "function"
    },
    {
      "constant": true,
      "inputs": [],
      "name": "ShortBTCAllocation",
      "outputs": [
        {
          "name": "",
          "type": "uint256"
        }
      ],
      "payable": false,
      "stateMutability": "view",
      "type": "function"
    },
    {
      "constant": true,
      "inputs": [],
      "name": "balance",
      "outputs": [
        {
          "name": "",
          "type": "uint256"
        }
      ],
      "payable": false,
      "stateMutability": "view",
      "type": "function"
    },
    {
      "constant": true,
      "inputs": [],
      "name": "Invest2FulcrumContract",
      "outputs": [
        {
          "name": "",
          "type": "address"
        }
      ],
      "payable": false,
      "stateMutability": "view",
      "type": "function"
    },
    {
      "constant": false,
      "inputs": [
        {
          "name": "newOwner",
          "type": "address"
        }
      ],
      "name": "transferOwnership",
      "outputs": [],
      "payable": false,
      "stateMutability": "nonpayable",
      "type": "function"
    },
    {
      "inputs": [],
      "payable": false,
      "stateMutability": "nonpayable",
      "type": "constructor"
    },
    {
      "payable": true,
      "stateMutability": "payable",
      "type": "fallback"
    },
    {
      "constant": false,
      "inputs": [],
      "name": "toggleContractActive",
      "outputs": [],
      "payable": false,
      "stateMutability": "nonpayable",
      "type": "function"
    },
    {
      "constant": false,
      "inputs": [
        {
          "name": "_numberPercentageValue",
          "type": "uint256"
        }
      ],
      "name": "change_cDAIAllocation",
      "outputs": [],
      "payable": false,
      "stateMutability": "nonpayable",
      "type": "function"
    },
    {
      "constant": false,
      "inputs": [],
      "name": "ETHMaximalistZAP",
      "outputs": [
        {
          "name": "",
          "type": "bool"
        }
      ],
      "payable": true,
      "stateMutability": "payable",
      "type": "function"
    },
    {
      "constant": false,
      "inputs": [],
      "name": "depositETH",
      "outputs": [
        {
          "name": "",
          "type": "uint256"
        }
      ],
      "payable": true,
      "stateMutability": "payable",
      "type": "function"
    },
    {
      "constant": false,
      "inputs": [],
      "name": "withdraw",
      "outputs": [],
      "payable": false,
      "stateMutability": "nonpayable",
      "type": "function"
    }
  ],
  "bytecode": "0x6080604052603260025573ab58bbf6b6ca1b064aa59113aea204f554e8fbae600360006101000a81548173ffffffffffffffffffffffffffffffffffffffff021916908373ffffffffffffffffffffffffffffffffffffffff16021790555073a2c3e380e6c082a003819a2a69086748fe3d15dd600460006101000a81548173ffffffffffffffffffffffffffffffffffffffff021916908373ffffffffffffffffffffffffffffffffffffffff1602179055503073ffffffffffffffffffffffffffffffffffffffff16316005556000600660006101000a81548160ff0219169083151502179055503480156100f557600080fd5b50336000806101000a81548173ffffffffffffffffffffffffffffffffffffffff021916908373ffffffffffffffffffffffffffffffffffffffff16021790555060018081905550610beb8061014c6000396000f3fe6080604052600436106100af576000357c0100000000000000000000000000000000000000000000000000000000900463ffffffff1680631385d24c1461011e5780632b4b05cf146101355780633ccfd60b146101705780637b27a718146101875780638da5cb5b146101de578063aa5882ce14610235578063b4b32f2b14610260578063b69ef8a814610282578063ceed77d2146102ad578063f2fde38b14610304578063f6326fb314610355575b6000809054906101000a900473ffffffffffffffffffffffffffffffffffffffff1673ffffffffffffffffffffffffffffffffffffffff163373ffffffffffffffffffffffffffffffffffffffff1614156101125761010c610373565b5061011c565b61011a6103e3565b505b005b34801561012a57600080fd5b50610133610610565b005b34801561014157600080fd5b5061016e6004803603602081101561015857600080fd5b8101908080359060200190929190505050610697565b005b34801561017c57600080fd5b50610185610717565b005b34801561019357600080fd5b5061019c6107f3565b604051808273ffffffffffffffffffffffffffffffffffffffff1673ffffffffffffffffffffffffffffffffffffffff16815260200191505060405180910390f35b3480156101ea57600080fd5b506101f3610819565b604051808273ffffffffffffffffffffffffffffffffffffffff1673ffffffffffffffffffffffffffffffffffffffff16815260200191505060405180910390f35b34801561024157600080fd5b5061024a61083e565b6040518082815260200191505060405180910390f35b6102686103e3565b604051808215151515815260200191505060405180910390f35b34801561028e57600080fd5b50610297610844565b6040518082815260200191505060405180910390f35b3480156102b957600080fd5b506102c261084a565b604051808273ffffffffffffffffffffffffffffffffffffffff1673ffffffffffffffffffffffffffffffffffffffff16815260200191505060405180910390f35b34801561031057600080fd5b506103536004803603602081101561032757600080fd5b81019080803573ffffffffffffffffffffffffffffffffffffffff169060200190929190505050610870565b005b61035d610373565b6040518082815260200191505060405180910390f35b60008060009054906101000a900473ffffffffffffffffffffffffffffffffffffffff1673ffffffffffffffffffffffffffffffffffffffff163373ffffffffffffffffffffffffffffffffffffffff161415156103d057600080fd5b3460056000828254019250508190555090565b6000600660009054906101000a900460ff16151561060d576509184e72a0003411151561040f57600080fd5b6000349050600061042c6104258360025461094a565b6064610a17565b9050600061043a8383610aaa565b905060006104518461044c8585610b35565b610aaa565b14151561045d57600080fd5b600460009054906101000a900473ffffffffffffffffffffffffffffffffffffffff1673ffffffffffffffffffffffffffffffffffffffff1663d243d85b83336040518363ffffffff167c0100000000000000000000000000000000000000000000000000000000028152600401808273ffffffffffffffffffffffffffffffffffffffff1673ffffffffffffffffffffffffffffffffffffffff1681526020019150506000604051808303818588803b15801561051a57600080fd5b505af115801561052e573d6000803e3d6000fd5b5050505050600360009054906101000a900473ffffffffffffffffffffffffffffffffffffffff1673ffffffffffffffffffffffffffffffffffffffff1663c310331382336040518363ffffffff167c0100000000000000000000000000000000000000000000000000000000028152600401808273ffffffffffffffffffffffffffffffffffffffff1673ffffffffffffffffffffffffffffffffffffffff1681526020019150506000604051808303818588803b1580156105f057600080fd5b505af1158015610604573d6000803e3d6000fd5b50505050505050505b90565b6000809054906101000a900473ffffffffffffffffffffffffffffffffffffffff1673ffffffffffffffffffffffffffffffffffffffff163373ffffffffffffffffffffffffffffffffffffffff1614151561066b57600080fd5b600660009054906101000a900460ff1615600660006101000a81548160ff021916908315150217905550565b6000809054906101000a900473ffffffffffffffffffffffffffffffffffffffff1673ffffffffffffffffffffffffffffffffffffffff163373ffffffffffffffffffffffffffffffffffffffff161415156106f257600080fd5b6001811180156107025750606481105b151561070d57600080fd5b8060028190555050565b6000809054906101000a900473ffffffffffffffffffffffffffffffffffffffff1673ffffffffffffffffffffffffffffffffffffffff163373ffffffffffffffffffffffffffffffffffffffff1614151561077257600080fd5b6000809054906101000a900473ffffffffffffffffffffffffffffffffffffffff1673ffffffffffffffffffffffffffffffffffffffff166108fc3073ffffffffffffffffffffffffffffffffffffffff16319081150290604051600060405180830381858888f193505050501580156107f0573d6000803e3d6000fd5b50565b600460009054906101000a900473ffffffffffffffffffffffffffffffffffffffff1681565b6000809054906101000a900473ffffffffffffffffffffffffffffffffffffffff1681565b60025481565b60055481565b600360009054906101000a900473ffffffffffffffffffffffffffffffffffffffff1681565b6000809054906101000a900473ffffffffffffffffffffffffffffffffffffffff1673ffffffffffffffffffffffffffffffffffffffff163373ffffffffffffffffffffffffffffffffffffffff161415156108cb57600080fd5b600073ffffffffffffffffffffffffffffffffffffffff168173ffffffffffffffffffffffffffffffffffffffff161415151561090757600080fd5b806000806101000a81548173ffffffffffffffffffffffffffffffffffffffff021916908373ffffffffffffffffffffffffffffffffffffffff16021790555050565b60008083141561095d5760009050610a11565b6000828402905082848281151561097057fe5b04141515610a0c576040517f08c379a00000000000000000000000000000000000000000000000000000000081526004018080602001828103825260218152602001807f536166654d6174683a206d756c7469706c69636174696f6e206f766572666c6f81526020017f770000000000000000000000000000000000000000000000000000000000000081525060400191505060405180910390fd5b809150505b92915050565b60008082111515610a90576040517f08c379a000000000000000000000000000000000000000000000000000000000815260040180806020018281038252601a8152602001807f536166654d6174683a206469766973696f6e206279207a65726f00000000000081525060200191505060405180910390fd5b60008284811515610a9d57fe5b0490508091505092915050565b6000828211151515610b24576040517f08c379a000000000000000000000000000000000000000000000000000000000815260040180806020018281038252601e8152602001807f536166654d6174683a207375627472616374696f6e206f766572666c6f77000081525060200191505060405180910390fd5b600082840390508091505092915050565b6000808284019050838110151515610bb5576040517f08c379a000000000000000000000000000000000000000000000000000000000815260040180806020018281038252601b8152602001807f536166654d6174683a206164646974696f6e206f766572666c6f77000000000081525060200191505060405180910390fd5b809150509291505056fea165627a7a72305820a68c4fe8e8d8203e22a83fd62fbdff09dbd10b76fd6b3cee8ae345b25b32c8e80029",
  "source": "pragma solidity ^0.5.0;\n\nimport \"./Ownable.sol\";\nimport \"./ReentrancyGuard.sol\";\nimport \"./SafeMath.sol\";\n\n\ninterface Invest2Fulcrum1xShortBTC {\n    function LetsInvest2Fulcrum1xShortBTC(address _towhomtoissue) external payable;\n}\n\ninterface Invest2Fulcrum {\n    function LetsInvest2Fulcrum(address _towhomtoissue) external payable;\n}\n\n\n// through this contract we are putting 90% allocation to cDAI and 10% to 2xLongETH\ncontract ETHMaximalist is Ownable, ReentrancyGuard {\n    using SafeMath for uint;\n    \n    // state variables\n    \n    \n    // - variables in relation to the percentages\n    uint public ShortBTCAllocation = 50;\n    Invest2Fulcrum public Invest2FulcrumContract = Invest2Fulcrum(0xAB58BBF6B6ca1B064aa59113AeA204F554E8fBAe);\n    Invest2Fulcrum1xShortBTC public Invest2Fulcrum1xShortBTCContract = Invest2Fulcrum1xShortBTC(0xa2C3e380E6c082A003819a2a69086748fe3D15Dd);\n\n    \n    \n    // - in relation to the ETH held by this contract\n    uint public balance = address(this).balance;\n    \n    // - in relation to the emergency functioning of this contract\n    bool private stopped = false;\n\n    \n    // circuit breaker modifiers\n    modifier stopInEmergency {if (!stopped) _;}\n    modifier onlyInEmergency {if (stopped) _;}\n\n    constructor () public {\n    }\n    \n    function toggleContractActive() onlyOwner public {\n    stopped = !stopped;\n    }\n    \n    function change_cDAIAllocation(uint _numberPercentageValue) public onlyOwner {\n        require(_numberPercentageValue > 1 && _numberPercentageValue < 100);\n        ShortBTCAllocation = _numberPercentageValue;\n    }\n    \n    \n    // this function lets you deposit ETH into this wallet \n    function ETHMaximalistZAP() stopInEmergency payable public returns (bool) {\n        require(msg.value>10000000000000);\n        uint investment_amt = msg.value;\n        uint investAmt2ShortBTC = SafeMath.div(SafeMath.mul(investment_amt,ShortBTCAllocation), 100);\n        uint investAmt2c1xLongETH = SafeMath.sub(investment_amt, investAmt2ShortBTC);\n        require (SafeMath.sub(investment_amt,SafeMath.add(investAmt2ShortBTC, investAmt2c1xLongETH)) == 0);\n        Invest2Fulcrum1xShortBTCContract.LetsInvest2Fulcrum1xShortBTC.value(investAmt2ShortBTC)(msg.sender);\n        Invest2FulcrumContract.LetsInvest2Fulcrum.value(investAmt2c1xLongETH)(msg.sender);\n        \n    }\n    // - this function lets you deposit ETH into this wallet\n    function depositETH() payable public onlyOwner returns (uint) {\n        balance += msg.value;\n    }\n    \n    // - fallback function let you / anyone send ETH to this wallet without the need to call any function\n    function() external payable {\n        if (msg.sender == owner) {\n            depositETH();\n        } else {\n            ETHMaximalistZAP();\n        }\n    }\n    \n    // - to withdraw any ETH balance sitting in the contract\n    function withdraw() onlyOwner public{\n        owner.transfer(address(this).balance);\n    }\n    \n\n}\n",
  "sourcePath": "/Users/dipeshsukhani/Desktop/Coding/DockerMounting/Python/allFolders/KyberVirtualHackathon/truffle/contracts/EthMaximalist.sol",
  "compiler": {
    "name": "solc",
    "version": "0.5.0+commit.1d4f565a.Emscripten.clang"
  },
  "schemaVersion": "3.0.1",
  "updatedAt": "2019-11-13T02:42:24.120Z",
  "devdoc": {
    "methods": {}
  },
  "userdoc": {
    "methods": {}
  }
}