{
  "contractName": "Invest2Fulcrum2xLongBTC",
  "abi": [
    {
      "constant": true,
      "inputs": [],
      "name": "fulcrumInterfaceContract",
      "outputs": [
        {
          "name": "",
          "type": "address"
        }
      ],
      "payable": false,
      "stateMutability": "view",
      "type": "function"
    },
    {
      "constant": true,
      "inputs": [],
      "name": "owner",
      "outputs": [
        {
          "name": "",
          "type": "address"
        }
      ],
      "payable": false,
      "stateMutability": "view",
      "type": "function"
    },
    {
      "constant": true,
      "inputs": [],
      "name": "balance",
      "outputs": [
        {
          "name": "",
          "type": "uint256"
        }
      ],
      "payable": false,
      "stateMutability": "view",
      "type": "function"
    },
    {
      "constant": true,
      "inputs": [],
      "name": "maxPrice",
      "outputs": [
        {
          "name": "",
          "type": "uint256"
        }
      ],
      "payable": false,
      "stateMutability": "view",
      "type": "function"
    },
    {
      "constant": false,
      "inputs": [
        {
          "name": "newOwner",
          "type": "address"
        }
      ],
      "name": "transferOwnership",
      "outputs": [],
      "payable": false,
      "stateMutability": "nonpayable",
      "type": "function"
    },
    {
      "payable": true,
      "stateMutability": "payable",
      "type": "fallback"
    },
    {
      "anonymous": false,
      "inputs": [
        {
          "indexed": false,
          "name": "successmessage",
          "type": "string"
        },
        {
          "indexed": false,
          "name": "numberOfTokensIssued",
          "type": "uint256"
        }
      ],
      "name": "AmountInvested",
      "type": "event"
    },
    {
      "constant": false,
      "inputs": [
        {
          "name": "_fulcrumInterfaceContract",
          "type": "address"
        }
      ],
      "name": "set_fulcrumInterface",
      "outputs": [],
      "payable": false,
      "stateMutability": "nonpayable",
      "type": "function"
    },
    {
      "constant": false,
      "inputs": [
        {
          "name": "_insertETHValueonly",
          "type": "uint256"
        }
      ],
      "name": "set_maxPrice",
      "outputs": [],
      "payable": false,
      "stateMutability": "nonpayable",
      "type": "function"
    },
    {
      "constant": false,
      "inputs": [
        {
          "name": "_towhomtoissue",
          "type": "address"
        }
      ],
      "name": "LetsInvest2Fulcrum2xLongBTC",
      "outputs": [],
      "payable": true,
      "stateMutability": "payable",
      "type": "function"
    },
    {
      "constant": false,
      "inputs": [],
      "name": "depositETH",
      "outputs": [
        {
          "name": "",
          "type": "uint256"
        }
      ],
      "payable": true,
      "stateMutability": "payable",
      "type": "function"
    },
    {
      "constant": false,
      "inputs": [],
      "name": "withdraw",
      "outputs": [],
      "payable": false,
      "stateMutability": "nonpayable",
      "type": "function"
    }
  ],
  "bytecode": "0x60806040526a52b7d2dcc80cd2e4000000600355739fe6854447bb39dc8b78960882831269f9e78408600460006101000a81548173ffffffffffffffffffffffffffffffffffffffff021916908373ffffffffffffffffffffffffffffffffffffffff160217905550336000806101000a81548173ffffffffffffffffffffffffffffffffffffffff021916908373ffffffffffffffffffffffffffffffffffffffff16021790555060018081905550610911806100be6000396000f3fe6080604052600436106100a4576000357c0100000000000000000000000000000000000000000000000000000000900463ffffffff16806334476618146101135780633ccfd60b146101575780637ef552001461016e5780638da5cb5b146101c5578063b69ef8a81461021c578063e38d6b5c14610247578063ea0c0eba14610272578063f2fde38b146102c3578063f391c1ad14610314578063f6326fb31461034f575b6000809054906101000a900473ffffffffffffffffffffffffffffffffffffffff1673ffffffffffffffffffffffffffffffffffffffff163373ffffffffffffffffffffffffffffffffffffffff1614156101075761010161036d565b50610111565b610110336103dd565b5b005b6101556004803603602081101561012957600080fd5b81019080803573ffffffffffffffffffffffffffffffffffffffff1690602001909291905050506103dd565b005b34801561016357600080fd5b5061016c6105d4565b005b34801561017a57600080fd5b506101836106b0565b604051808273ffffffffffffffffffffffffffffffffffffffff1673ffffffffffffffffffffffffffffffffffffffff16815260200191505060405180910390f35b3480156101d157600080fd5b506101da6106d6565b604051808273ffffffffffffffffffffffffffffffffffffffff1673ffffffffffffffffffffffffffffffffffffffff16815260200191505060405180910390f35b34801561022857600080fd5b506102316106fb565b6040518082815260200191505060405180910390f35b34801561025357600080fd5b5061025c610701565b6040518082815260200191505060405180910390f35b34801561027e57600080fd5b506102c16004803603602081101561029557600080fd5b81019080803573ffffffffffffffffffffffffffffffffffffffff169060200190929190505050610707565b005b3480156102cf57600080fd5b50610312600480360360208110156102e657600080fd5b81019080803573ffffffffffffffffffffffffffffffffffffffff1690602001909291905050506107a6565b005b34801561032057600080fd5b5061034d6004803603602081101561033757600080fd5b8101908080359060200190929190505050610880565b005b61035761036d565b6040518082815260200191505060405180910390f35b60008060009054906101000a900473ffffffffffffffffffffffffffffffffffffffff1673ffffffffffffffffffffffffffffffffffffffff163373ffffffffffffffffffffffffffffffffffffffff161415156103ca57600080fd5b3460026000828254019250508190555090565b655af3107a4000341115156103f157600080fd5b600073ffffffffffffffffffffffffffffffffffffffff163373ffffffffffffffffffffffffffffffffffffffff161415151561042d57600080fd5b60003490506000600460009054906101000a900473ffffffffffffffffffffffffffffffffffffffff1673ffffffffffffffffffffffffffffffffffffffff16634e07008d83856003546040518463ffffffff167c0100000000000000000000000000000000000000000000000000000000028152600401808373ffffffffffffffffffffffffffffffffffffffff1673ffffffffffffffffffffffffffffffffffffffff168152602001828152602001925050506020604051808303818588803b1580156104fb57600080fd5b505af115801561050f573d6000803e3d6000fd5b50505050506040513d602081101561052657600080fd5b810190808051906020019092919050505090507fddb9d6f103ae432bcb189ade1985355e9e30bf4bc1a398222c516c9c3e3b59d7816040518080602001838152602001828103825260288152602001807f446f6e652120746865206e756d626572206f662070546f6b656e73206973737581526020017f6564206172653a200000000000000000000000000000000000000000000000008152506040019250505060405180910390a1505050565b6000809054906101000a900473ffffffffffffffffffffffffffffffffffffffff1673ffffffffffffffffffffffffffffffffffffffff163373ffffffffffffffffffffffffffffffffffffffff1614151561062f57600080fd5b6000809054906101000a900473ffffffffffffffffffffffffffffffffffffffff1673ffffffffffffffffffffffffffffffffffffffff166108fc3073ffffffffffffffffffffffffffffffffffffffff16319081150290604051600060405180830381858888f193505050501580156106ad573d6000803e3d6000fd5b50565b600460009054906101000a900473ffffffffffffffffffffffffffffffffffffffff1681565b6000809054906101000a900473ffffffffffffffffffffffffffffffffffffffff1681565b60025481565b60035481565b6000809054906101000a900473ffffffffffffffffffffffffffffffffffffffff1673ffffffffffffffffffffffffffffffffffffffff163373ffffffffffffffffffffffffffffffffffffffff1614151561076257600080fd5b80600460006101000a81548173ffffffffffffffffffffffffffffffffffffffff021916908373ffffffffffffffffffffffffffffffffffffffff16021790555050565b6000809054906101000a900473ffffffffffffffffffffffffffffffffffffffff1673ffffffffffffffffffffffffffffffffffffffff163373ffffffffffffffffffffffffffffffffffffffff1614151561080157600080fd5b600073ffffffffffffffffffffffffffffffffffffffff168173ffffffffffffffffffffffffffffffffffffffff161415151561083d57600080fd5b806000806101000a81548173ffffffffffffffffffffffffffffffffffffffff021916908373ffffffffffffffffffffffffffffffffffffffff16021790555050565b6000809054906101000a900473ffffffffffffffffffffffffffffffffffffffff1673ffffffffffffffffffffffffffffffffffffffff163373ffffffffffffffffffffffffffffffffffffffff161415156108db57600080fd5b806003819055505056fea165627a7a72305820c8c58362f8d8b63a7ad4f081fbcbf8b4eac8d031d1e54f339f799e915e3123df0029",
  "source": "pragma solidity ^0.5.0;\n\ncontract fulcrumInterface {\n    function mintWithEther(address receiver, uint256 maxPriceAllowed) external payable returns (uint256 mintAmount);\n    function mint(address receiver, uint256 amount) external payable returns (uint256 mintAmount);\n    function burnToEther(address receiver, uint256 burnAmount, uint256 minPriceAllowed) external returns (uint256 loanAmountPaid);\n}\n\nimport \"./Ownable.sol\";\nimport \"./ReentrancyGuard.sol\";\n\ncontract Invest2Fulcrum2xLongBTC is Ownable, ReentrancyGuard {\n    // this is a basic version of the contract that we will use to take ETH and invest in fulcrum 1x Short BTC product\n    \n    // function architechture\n    // - collect ETH from user\n    // - invest in fulcrum with Ether from user\n    // - send back the pToken to the ultimate user\n    \n    // state variables\n    uint public balance;\n    uint public maxPrice = 100000000000000000000000000;\n    fulcrumInterface public fulcrumInterfaceContract = fulcrumInterface(0x9fe6854447bB39dc8b78960882831269f9e78408);\n    \n    // events\n    event AmountInvested(string successmessage, uint numberOfTokensIssued);\n    \n    // fx in relation to invest with ETH in fulcrum\n    \n     // - should we ever want to change the interface contract\n    function set_fulcrumInterface(fulcrumInterface _fulcrumInterfaceContract) onlyOwner public {\n        fulcrumInterfaceContract = _fulcrumInterfaceContract;\n    }\n    \n    \n    // - this is to control the slippage\n    // - NOTE: the input has to be in Wei\n    function set_maxPrice(uint _insertETHValueonly) onlyOwner public {\n        maxPrice = _insertETHValueonly;\n    }\n    \n    //  - the investment fx\n    function LetsInvest2Fulcrum2xLongBTC(address _towhomtoissue) payable public  {\n        require (msg.value > 100000000000000);\n        require (msg.sender != address(0));\n        uint amountToBeInvested = msg.value;\n        uint tokensIssued = fulcrumInterfaceContract.mintWithEther.value(amountToBeInvested)(address(_towhomtoissue), maxPrice);\n        emit AmountInvested(\"Done! the number of pTokens issued are: \", tokensIssued);\n        \n    }\n    \n    \n    // fx in relation to ETH held by the contract sent by the owner\n    \n    // - this function lets you deposit ETH into this wallet\n    function depositETH() payable public onlyOwner returns (uint) {\n        balance += msg.value;\n    }\n    \n    // - fallback function let you / anyone send ETH to this wallet without the need to call any function\n    function() external payable {\n        if (msg.sender == owner) {\n            depositETH();\n        } else {\n            LetsInvest2Fulcrum2xLongBTC(msg.sender);\n        }\n    }\n    \n    // - to withdraw any ETH balance sitting in the contract\n    function withdraw() onlyOwner public{\n        owner.transfer(address(this).balance);\n    }\n    \n    \n}",
  "sourcePath": "/Users/dipeshsukhani/Desktop/Coding/DockerMounting/Python/allFolders/KyberVirtualHackathon/truffle/contracts/Invest2Fulcrum_2xLongBTC.sol",
  "compiler": {
    "name": "solc",
    "version": "0.5.0+commit.1d4f565a.Emscripten.clang"
  },
  "schemaVersion": "3.0.1",
  "updatedAt": "2019-11-13T02:42:24.118Z",
  "devdoc": {
    "methods": {}
  },
  "userdoc": {
    "methods": {}
  }
}