{
  "contractName": "Invest2Fulcrum1xShortBTC",
  "abi": [
    {
      "constant": true,
      "inputs": [],
      "name": "fulcrumInterfaceContract",
      "outputs": [
        {
          "name": "",
          "type": "address"
        }
      ],
      "payable": false,
      "stateMutability": "view",
      "type": "function"
    },
    {
      "constant": true,
      "inputs": [],
      "name": "owner",
      "outputs": [
        {
          "name": "",
          "type": "address"
        }
      ],
      "payable": false,
      "stateMutability": "view",
      "type": "function"
    },
    {
      "constant": true,
      "inputs": [],
      "name": "balance",
      "outputs": [
        {
          "name": "",
          "type": "uint256"
        }
      ],
      "payable": false,
      "stateMutability": "view",
      "type": "function"
    },
    {
      "constant": true,
      "inputs": [],
      "name": "maxPrice",
      "outputs": [
        {
          "name": "",
          "type": "uint256"
        }
      ],
      "payable": false,
      "stateMutability": "view",
      "type": "function"
    },
    {
      "constant": false,
      "inputs": [
        {
          "name": "newOwner",
          "type": "address"
        }
      ],
      "name": "transferOwnership",
      "outputs": [],
      "payable": false,
      "stateMutability": "nonpayable",
      "type": "function"
    },
    {
      "payable": true,
      "stateMutability": "payable",
      "type": "fallback"
    },
    {
      "anonymous": false,
      "inputs": [
        {
          "indexed": false,
          "name": "successmessage",
          "type": "string"
        },
        {
          "indexed": false,
          "name": "numberOfTokensIssued",
          "type": "uint256"
        }
      ],
      "name": "AmountInvested",
      "type": "event"
    },
    {
      "constant": false,
      "inputs": [
        {
          "name": "_fulcrumInterfaceContract",
          "type": "address"
        }
      ],
      "name": "set_fulcrumInterface",
      "outputs": [],
      "payable": false,
      "stateMutability": "nonpayable",
      "type": "function"
    },
    {
      "constant": false,
      "inputs": [
        {
          "name": "_insertETHValueonly",
          "type": "uint256"
        }
      ],
      "name": "set_maxPrice",
      "outputs": [],
      "payable": false,
      "stateMutability": "nonpayable",
      "type": "function"
    },
    {
      "constant": false,
      "inputs": [
        {
          "name": "_towhomtoissue",
          "type": "address"
        }
      ],
      "name": "LetsInvest2Fulcrum1xShortBTC",
      "outputs": [],
      "payable": true,
      "stateMutability": "payable",
      "type": "function"
    },
    {
      "constant": false,
      "inputs": [],
      "name": "depositETH",
      "outputs": [
        {
          "name": "",
          "type": "uint256"
        }
      ],
      "payable": true,
      "stateMutability": "payable",
      "type": "function"
    },
    {
      "constant": false,
      "inputs": [],
      "name": "withdraw",
      "outputs": [],
      "payable": false,
      "stateMutability": "nonpayable",
      "type": "function"
    }
  ],
  "bytecode": "0x60806040526a52b7d2dcc80cd2e4000000600355739fc208947d92b1588f7bde245620439568a8587a600460006101000a81548173ffffffffffffffffffffffffffffffffffffffff021916908373ffffffffffffffffffffffffffffffffffffffff160217905550336000806101000a81548173ffffffffffffffffffffffffffffffffffffffff021916908373ffffffffffffffffffffffffffffffffffffffff160217905550600180819055506108fd806100be6000396000f3fe6080604052600436106100a4576000357c0100000000000000000000000000000000000000000000000000000000900463ffffffff1680633ccfd60b146101135780637ef552001461012a5780638da5cb5b14610181578063b69ef8a8146101d8578063d243d85b14610203578063e38d6b5c14610247578063ea0c0eba14610272578063f2fde38b146102c3578063f391c1ad14610314578063f6326fb31461034f575b6000809054906101000a900473ffffffffffffffffffffffffffffffffffffffff1673ffffffffffffffffffffffffffffffffffffffff163373ffffffffffffffffffffffffffffffffffffffff1614156101075761010161036d565b50610111565b610110336103dd565b5b005b34801561011f57600080fd5b506101286105c0565b005b34801561013657600080fd5b5061013f61069c565b604051808273ffffffffffffffffffffffffffffffffffffffff1673ffffffffffffffffffffffffffffffffffffffff16815260200191505060405180910390f35b34801561018d57600080fd5b506101966106c2565b604051808273ffffffffffffffffffffffffffffffffffffffff1673ffffffffffffffffffffffffffffffffffffffff16815260200191505060405180910390f35b3480156101e457600080fd5b506101ed6106e7565b6040518082815260200191505060405180910390f35b6102456004803603602081101561021957600080fd5b81019080803573ffffffffffffffffffffffffffffffffffffffff1690602001909291905050506103dd565b005b34801561025357600080fd5b5061025c6106ed565b6040518082815260200191505060405180910390f35b34801561027e57600080fd5b506102c16004803603602081101561029557600080fd5b81019080803573ffffffffffffffffffffffffffffffffffffffff1690602001909291905050506106f3565b005b3480156102cf57600080fd5b50610312600480360360208110156102e657600080fd5b81019080803573ffffffffffffffffffffffffffffffffffffffff169060200190929190505050610792565b005b34801561032057600080fd5b5061034d6004803603602081101561033757600080fd5b810190808035906020019092919050505061086c565b005b61035761036d565b6040518082815260200191505060405180910390f35b60008060009054906101000a900473ffffffffffffffffffffffffffffffffffffffff1673ffffffffffffffffffffffffffffffffffffffff163373ffffffffffffffffffffffffffffffffffffffff161415156103ca57600080fd5b3460026000828254019250508190555090565b600073ffffffffffffffffffffffffffffffffffffffff168173ffffffffffffffffffffffffffffffffffffffff161415151561041957600080fd5b60003490506000600460009054906101000a900473ffffffffffffffffffffffffffffffffffffffff1673ffffffffffffffffffffffffffffffffffffffff16634e07008d83856003546040518463ffffffff167c0100000000000000000000000000000000000000000000000000000000028152600401808373ffffffffffffffffffffffffffffffffffffffff1673ffffffffffffffffffffffffffffffffffffffff168152602001828152602001925050506020604051808303818588803b1580156104e757600080fd5b505af11580156104fb573d6000803e3d6000fd5b50505050506040513d602081101561051257600080fd5b810190808051906020019092919050505090507fddb9d6f103ae432bcb189ade1985355e9e30bf4bc1a398222c516c9c3e3b59d7816040518080602001838152602001828103825260288152602001807f446f6e652120746865206e756d626572206f662070546f6b656e73206973737581526020017f6564206172653a200000000000000000000000000000000000000000000000008152506040019250505060405180910390a1505050565b6000809054906101000a900473ffffffffffffffffffffffffffffffffffffffff1673ffffffffffffffffffffffffffffffffffffffff163373ffffffffffffffffffffffffffffffffffffffff1614151561061b57600080fd5b6000809054906101000a900473ffffffffffffffffffffffffffffffffffffffff1673ffffffffffffffffffffffffffffffffffffffff166108fc3073ffffffffffffffffffffffffffffffffffffffff16319081150290604051600060405180830381858888f19350505050158015610699573d6000803e3d6000fd5b50565b600460009054906101000a900473ffffffffffffffffffffffffffffffffffffffff1681565b6000809054906101000a900473ffffffffffffffffffffffffffffffffffffffff1681565b60025481565b60035481565b6000809054906101000a900473ffffffffffffffffffffffffffffffffffffffff1673ffffffffffffffffffffffffffffffffffffffff163373ffffffffffffffffffffffffffffffffffffffff1614151561074e57600080fd5b80600460006101000a81548173ffffffffffffffffffffffffffffffffffffffff021916908373ffffffffffffffffffffffffffffffffffffffff16021790555050565b6000809054906101000a900473ffffffffffffffffffffffffffffffffffffffff1673ffffffffffffffffffffffffffffffffffffffff163373ffffffffffffffffffffffffffffffffffffffff161415156107ed57600080fd5b600073ffffffffffffffffffffffffffffffffffffffff168173ffffffffffffffffffffffffffffffffffffffff161415151561082957600080fd5b806000806101000a81548173ffffffffffffffffffffffffffffffffffffffff021916908373ffffffffffffffffffffffffffffffffffffffff16021790555050565b6000809054906101000a900473ffffffffffffffffffffffffffffffffffffffff1673ffffffffffffffffffffffffffffffffffffffff163373ffffffffffffffffffffffffffffffffffffffff161415156108c757600080fd5b806003819055505056fea165627a7a7230582016664b29bba07f7b56bc9cd8e563fd41e90655746a47f127111d7c5cbbd5309e0029",
  "source": "pragma solidity ^0.5.0;\n\ncontract fulcrumInterface {\n    function mintWithEther(address receiver, uint256 maxPriceAllowed) external payable returns (uint256 mintAmount);\n    function mint(address receiver, uint256 amount) external payable returns (uint256 mintAmount);\n    function burnToEther(address receiver, uint256 burnAmount, uint256 minPriceAllowed) external returns (uint256 loanAmountPaid);\n}\n\nimport \"./Ownable.sol\";\nimport \"./ReentrancyGuard.sol\";\n\ncontract Invest2Fulcrum1xShortBTC is Ownable, ReentrancyGuard {\n    // this is a basic version of the contract that we will use to take ETH and invest in fulcrum 1x Short BTC product\n    \n    // function architechture\n    // - collect ETH from user\n    // - invest in fulcrum with Ether from user\n    // - send back the pToken to the ultimate user\n    \n    // state variables\n    uint public balance;\n    uint public maxPrice = 100000000000000000000000000;\n    fulcrumInterface public fulcrumInterfaceContract = fulcrumInterface(0x9fC208947d92B1588F7BdE245620439568A8587a);\n    \n    // events\n    event AmountInvested(string successmessage, uint numberOfTokensIssued);\n    \n    // fx in relation to invest with ETH in fulcrum\n    \n     // - should we ever want to change the interface contract\n    function set_fulcrumInterface(fulcrumInterface _fulcrumInterfaceContract) onlyOwner public {\n        fulcrumInterfaceContract = _fulcrumInterfaceContract;\n    }\n    \n    \n    // - this is to control the slippage\n    function set_maxPrice(uint _insertETHValueonly) onlyOwner public {\n        maxPrice = _insertETHValueonly;\n    }\n    \n    //  - the investment fx\n    function LetsInvest2Fulcrum1xShortBTC(address _towhomtoissue) payable public  {\n        require(_towhomtoissue != address(0));\n        uint amountToBeInvested = msg.value;\n        uint tokensIssued = fulcrumInterfaceContract.mintWithEther.value(amountToBeInvested)(address(_towhomtoissue), maxPrice);\n        emit AmountInvested(\"Done! the number of pTokens issued are: \", tokensIssued);\n        \n    }\n    \n    \n    // fx in relation to ETH held by the contract sent by the owner\n    \n    // - this function lets you deposit ETH into this wallet\n    function depositETH() payable public onlyOwner returns (uint) {\n        balance += msg.value;\n    }\n    \n    // - fallback function let you / anyone send ETH to this wallet without the need to call any function\n    function() external payable {\n        if (msg.sender == owner) {\n            depositETH();\n        } else {\n            LetsInvest2Fulcrum1xShortBTC(msg.sender);\n        }\n    }\n    \n    // - to withdraw any ETH balance sitting in the contract\n    function withdraw() onlyOwner public{\n        owner.transfer(address(this).balance);\n    }\n    \n    \n}",
  "sourcePath": "/Users/dipeshsukhani/Desktop/Coding/DockerMounting/Python/allFolders/KyberVirtualHackathon/truffle/contracts/Invest2Fulcrum1xShortBTC.sol",
  "compiler": {
    "name": "solc",
    "version": "0.5.0+commit.1d4f565a.Emscripten.clang"
  },
  "schemaVersion": "3.0.1",
  "updatedAt": "2019-11-13T02:42:24.121Z",
  "devdoc": {
    "methods": {}
  },
  "userdoc": {
    "methods": {}
  }
}