{
  "contractName": "ETH2DAI",
  "abi": [
    {
      "constant": true,
      "inputs": [],
      "name": "kyberNetworkProxyContract",
      "outputs": [
        {
          "name": "",
          "type": "address"
        }
      ],
      "payable": false,
      "stateMutability": "view",
      "type": "function"
    },
    {
      "payable": true,
      "stateMutability": "payable",
      "type": "fallback"
    }
  ],
  "bytecode": "0x606060405260008054600160a060020a03191673818e6fecd516ecc3849daf6845e3ec868087b755179055341561003557600080fd5b610256806100446000396000f3006060604052600436106100275763ffffffff60e060020a600035041663785250da81146101ec575b6000805473ad6d458402f60fd3bd25163575031acdce07538d908290600160a060020a031663809a9e5573eeeeeeeeeeeeeeeeeeeeeeeeeeeeeeeeeeeeeeee8434856040516040015260405160e060020a63ffffffff8616028152600160a060020a03938416600482015291909216602482015260448101919091526064016040805180830381600087803b15156100be57600080fd5b6102c65a03f115156100cf57600080fd5b5050506040518051906020018051505060008054919450600160a060020a0390911690637a2a0456903490859087906040516020015260405160e060020a63ffffffff8616028152600160a060020a03909216600483015260248201526044016020604051808303818588803b151561014757600080fd5b6125ee5a03f1151561015857600080fd5b505050506040518051915050600160a060020a03821663a9059cbb338360006040516020015260405160e060020a63ffffffff8516028152600160a060020a0390921660048301526024820152604401602060405180830381600087803b15156101c157600080fd5b6102c65a03f115156101d257600080fd5b5050506040518051905015156101e757600080fd5b505050005b34156101f757600080fd5b6101ff61021b565b604051600160a060020a03909116815260200160405180910390f35b600054600160a060020a0316815600a165627a7a723058205de0562385fcb8095d8218fef552d16074f95a85cd7c464f5257f61bf29064830029",
  "source": "pragma solidity ^0.4.18;\n\nimport \"./KyberNetworkProxy.sol\";\n\ncontract ETH2DAI {\n    // Variables\n    KyberNetworkProxy public kyberNetworkProxyContract = KyberNetworkProxy(0x818E6FECD516Ecc3849DAf6845e3EC868087B755);\n    ERC20 constant internal ETH_TOKEN_ADDRESS = ERC20(0x00eeeeeeeeeeeeeeeeeeeeeeeeeeeeeeeeeeeeeeee);\n\n    // Functions\n\n    //@dev Swap the user's ETH to ERC20 token as a fallback function\n    //@param token destination token contract address\n    //@param destAddress address to send swapped tokens to\n    function () public payable {\n        // setting a local variable minConversionRate\n        uint minConversionRate;\n        ERC20 token = ERC20 (0xad6d458402f60fd3bd25163575031acdce07538d);\n\n        // Get the minimum conversion rate\n        (minConversionRate,) = kyberNetworkProxyContract.getExpectedRate(ETH_TOKEN_ADDRESS, token, msg.value);\n\n        // Swap the ETH to ERC20 token\n        uint destAmount = kyberNetworkProxyContract.swapEtherToToken.value(msg.value)(token, minConversionRate);\n\n        // Send the swapped tokens to the destination address\n        require(token.transfer(address(msg.sender), destAmount));\n    }\n    \n \n    \n}",
  "sourcePath": "/home/node/app/workshop-master/contracts/ETH2DAI.sol",
  "compiler": {
    "name": "solc",
    "version": "0.4.18+commit.9cf6e910.Emscripten.clang"
  },
  "schemaVersion": "3.0.16",
  "updatedAt": "2019-10-15T09:04:37.078Z",
  "devdoc": {
    "methods": {}
  },
  "userdoc": {
    "methods": {}
  }
}