{
  "contractName": "ExpectedRate",
  "abi": [
    {
      "constant": false,
      "inputs": [
        {
          "name": "alerter",
          "type": "address"
        }
      ],
      "name": "removeAlerter",
      "outputs": [],
      "payable": false,
      "stateMutability": "nonpayable",
      "type": "function"
    },
    {
      "constant": true,
      "inputs": [],
      "name": "pendingAdmin",
      "outputs": [
        {
          "name": "",
          "type": "address"
        }
      ],
      "payable": false,
      "stateMutability": "view",
      "type": "function"
    },
    {
      "constant": true,
      "inputs": [],
      "name": "getOperators",
      "outputs": [
        {
          "name": "",
          "type": "address[]"
        }
      ],
      "payable": false,
      "stateMutability": "view",
      "type": "function"
    },
    {
      "constant": false,
      "inputs": [
        {
          "name": "token",
          "type": "address"
        },
        {
          "name": "amount",
          "type": "uint256"
        },
        {
          "name": "sendTo",
          "type": "address"
        }
      ],
      "name": "withdrawToken",
      "outputs": [],
      "payable": false,
      "stateMutability": "nonpayable",
      "type": "function"
    },
    {
      "constant": false,
      "inputs": [
        {
          "name": "newAlerter",
          "type": "address"
        }
      ],
      "name": "addAlerter",
      "outputs": [],
      "payable": false,
      "stateMutability": "nonpayable",
      "type": "function"
    },
    {
      "constant": false,
      "inputs": [
        {
          "name": "newAdmin",
          "type": "address"
        }
      ],
      "name": "transferAdmin",
      "outputs": [],
      "payable": false,
      "stateMutability": "nonpayable",
      "type": "function"
    },
    {
      "constant": false,
      "inputs": [],
      "name": "claimAdmin",
      "outputs": [],
      "payable": false,
      "stateMutability": "nonpayable",
      "type": "function"
    },
    {
      "constant": false,
      "inputs": [
        {
          "name": "newAdmin",
          "type": "address"
        }
      ],
      "name": "transferAdminQuickly",
      "outputs": [],
      "payable": false,
      "stateMutability": "nonpayable",
      "type": "function"
    },
    {
      "constant": true,
      "inputs": [],
      "name": "getAlerters",
      "outputs": [
        {
          "name": "",
          "type": "address[]"
        }
      ],
      "payable": false,
      "stateMutability": "view",
      "type": "function"
    },
    {
      "constant": false,
      "inputs": [
        {
          "name": "newOperator",
          "type": "address"
        }
      ],
      "name": "addOperator",
      "outputs": [],
      "payable": false,
      "stateMutability": "nonpayable",
      "type": "function"
    },
    {
      "constant": true,
      "inputs": [],
      "name": "worstCaseRateFactorInBps",
      "outputs": [
        {
          "name": "",
          "type": "uint256"
        }
      ],
      "payable": false,
      "stateMutability": "view",
      "type": "function"
    },
    {
      "constant": true,
      "inputs": [],
      "name": "quantityFactor",
      "outputs": [
        {
          "name": "",
          "type": "uint256"
        }
      ],
      "payable": false,
      "stateMutability": "view",
      "type": "function"
    },
    {
      "constant": false,
      "inputs": [
        {
          "name": "operator",
          "type": "address"
        }
      ],
      "name": "removeOperator",
      "outputs": [],
      "payable": false,
      "stateMutability": "nonpayable",
      "type": "function"
    },
    {
      "constant": true,
      "inputs": [],
      "name": "kyberNetwork",
      "outputs": [
        {
          "name": "",
          "type": "address"
        }
      ],
      "payable": false,
      "stateMutability": "view",
      "type": "function"
    },
    {
      "constant": false,
      "inputs": [
        {
          "name": "amount",
          "type": "uint256"
        },
        {
          "name": "sendTo",
          "type": "address"
        }
      ],
      "name": "withdrawEther",
      "outputs": [],
      "payable": false,
      "stateMutability": "nonpayable",
      "type": "function"
    },
    {
      "constant": true,
      "inputs": [
        {
          "name": "token",
          "type": "address"
        },
        {
          "name": "user",
          "type": "address"
        }
      ],
      "name": "getBalance",
      "outputs": [
        {
          "name": "",
          "type": "uint256"
        }
      ],
      "payable": false,
      "stateMutability": "view",
      "type": "function"
    },
    {
      "constant": true,
      "inputs": [],
      "name": "knc",
      "outputs": [
        {
          "name": "",
          "type": "address"
        }
      ],
      "payable": false,
      "stateMutability": "view",
      "type": "function"
    },
    {
      "constant": true,
      "inputs": [],
      "name": "admin",
      "outputs": [
        {
          "name": "",
          "type": "address"
        }
      ],
      "payable": false,
      "stateMutability": "view",
      "type": "function"
    },
    {
      "inputs": [
        {
          "name": "_kyberNetwork",
          "type": "address"
        },
        {
          "name": "_knc",
          "type": "address"
        },
        {
          "name": "_admin",
          "type": "address"
        }
      ],
      "payable": false,
      "stateMutability": "nonpayable",
      "type": "constructor"
    },
    {
      "anonymous": false,
      "inputs": [
        {
          "indexed": false,
          "name": "newFactor",
          "type": "uint256"
        },
        {
          "indexed": false,
          "name": "oldFactor",
          "type": "uint256"
        },
        {
          "indexed": false,
          "name": "sender",
          "type": "address"
        }
      ],
      "name": "QuantityFactorSet",
      "type": "event"
    },
    {
      "anonymous": false,
      "inputs": [
        {
          "indexed": false,
          "name": "newMin",
          "type": "uint256"
        },
        {
          "indexed": false,
          "name": "oldMin",
          "type": "uint256"
        },
        {
          "indexed": false,
          "name": "sender",
          "type": "address"
        }
      ],
      "name": "MinSlippageFactorSet",
      "type": "event"
    },
    {
      "anonymous": false,
      "inputs": [
        {
          "indexed": false,
          "name": "token",
          "type": "address"
        },
        {
          "indexed": false,
          "name": "amount",
          "type": "uint256"
        },
        {
          "indexed": false,
          "name": "sendTo",
          "type": "address"
        }
      ],
      "name": "TokenWithdraw",
      "type": "event"
    },
    {
      "anonymous": false,
      "inputs": [
        {
          "indexed": false,
          "name": "amount",
          "type": "uint256"
        },
        {
          "indexed": false,
          "name": "sendTo",
          "type": "address"
        }
      ],
      "name": "EtherWithdraw",
      "type": "event"
    },
    {
      "anonymous": false,
      "inputs": [
        {
          "indexed": false,
          "name": "pendingAdmin",
          "type": "address"
        }
      ],
      "name": "TransferAdminPending",
      "type": "event"
    },
    {
      "anonymous": false,
      "inputs": [
        {
          "indexed": false,
          "name": "newAdmin",
          "type": "address"
        },
        {
          "indexed": false,
          "name": "previousAdmin",
          "type": "address"
        }
      ],
      "name": "AdminClaimed",
      "type": "event"
    },
    {
      "anonymous": false,
      "inputs": [
        {
          "indexed": false,
          "name": "newAlerter",
          "type": "address"
        },
        {
          "indexed": false,
          "name": "isAdd",
          "type": "bool"
        }
      ],
      "name": "AlerterAdded",
      "type": "event"
    },
    {
      "anonymous": false,
      "inputs": [
        {
          "indexed": false,
          "name": "newOperator",
          "type": "address"
        },
        {
          "indexed": false,
          "name": "isAdd",
          "type": "bool"
        }
      ],
      "name": "OperatorAdded",
      "type": "event"
    },
    {
      "constant": false,
      "inputs": [
        {
          "name": "newFactor",
          "type": "uint256"
        }
      ],
      "name": "setQuantityFactor",
      "outputs": [],
      "payable": false,
      "stateMutability": "nonpayable",
      "type": "function"
    },
    {
      "constant": false,
      "inputs": [
        {
          "name": "bps",
          "type": "uint256"
        }
      ],
      "name": "setWorstCaseRateFactor",
      "outputs": [],
      "payable": false,
      "stateMutability": "nonpayable",
      "type": "function"
    },
    {
      "constant": true,
      "inputs": [
        {
          "name": "src",
          "type": "address"
        },
        {
          "name": "dest",
          "type": "address"
        },
        {
          "name": "srcQty",
          "type": "uint256"
        },
        {
          "name": "usePermissionless",
          "type": "bool"
        }
      ],
      "name": "getExpectedRate",
      "outputs": [
        {
          "name": "expectedRate",
          "type": "uint256"
        },
        {
          "name": "slippageRate",
          "type": "uint256"
        }
      ],
      "payable": false,
      "stateMutability": "view",
      "type": "function"
    },
    {
      "constant": true,
      "inputs": [
        {
          "name": "currentKncToEthRate",
          "type": "uint256"
        }
      ],
      "name": "checkKncArbitrageRate",
      "outputs": [
        {
          "name": "",
          "type": "bool"
        }
      ],
      "payable": false,
      "stateMutability": "view",
      "type": "function"
    }
  ],
  "bytecode": "0x606060405260026008556032600955341561001957600080fd5b60405160608061170d83398101604052808051919060200180519190602001805160008054600160a060020a03191633600160a060020a039081169190911790915590925082161515905061006d57600080fd5b600160a060020a038216151561008257600080fd5b600160a060020a038316151561009757600080fd5b60078054600160a060020a03948516600160a060020a0319918216179091556000805492851692821692909217909155600a805492909316911617905561162a806100e36000396000f30060606040526004361061010e5763ffffffff60e060020a60003504166301a12fd38114610113578063267822471461013457806327a099d8146101635780633ccdbb28146101c9578063408ee7fe146101f257806375829def146102115780637658c5741461023057806377f50f97146102465780637acc8678146102595780637c423f54146102785780639870d7fe1461028b5780639bc72d5f146102aa578063a7de9c63146102cf578063ac8a584a146102e2578063b78b842d14610301578063ce56c45414610314578063d38d2bea14610336578063d4fac45d1461037b578063dcb46e38146103a0578063e61387e0146103b6578063e853cda3146103c9578063f851a440146103f3575b600080fd5b341561011e57600080fd5b610132600160a060020a0360043516610406565b005b341561013f57600080fd5b610147610576565b604051600160a060020a03909116815260200160405180910390f35b341561016e57600080fd5b610176610585565b60405160208082528190810183818151815260200191508051906020019060200280838360005b838110156101b557808201518382015260200161019d565b505050509050019250505060405180910390f35b34156101d457600080fd5b610132600160a060020a0360043581169060243590604435166105ee565b34156101fd57600080fd5b610132600160a060020a03600435166106e5565b341561021c57600080fd5b610132600160a060020a03600435166107e1565b341561023b57600080fd5b61013260043561087c565b341561025157600080fd5b610132610908565b341561026457600080fd5b610132600160a060020a03600435166109a2565b341561028357600080fd5b610176610a84565b341561029657600080fd5b610132600160a060020a0360043516610aea565b34156102b557600080fd5b6102bd610bba565b60405190815260200160405180910390f35b34156102da57600080fd5b6102bd610bc0565b34156102ed57600080fd5b610132600160a060020a0360043516610bc6565b341561030c57600080fd5b610147610d32565b341561031f57600080fd5b610132600435600160a060020a0360243516610d41565b341561034157600080fd5b610363600160a060020a03600435811690602435166044356064351515610dd4565b60405191825260208201526040908101905180910390f35b341561038657600080fd5b6102bd600160a060020a0360043581169060243516610f13565b34156103ab57600080fd5b610132600435610fc5565b34156103c157600080fd5b610147611052565b34156103d457600080fd5b6103df600435611061565b604051901515815260200160405180910390f35b34156103fe57600080fd5b610147611100565b6000805433600160a060020a0390811691161461042257600080fd5b600160a060020a03821660009081526003602052604090205460ff16151561044957600080fd5b50600160a060020a0381166000908152600360205260408120805460ff191690555b6005548110156105725781600160a060020a031660058281548110151561048e57fe5b600091825260209091200154600160a060020a0316141561056a576005805460001981019081106104bb57fe5b60009182526020909120015460058054600160a060020a0390921691839081106104e157fe5b60009182526020909120018054600160a060020a031916600160a060020a0392909216919091179055600580549061051d9060001983016115a5565b507f5611bf3e417d124f97bf2c788843ea8bb502b66079fbee02158ef30b172cb762826000604051600160a060020a039092168252151560208201526040908101905180910390a1610572565b60010161046b565b5050565b600154600160a060020a031681565b61058d6115ce565b60048054806020026020016040519081016040528092919081815260200182805480156105e357602002820191906000526020600020905b8154600160a060020a031681526001909101906020018083116105c5575b505050505090505b90565b60005433600160a060020a0390811691161461060957600080fd5b82600160a060020a031663a9059cbb828460006040516020015260405160e060020a63ffffffff8516028152600160a060020a0390921660048301526024820152604401602060405180830381600087803b151561066657600080fd5b6102c65a03f1151561067757600080fd5b50505060405180519050151561068c57600080fd5b7f72cb8a894ddb372ceec3d2a7648d86f17d5a15caae0e986c53109b8a9a9385e6838383604051600160a060020a03938416815260208101929092529091166040808301919091526060909101905180910390a1505050565b60005433600160a060020a0390811691161461070057600080fd5b600160a060020a03811660009081526003602052604090205460ff161561072657600080fd5b6005546032901061073657600080fd5b7f5611bf3e417d124f97bf2c788843ea8bb502b66079fbee02158ef30b172cb762816001604051600160a060020a039092168252151560208201526040908101905180910390a1600160a060020a0381166000908152600360205260409020805460ff1916600190811790915560058054909181016107b583826115a5565b5060009182526020909120018054600160a060020a031916600160a060020a0392909216919091179055565b60005433600160a060020a039081169116146107fc57600080fd5b600160a060020a038116151561081157600080fd5b6001547f3b81caf78fa51ecbc8acb482fd7012a277b428d9b80f9d156e8a54107496cc4090600160a060020a0316604051600160a060020a03909116815260200160405180910390a160018054600160a060020a031916600160a060020a0392909216919091179055565b600160a060020a03331660009081526002602052604090205460ff1615156108a357600080fd5b60648111156108b157600080fd5b7fd0f6fc40d497232b5aab1b7a34ea00ea45886e52d2fed39ad62af798a870fae381600854336040519283526020830191909152600160a060020a03166040808301919091526060909101905180910390a1600855565b60015433600160a060020a0390811691161461092357600080fd5b6001546000547f65da1cfc2c2e81576ad96afb24a581f8e109b7a403b35cbd3243a1c99efdb9ed91600160a060020a039081169116604051600160a060020a039283168152911660208201526040908101905180910390a16001805460008054600160a060020a0319908116600160a060020a03841617909155169055565b60005433600160a060020a039081169116146109bd57600080fd5b600160a060020a03811615156109d257600080fd5b7f3b81caf78fa51ecbc8acb482fd7012a277b428d9b80f9d156e8a54107496cc4081604051600160a060020a03909116815260200160405180910390a16000547f65da1cfc2c2e81576ad96afb24a581f8e109b7a403b35cbd3243a1c99efdb9ed908290600160a060020a0316604051600160a060020a039283168152911660208201526040908101905180910390a160008054600160a060020a031916600160a060020a0392909216919091179055565b610a8c6115ce565b60058054806020026020016040519081016040528092919081815260200182805480156105e357602002820191906000526020600020908154600160a060020a031681526001909101906020018083116105c5575050505050905090565b60005433600160a060020a03908116911614610b0557600080fd5b600160a060020a03811660009081526002602052604090205460ff1615610b2b57600080fd5b60045460329010610b3b57600080fd5b7f091a7a4b85135fdd7e8dbc18b12fabe5cc191ea867aa3c2e1a24a102af61d58b816001604051600160a060020a039092168252151560208201526040908101905180910390a1600160a060020a0381166000908152600260205260409020805460ff1916600190811790915560048054909181016107b583826115a5565b60095481565b60085481565b6000805433600160a060020a03908116911614610be257600080fd5b600160a060020a03821660009081526002602052604090205460ff161515610c0957600080fd5b50600160a060020a0381166000908152600260205260408120805460ff191690555b6004548110156105725781600160a060020a0316600482815481101515610c4e57fe5b600091825260209091200154600160a060020a03161415610d2a57600480546000198101908110610c7b57fe5b60009182526020909120015460048054600160a060020a039092169183908110610ca157fe5b60009182526020909120018054600160a060020a031916600160a060020a0392909216919091179055600480546000190190610cdd90826115a5565b507f091a7a4b85135fdd7e8dbc18b12fabe5cc191ea867aa3c2e1a24a102af61d58b826000604051600160a060020a039092168252151560208201526040908101905180910390a1610572565b600101610c2b565b600754600160a060020a031681565b60005433600160a060020a03908116911614610d5c57600080fd5b600160a060020a03811682156108fc0283604051600060405180830381858888f193505050501515610d8d57600080fd5b7fec47e7ed86c86774d1a72c19f35c639911393fe7c1a34031fdbd260890da90de8282604051918252600160a060020a031660208201526040908101905180910390a15050565b600080600080600854600014151515610dec57600080fd5b6b204fce5e3e25026110000000861115610e0557600080fd5b6008546b204fce5e3e250261100000009087021115610e2357600080fd5b851515610e2f57600195505b60009150610e3f8888888861110f565b909550935091508115610e585760009350839250610f08565b831515610e6e57610e6b8888888861122a565b93505b600a54600160a060020a038981169116148015610ea75750600160a060020a03871673eeeeeeeeeeeeeeeeeeeeeeeeeeeeeeeeeeeeeeee145b8015610eba5750670de0b6b3a764000086145b15610ed257610ec884611061565b15610ed257600093505b69d3c21bcecceda1000000841115610ef05760009350839250610f08565b50600954612710908103840204808310610f08578092505b505094509492505050565b6000600160a060020a03831673eeeeeeeeeeeeeeeeeeeeeeeeeeeeeeeeeeeeeeee1415610f4b5750600160a060020a03811631610fbf565b82600160a060020a03166370a082318360006040516020015260405160e060020a63ffffffff8416028152600160a060020a039091166004820152602401602060405180830381600087803b1515610fa257600080fd5b6102c65a03f11515610fb357600080fd5b50505060405180519150505b92915050565b600160a060020a03331660009081526002602052604090205460ff161515610fec57600080fd5b612710811115610ffb57600080fd5b7f4357e20f1241d972328c5b3239d9ef4ac96f0f4fce8e10fd3bf9053690dad0ac81600954336040519283526020830191909152600160a060020a03166040808301919091526060909101905180910390a1600955565b600a54600160a060020a031681565b600a546000908190819061109e9073eeeeeeeeeeeeeeeeeeeeeeeeeeeeeeeeeeeeeeee90600160a060020a0316670de0b6b3a76400006001610dd4565b90925090508115156110b357600192506110f9565b69d3c21bcecceda100000082118015906110d7575069d3c21bcecceda10000008411155b15156110e257600080fd5b6ec097ce7bc90715b34b9f10000000008285021192505b5050919050565b600054600160a060020a031681565b60008060008084611176576040517f66696e6442657374526174654f6e6c795065726d697373696f6e28616464726581527f73732c616464726573732c75696e743235362900000000000000000000000000602082015260330160405180910390206111ce565b6040517f66696e64426573745261746528616464726573732c616464726573732c75696e81527f7432353629000000000000000000000000000000000000000000000000000000602082015260250160405180910390205b90506111dc888888846113c4565b909450925083156111f757600193506000925082915061121f565b60085460011461121b5761121188886008548902846113c4565b909450915061121f565b8291505b509450945094915050565b6007546000908190819081908190600160a060020a0316630c235d968a73eeeeeeeeeeeeeeeeeeeeeeeeeeeeeeeeeeeeeeee8a8a866040516040015260405160e060020a63ffffffff8716028152600160a060020a039485166004820152929093166024830152604482015290151560648201526084016040805180830381600087803b15156112b957600080fd5b6102c65a03f115156112ca57600080fd5b505050604051805190602001805191955090935061130090508973eeeeeeeeeeeeeeeeeeeeeeeeeeeeeeeeeeeeeeee8986611427565b600754909150600160a060020a0316630c235d9673eeeeeeeeeeeeeeeeeeeeeeeeeeeeeeeeeeeeeeee8a848a60006040516040015260405160e060020a63ffffffff8716028152600160a060020a039485166004820152929093166024830152604482015290151560648201526084016040805180830381600087803b151561138857600080fd5b6102c65a03f1151561139957600080fd5b5050506040518051906020018051670de0b6b3a76400009502949094049a9950505050505050505050565b6007546000908190600160a060020a03168160405185815288600482015287602482015286604482015260a48101604052604060648201606483865afa91506084810151604091909152925060018114610f085760019350505094509492505050565b60006114458361143687611450565b61143f87611450565b85611514565b90505b949350505050565b600080600160a060020a03831673eeeeeeeeeeeeeeeeeeeeeeeeeeeeeeeeeeeeeeee1415611481576012915061150e565b50600160a060020a03821660009081526006602052604090205480151561150a5782600160a060020a031663313ce5676000604051602001526040518163ffffffff1660e060020a028152600401602060405180830381600087803b15156114e857600080fd5b6102c65a03f115156114f957600080fd5b50505060405180519050915061150e565b8091505b50919050565b60006b204fce5e3e2502611000000085111561152f57600080fd5b69d3c21bcecceda100000082111561154657600080fd5b838310611579576012848403111561155d57600080fd5b670de0b6b3a7640000858302858503600a0a025b049050611448565b6012838503111561158957600080fd5b828403600a0a670de0b6b3a76400000282860281151561157157fe5b8154818355818115116115c9576000838152602090206115c99181019083016115e0565b505050565b60206040519081016040526000815290565b6105eb91905b808211156115fa57600081556001016115e6565b50905600a165627a7a723058204bdaaf87d6f9f2ed0dc9ee540891378592e089566418f97dd722353ba36029690029",
  "source": "pragma solidity 0.4.18;\n\n\nimport \"./ERC20Interface.sol\";\nimport \"./KyberNetwork.sol\";\nimport \"./Withdrawable.sol\";\nimport \"./ExpectedRateInterface.sol\";\n\n\ncontract ExpectedRate is Withdrawable, ExpectedRateInterface, Utils2 {\n\n    KyberNetwork public kyberNetwork;\n    uint public quantityFactor = 2;\n    uint public worstCaseRateFactorInBps = 50;\n    uint constant UNIT_QTY_FOR_FEE_BURNER = 10 ** 18;\n    ERC20 public knc;\n\n    function ExpectedRate(KyberNetwork _kyberNetwork, ERC20 _knc, address _admin) public {\n        require(_admin != address(0));\n        require(_knc != address(0));\n        require(_kyberNetwork != address(0));\n        kyberNetwork = _kyberNetwork;\n        admin = _admin;\n        knc = _knc;\n    }\n\n    event QuantityFactorSet (uint newFactor, uint oldFactor, address sender);\n\n    function setQuantityFactor(uint newFactor) public onlyOperator {\n        require(newFactor <= 100);\n\n        QuantityFactorSet(newFactor, quantityFactor, msg.sender);\n        quantityFactor = newFactor;\n    }\n\n    event MinSlippageFactorSet (uint newMin, uint oldMin, address sender);\n\n    function setWorstCaseRateFactor(uint bps) public onlyOperator {\n        require(bps <= 100 * 100);\n\n        MinSlippageFactorSet(bps, worstCaseRateFactorInBps, msg.sender);\n        worstCaseRateFactorInBps = bps;\n    }\n\n    //@dev when srcQty too small or 0 the expected rate will be calculated without quantity,\n    // will enable rate reference before committing to any quantity\n    //@dev when srcQty too small (no actual dest qty) slippage rate will be 0.\n    function getExpectedRate(ERC20 src, ERC20 dest, uint srcQty, bool usePermissionless)\n        public view\n        returns (uint expectedRate, uint slippageRate)\n    {\n        require(quantityFactor != 0);\n        require(srcQty <= MAX_QTY);\n        require(srcQty * quantityFactor <= MAX_QTY);\n\n        if (srcQty == 0) srcQty = 1;\n\n        bool didRevert = false;\n\n        (didRevert, expectedRate, slippageRate) = safeFindBestRate(src, dest, srcQty, usePermissionless);\n        if (didRevert) return (0, 0);\n\n        if (expectedRate == 0) {\n            expectedRate = expectedRateSmallQty(src, dest, srcQty, usePermissionless);\n        }\n\n        if (src == knc &&\n            dest == ETH_TOKEN_ADDRESS &&\n            srcQty == UNIT_QTY_FOR_FEE_BURNER )\n        {\n            if (checkKncArbitrageRate(expectedRate)) expectedRate = 0;\n        }\n\n        if (expectedRate > MAX_RATE) return (0, 0);\n\n        uint worstCaseSlippageRate = ((10000 - worstCaseRateFactorInBps) * expectedRate) / 10000;\n        if (slippageRate >= worstCaseSlippageRate) {\n            slippageRate = worstCaseSlippageRate;\n        }\n\n        return (expectedRate, slippageRate);\n    }\n\n    function checkKncArbitrageRate(uint currentKncToEthRate) public view returns(bool) {\n        uint converseRate;\n        uint slippage;\n    \t(converseRate, slippage) = getExpectedRate(ETH_TOKEN_ADDRESS, knc, UNIT_QTY_FOR_FEE_BURNER, true);\n\n        // if returned rate is 0, can't trust this arb test. assume we have arb\n        if(converseRate == 0) return true;\n\n        require(converseRate <= MAX_RATE && currentKncToEthRate <= MAX_RATE);\n        return ((converseRate * currentKncToEthRate) > (PRECISION ** 2));\n    }\n\n    //@dev for small src quantities dest qty might be 0, then returned rate is zero.\n    //@dev for backward compatibility we would like to return non zero rate (correct one) for small src qty\n    function expectedRateSmallQty(ERC20 src, ERC20 dest, uint srcQty, bool usePermissionless)\n        internal view returns(uint)\n    {\n        address reserve;\n        uint rateSrcToEth;\n        uint rateEthToDest;\n        (reserve, rateSrcToEth) = kyberNetwork.searchBestRate(src, ETH_TOKEN_ADDRESS, srcQty, usePermissionless);\n\n        uint ethQty = calcDestAmount(src, ETH_TOKEN_ADDRESS, srcQty, rateSrcToEth);\n\n        (reserve, rateEthToDest) = kyberNetwork.searchBestRate(ETH_TOKEN_ADDRESS, dest, ethQty, usePermissionless);\n        return rateSrcToEth * rateEthToDest / PRECISION;\n    }\n\n    function safeFindBestRate(ERC20 src, ERC20 dest, uint srcQty, bool usePermissionless)\n        internal view\n        returns (bool didRevert, uint expectedRate, uint slippageRate)\n    {\n        bytes4 sig = usePermissionless ?\n            bytes4(keccak256(\"findBestRate(address,address,uint256)\")) :\n            bytes4(keccak256(\"findBestRateOnlyPermission(address,address,uint256)\")); //Function signatures\n\n        (didRevert, expectedRate) = assemblyFindBestRate(src, dest, srcQty, sig);\n\n        if (didRevert) return (true, 0, 0);\n\n        if (quantityFactor != 1) {\n            (didRevert, slippageRate) = assemblyFindBestRate(src, dest, (srcQty * quantityFactor), sig);\n        } else {\n            slippageRate = expectedRate;\n        }\n    }\n\n    function assemblyFindBestRate(ERC20 src, ERC20 dest, uint srcQty, bytes4 sig)\n        internal view\n        returns (bool didRevert, uint rate)\n    {\n        address addr = address(kyberNetwork);  // kyber address\n        uint success;\n\n        assembly {\n            let x := mload(0x40)        // \"free memory pointer\"\n            mstore(x,sig)               // function signature\n            mstore(add(x,0x04),src)     // src address padded to 32 bytes\n            mstore(add(x,0x24),dest)    // dest padded to 32 bytes\n            mstore(add(x,0x44),srcQty)  // uint 32 bytes\n            mstore(0x40,add(x,0xa4))    // set free storage pointer to empty space after output\n\n            // input size = sig + ERC20 (address) + ERC20 + uint\n            // = 4 + 32 + 32 + 32 = 100 = 0x64\n            success := staticcall(\n                gas,  // gas\n                addr, // Kyber addr\n                x,    // Inputs at location x\n                0x64, // Inputs size bytes\n                add(x, 0x64),    // output storage after input\n                0x40) // Output size are (uint, uint) = 64 bytes\n\n            rate := mload(add(x,0x84))  //Assign 2nd output to rate, first output not used,\n            mstore(0x40,x)    // Set empty storage pointer back to start position\n        }\n\n        if (success != 1) didRevert = true;\n    }\n}\n",
  "sourcePath": "/home/node/app/workshop-master/contracts/ExpectedRate.sol",
  "compiler": {
    "name": "solc",
    "version": "0.4.18+commit.9cf6e910.Emscripten.clang"
  },
  "schemaVersion": "3.0.16",
  "updatedAt": "2019-10-11T14:32:48.427Z",
  "devdoc": {
    "methods": {
      "claimAdmin()": {
        "details": "Allows the pendingAdmin address to finalize the change admin process."
      },
      "getBalance(address,address)": {
        "details": "get the balance of a user.",
        "params": {
          "token": "The token type"
        },
        "return": "The balance"
      },
      "transferAdmin(address)": {
        "details": "Allows the current admin to set the pendingAdmin address.",
        "params": {
          "newAdmin": "The address to transfer ownership to."
        }
      },
      "transferAdminQuickly(address)": {
        "details": "Allows the current admin to set the admin in one tx. Useful initial deployment.",
        "params": {
          "newAdmin": "The address to transfer ownership to."
        }
      },
      "withdrawEther(uint256,address)": {
        "details": "Withdraw Ethers"
      },
      "withdrawToken(address,uint256,address)": {
        "details": "Withdraw all ERC20 compatible tokens",
        "params": {
          "token": "ERC20 The address of the token contract"
        }
      }
    }
  },
  "userdoc": {
    "methods": {}
  }
}