{
  "contractName": "Invest2cDAI",
  "abi": [
    {
      "constant": true,
      "inputs": [],
      "name": "ETH_TOKEN_ADDRESS",
      "outputs": [
        {
          "internalType": "contract ERC20",
          "name": "",
          "type": "address"
        }
      ],
      "payable": false,
      "stateMutability": "view",
      "type": "function"
    },
    {
      "constant": true,
      "inputs": [],
      "name": "COMPOUND_TOKEN_ADDRESS",
      "outputs": [
        {
          "internalType": "contract Compound",
          "name": "",
          "type": "address"
        }
      ],
      "payable": false,
      "stateMutability": "view",
      "type": "function"
    },
    {
      "constant": true,
      "inputs": [],
      "name": "kyberNetworkProxyContract",
      "outputs": [
        {
          "internalType": "contract IKyberNetworkProxy",
          "name": "",
          "type": "address"
        }
      ],
      "payable": false,
      "stateMutability": "view",
      "type": "function"
    },
    {
      "constant": true,
      "inputs": [],
      "name": "DAI_TOKEN_ADDRESS",
      "outputs": [
        {
          "internalType": "contract ERC20",
          "name": "",
          "type": "address"
        }
      ],
      "payable": false,
      "stateMutability": "view",
      "type": "function"
    },
    {
      "constant": true,
      "inputs": [],
      "name": "owner",
      "outputs": [
        {
          "internalType": "address payable",
          "name": "",
          "type": "address"
        }
      ],
      "payable": false,
      "stateMutability": "view",
      "type": "function"
    },
    {
      "constant": true,
      "inputs": [],
      "name": "balance",
      "outputs": [
        {
          "internalType": "uint256",
          "name": "",
          "type": "uint256"
        }
      ],
      "payable": false,
      "stateMutability": "view",
      "type": "function"
    },
    {
      "constant": false,
      "inputs": [
        {
          "internalType": "address payable",
          "name": "newOwner",
          "type": "address"
        }
      ],
      "name": "transferOwnership",
      "outputs": [],
      "payable": false,
      "stateMutability": "nonpayable",
      "type": "function"
    },
    {
      "payable": true,
      "stateMutability": "payable",
      "type": "fallback"
    },
    {
      "anonymous": false,
      "inputs": [
        {
          "indexed": false,
          "internalType": "string",
          "name": "successmessage",
          "type": "string"
        },
        {
          "indexed": false,
          "internalType": "uint256",
          "name": "numberOfTokensIssued",
          "type": "uint256"
        }
      ],
      "name": "AmountInvested",
      "type": "event"
    },
    {
      "constant": false,
      "inputs": [
        {
          "internalType": "contract IKyberNetworkProxy",
          "name": "_kyberNetworkProxyContract",
          "type": "address"
        }
      ],
      "name": "set_kyberNetworkProxyContract",
      "outputs": [],
      "payable": false,
      "stateMutability": "nonpayable",
      "type": "function"
    },
    {
      "constant": false,
      "inputs": [
        {
          "internalType": "contract ERC20",
          "name": "_DAI_TOKEN_ADDRESS",
          "type": "address"
        }
      ],
      "name": "set_DAI_TOKEN_ADDRESS",
      "outputs": [],
      "payable": false,
      "stateMutability": "nonpayable",
      "type": "function"
    },
    {
      "constant": false,
      "inputs": [
        {
          "internalType": "contract Compound",
          "name": "_COMPOUND_TOKEN_ADDRESS",
          "type": "address"
        }
      ],
      "name": "set_COMPOUND_TOKEN_ADDRESS",
      "outputs": [],
      "payable": false,
      "stateMutability": "nonpayable",
      "type": "function"
    },
    {
      "constant": false,
      "inputs": [
        {
          "internalType": "address",
          "name": "_towhomtoissue",
          "type": "address"
        }
      ],
      "name": "letsGetSome_cDAI",
      "outputs": [],
      "payable": true,
      "stateMutability": "payable",
      "type": "function"
    },
    {
      "constant": false,
      "inputs": [],
      "name": "inCaseDAIgetsStuck",
      "outputs": [],
      "payable": false,
      "stateMutability": "nonpayable",
      "type": "function"
    },
    {
      "constant": false,
      "inputs": [],
      "name": "inCaseC_DAIgetsStuck",
      "outputs": [],
      "payable": false,
      "stateMutability": "nonpayable",
      "type": "function"
    },
    {
      "constant": false,
      "inputs": [],
      "name": "depositETH",
      "outputs": [
        {
          "internalType": "uint256",
          "name": "",
          "type": "uint256"
        }
      ],
      "payable": true,
      "stateMutability": "payable",
      "type": "function"
    },
    {
      "constant": false,
      "inputs": [],
      "name": "withdraw",
      "outputs": [],
      "payable": false,
      "stateMutability": "nonpayable",
      "type": "function"
    }
  ],
  "bytecode": "0x608060405273818e6fecd516ecc3849daf6845e3ec868087b755600160006101000a81548173ffffffffffffffffffffffffffffffffffffffff021916908373ffffffffffffffffffffffffffffffffffffffff1602179055507389d24a6b4ccb1b6faa2625fe562bdd9a23260359600260006101000a81548173ffffffffffffffffffffffffffffffffffffffff021916908373ffffffffffffffffffffffffffffffffffffffff16021790555073f5dce57282a584d2746faf1593d3121fcac444dc600360006101000a81548173ffffffffffffffffffffffffffffffffffffffff021916908373ffffffffffffffffffffffffffffffffffffffff160217905550336000806101000a81548173ffffffffffffffffffffffffffffffffffffffff021916908373ffffffffffffffffffffffffffffffffffffffff1602179055506115a6806101526000396000f3fe6080604052600436106100e85760003560e01c806389057d781161008a578063f2fde38b11610059578063f2fde38b14610456578063f42da234146104a7578063f6326fb3146104be578063f808e1fa146104dc576100e8565b806389057d78146103325780638da5cb5b14610383578063b69ef8a8146103da578063db190f7714610405576100e8565b80633bdac13d116100c65780633bdac13d1461021c5780633ccfd60b1461026d578063785250da1461028457806380ad3008146102db576100e8565b806312e69e02146101575780631878d1f11461016e57806330139f7f146101c5575b6000809054906101000a900473ffffffffffffffffffffffffffffffffffffffff1673ffffffffffffffffffffffffffffffffffffffff163373ffffffffffffffffffffffffffffffffffffffff16141561014b57610145610520565b50610155565b6101543361058e565b5b005b34801561016357600080fd5b5061016c610be9565b005b34801561017a57600080fd5b50610183610e29565b604051808273ffffffffffffffffffffffffffffffffffffffff1673ffffffffffffffffffffffffffffffffffffffff16815260200191505060405180910390f35b3480156101d157600080fd5b506101da610e41565b604051808273ffffffffffffffffffffffffffffffffffffffff1673ffffffffffffffffffffffffffffffffffffffff16815260200191505060405180910390f35b34801561022857600080fd5b5061026b6004803603602081101561023f57600080fd5b81019080803573ffffffffffffffffffffffffffffffffffffffff169060200190929190505050610e67565b005b34801561027957600080fd5b50610282610f04565b005b34801561029057600080fd5b50610299610fde565b604051808273ffffffffffffffffffffffffffffffffffffffff1673ffffffffffffffffffffffffffffffffffffffff16815260200191505060405180910390f35b3480156102e757600080fd5b506102f0611004565b604051808273ffffffffffffffffffffffffffffffffffffffff1673ffffffffffffffffffffffffffffffffffffffff16815260200191505060405180910390f35b34801561033e57600080fd5b506103816004803603602081101561035557600080fd5b81019080803573ffffffffffffffffffffffffffffffffffffffff16906020019092919050505061102a565b005b34801561038f57600080fd5b506103986110c7565b604051808273ffffffffffffffffffffffffffffffffffffffff1673ffffffffffffffffffffffffffffffffffffffff16815260200191505060405180910390f35b3480156103e657600080fd5b506103ef6110ec565b6040518082815260200191505060405180910390f35b34801561041157600080fd5b506104546004803603602081101561042857600080fd5b81019080803573ffffffffffffffffffffffffffffffffffffffff1690602001909291905050506110f2565b005b34801561046257600080fd5b506104a56004803603602081101561047957600080fd5b81019080803573ffffffffffffffffffffffffffffffffffffffff16906020019092919050505061118f565b005b3480156104b357600080fd5b506104bc611265565b005b6104c6610520565b6040518082815260200191505060405180910390f35b61051e600480360360208110156104f257600080fd5b81019080803573ffffffffffffffffffffffffffffffffffffffff16906020019092919050505061058e565b005b60008060009054906101000a900473ffffffffffffffffffffffffffffffffffffffff1673ffffffffffffffffffffffffffffffffffffffff163373ffffffffffffffffffffffffffffffffffffffff161461057b57600080fd5b3460046000828254019250508190555090565b6000600160009054906101000a900473ffffffffffffffffffffffffffffffffffffffff1673ffffffffffffffffffffffffffffffffffffffff1663809a9e5573eeeeeeeeeeeeeeeeeeeeeeeeeeeeeeeeeeeeeeee600260009054906101000a900473ffffffffffffffffffffffffffffffffffffffff16346040518463ffffffff1660e01b8152600401808473ffffffffffffffffffffffffffffffffffffffff1673ffffffffffffffffffffffffffffffffffffffff1681526020018373ffffffffffffffffffffffffffffffffffffffff1673ffffffffffffffffffffffffffffffffffffffff1681526020018281526020019350505050604080518083038186803b1580156106a057600080fd5b505afa1580156106b4573d6000803e3d6000fd5b505050506040513d60408110156106ca57600080fd5b81019080805190602001909291908051906020019092919050505050809150506000600160009054906101000a900473ffffffffffffffffffffffffffffffffffffffff1673ffffffffffffffffffffffffffffffffffffffff16637a2a045634600260009054906101000a900473ffffffffffffffffffffffffffffffffffffffff16856040518463ffffffff1660e01b8152600401808373ffffffffffffffffffffffffffffffffffffffff1673ffffffffffffffffffffffffffffffffffffffff168152602001828152602001925050506020604051808303818588803b1580156107b757600080fd5b505af11580156107cb573d6000803e3d6000fd5b50505050506040513d60208110156107e257600080fd5b8101908080519060200190929190505050905060006108028260036114a5565b9050600260009054906101000a900473ffffffffffffffffffffffffffffffffffffffff1673ffffffffffffffffffffffffffffffffffffffff1663095ea7b3600360009054906101000a900473ffffffffffffffffffffffffffffffffffffffff16836040518363ffffffff1660e01b8152600401808373ffffffffffffffffffffffffffffffffffffffff1673ffffffffffffffffffffffffffffffffffffffff16815260200182815260200192505050602060405180830381600087803b1580156108cf57600080fd5b505af11580156108e3573d6000803e3d6000fd5b505050506040513d60208110156108f957600080fd5b810190808051906020019092919050505061091357600080fd5b600360009054906101000a900473ffffffffffffffffffffffffffffffffffffffff1673ffffffffffffffffffffffffffffffffffffffff1663a0712d68836040518263ffffffff1660e01b815260040180828152602001915050602060405180830381600087803b15801561098857600080fd5b505af115801561099c573d6000803e3d6000fd5b505050506040513d60208110156109b257600080fd5b8101908080519060200190929190505050506000600360009054906101000a900473ffffffffffffffffffffffffffffffffffffffff1673ffffffffffffffffffffffffffffffffffffffff166370a08231306040518263ffffffff1660e01b8152600401808273ffffffffffffffffffffffffffffffffffffffff1673ffffffffffffffffffffffffffffffffffffffff16815260200191505060206040518083038186803b158015610a6557600080fd5b505afa158015610a79573d6000803e3d6000fd5b505050506040513d6020811015610a8f57600080fd5b81019080805190602001909291905050509050600360009054906101000a900473ffffffffffffffffffffffffffffffffffffffff1673ffffffffffffffffffffffffffffffffffffffff1663a9059cbb86836040518363ffffffff1660e01b8152600401808373ffffffffffffffffffffffffffffffffffffffff1673ffffffffffffffffffffffffffffffffffffffff16815260200182815260200192505050602060405180830381600087803b158015610b4b57600080fd5b505af1158015610b5f573d6000803e3d6000fd5b505050506040513d6020811015610b7557600080fd5b8101908080519060200190929190505050610b8f57600080fd5b7fddb9d6f103ae432bcb189ade1985355e9e30bf4bc1a398222c516c9c3e3b59d78160405180806020018381526020018281038252602581526020018061154d602591396040019250505060405180910390a15050505050565b6000809054906101000a900473ffffffffffffffffffffffffffffffffffffffff1673ffffffffffffffffffffffffffffffffffffffff163373ffffffffffffffffffffffffffffffffffffffff1614610c4257600080fd5b6000600260009054906101000a900473ffffffffffffffffffffffffffffffffffffffff1673ffffffffffffffffffffffffffffffffffffffff166370a08231306040518263ffffffff1660e01b8152600401808273ffffffffffffffffffffffffffffffffffffffff1673ffffffffffffffffffffffffffffffffffffffff16815260200191505060206040518083038186803b158015610ce357600080fd5b505afa158015610cf7573d6000803e3d6000fd5b505050506040513d6020811015610d0d57600080fd5b81019080805190602001909291905050509050600260009054906101000a900473ffffffffffffffffffffffffffffffffffffffff1673ffffffffffffffffffffffffffffffffffffffff1663a9059cbb6000809054906101000a900473ffffffffffffffffffffffffffffffffffffffff16836040518363ffffffff1660e01b8152600401808373ffffffffffffffffffffffffffffffffffffffff1673ffffffffffffffffffffffffffffffffffffffff16815260200182815260200192505050602060405180830381600087803b158015610dea57600080fd5b505af1158015610dfe573d6000803e3d6000fd5b505050506040513d6020811015610e1457600080fd5b81019080805190602001909291905050505050565b73eeeeeeeeeeeeeeeeeeeeeeeeeeeeeeeeeeeeeeee81565b600360009054906101000a900473ffffffffffffffffffffffffffffffffffffffff1681565b6000809054906101000a900473ffffffffffffffffffffffffffffffffffffffff1673ffffffffffffffffffffffffffffffffffffffff163373ffffffffffffffffffffffffffffffffffffffff1614610ec057600080fd5b80600360006101000a81548173ffffffffffffffffffffffffffffffffffffffff021916908373ffffffffffffffffffffffffffffffffffffffff16021790555050565b6000809054906101000a900473ffffffffffffffffffffffffffffffffffffffff1673ffffffffffffffffffffffffffffffffffffffff163373ffffffffffffffffffffffffffffffffffffffff1614610f5d57600080fd5b6000809054906101000a900473ffffffffffffffffffffffffffffffffffffffff1673ffffffffffffffffffffffffffffffffffffffff166108fc3073ffffffffffffffffffffffffffffffffffffffff16319081150290604051600060405180830381858888f19350505050158015610fdb573d6000803e3d6000fd5b50565b600160009054906101000a900473ffffffffffffffffffffffffffffffffffffffff1681565b600260009054906101000a900473ffffffffffffffffffffffffffffffffffffffff1681565b6000809054906101000a900473ffffffffffffffffffffffffffffffffffffffff1673ffffffffffffffffffffffffffffffffffffffff163373ffffffffffffffffffffffffffffffffffffffff161461108357600080fd5b80600160006101000a81548173ffffffffffffffffffffffffffffffffffffffff021916908373ffffffffffffffffffffffffffffffffffffffff16021790555050565b6000809054906101000a900473ffffffffffffffffffffffffffffffffffffffff1681565b60045481565b6000809054906101000a900473ffffffffffffffffffffffffffffffffffffffff1673ffffffffffffffffffffffffffffffffffffffff163373ffffffffffffffffffffffffffffffffffffffff161461114b57600080fd5b80600260006101000a81548173ffffffffffffffffffffffffffffffffffffffff021916908373ffffffffffffffffffffffffffffffffffffffff16021790555050565b6000809054906101000a900473ffffffffffffffffffffffffffffffffffffffff1673ffffffffffffffffffffffffffffffffffffffff163373ffffffffffffffffffffffffffffffffffffffff16146111e857600080fd5b600073ffffffffffffffffffffffffffffffffffffffff168173ffffffffffffffffffffffffffffffffffffffff16141561122257600080fd5b806000806101000a81548173ffffffffffffffffffffffffffffffffffffffff021916908373ffffffffffffffffffffffffffffffffffffffff16021790555050565b6000809054906101000a900473ffffffffffffffffffffffffffffffffffffffff1673ffffffffffffffffffffffffffffffffffffffff163373ffffffffffffffffffffffffffffffffffffffff16146112be57600080fd5b6000600360009054906101000a900473ffffffffffffffffffffffffffffffffffffffff1673ffffffffffffffffffffffffffffffffffffffff166370a08231306040518263ffffffff1660e01b8152600401808273ffffffffffffffffffffffffffffffffffffffff1673ffffffffffffffffffffffffffffffffffffffff16815260200191505060206040518083038186803b15801561135f57600080fd5b505afa158015611373573d6000803e3d6000fd5b505050506040513d602081101561138957600080fd5b81019080805190602001909291905050509050600360009054906101000a900473ffffffffffffffffffffffffffffffffffffffff1673ffffffffffffffffffffffffffffffffffffffff1663a9059cbb6000809054906101000a900473ffffffffffffffffffffffffffffffffffffffff16836040518363ffffffff1660e01b8152600401808373ffffffffffffffffffffffffffffffffffffffff1673ffffffffffffffffffffffffffffffffffffffff16815260200182815260200192505050602060405180830381600087803b15801561146657600080fd5b505af115801561147a573d6000803e3d6000fd5b505050506040513d602081101561149057600080fd5b81019080805190602001909291905050505050565b6000808314156114b85760009050611525565b60008284029050828482816114c957fe5b0414611520576040517f08c379a000000000000000000000000000000000000000000000000000000000815260040180806020018281038252602181526020018061152c6021913960400191505060405180910390fd5b809150505b9291505056fe536166654d6174683a206d756c7469706c69636174696f6e206f766572666c6f77446f6e652120746865206e756d626572206f66206344414920697373756564206172653a20a265627a7a723158207e2aa04c7d3ca99c0e5ca4ced62cb2d2473609d793e82eaadf7eb36fbbccf90064736f6c634300050b0032",
  "source": "pragma solidity ^0.5.0;\n\nimport \"./Ownable.sol\";\nimport \"./SafeMath.sol\";\n\ninterface IKyberNetworkProxy {\n    function getExpectedRate(ERC20 src, ERC20 dest, uint srcQty) external view returns (uint expectedRate, uint slippageRate);\n    function tradeWithHint(ERC20 src, uint srcAmount, ERC20 dest, address destAddress, uint maxDestAmount, uint minConversionRate, address walletId, bytes calldata hint) external payable returns(uint);\n    function swapEtherToToken(ERC20 token, uint minRate) external payable returns (uint);\n}\n\ninterface ERC20 {\n    function totalSupply() external view returns (uint supply);\n    function balanceOf(address _owner) external view returns (uint balance);\n    function transfer(address _to, uint _value) external returns (bool success);\n    function transferFrom(address _from, address _to, uint _value) external returns (bool success);\n    function approve(address _spender, uint _value) external returns (bool success);\n    function allowance(address _owner, address _spender) external view returns (uint remaining);\n    function decimals() external view returns(uint digits);\n    event Approval(address indexed _owner, address indexed _spender, uint _value);\n}\n\n\ninterface Compound {\n    function approve ( address spender, uint256 amount ) external returns ( bool );\n    function mint ( uint256 mintAmount ) external returns ( uint256 );\n    function balanceOf(address _owner) external view returns (uint256 balance);\n    function transfer(address _to, uint _value) external returns (bool success);\n}\n\n\ncontract Invest2cDAI is Ownable {\n    using SafeMath for uint;\n    \n    // state variables\n    // - setting up Imp Contract Addresses\n    IKyberNetworkProxy public kyberNetworkProxyContract = IKyberNetworkProxy(0x818E6FECD516Ecc3849DAf6845e3EC868087B755);\n    ERC20 constant public ETH_TOKEN_ADDRESS = ERC20(0x00eeeeeeeeeeeeeeeeeeeeeeeeeeeeeeeeeeeeeeee);\n    ERC20 public DAI_TOKEN_ADDRESS = ERC20(0x89d24A6b4CcB1B6fAA2625fE562bDD9a23260359);\n    Compound public COMPOUND_TOKEN_ADDRESS = Compound(0xF5DCe57282A584D2746FaF1593d3121Fcac444dC);\n    \n    // - variable for tracking the ETH balance of this contract\n    uint public balance;\n    \n    // events\n    event AmountInvested(string successmessage, uint numberOfTokensIssued);\n\n    // this function should be called should we ever want to change the kyberNetworkProxyContract address\n    function set_kyberNetworkProxyContract(IKyberNetworkProxy _kyberNetworkProxyContract) onlyOwner public {\n        kyberNetworkProxyContract = _kyberNetworkProxyContract;\n    }\n    \n    // this function should be called should we ever want to change the DAI_TOKEN_ADDRESS\n    function set_DAI_TOKEN_ADDRESS(ERC20 _DAI_TOKEN_ADDRESS) onlyOwner public {\n        DAI_TOKEN_ADDRESS = _DAI_TOKEN_ADDRESS;\n    }\n    // this function should be called should we ever want to change the COMPOUND_TOKEN_ADDRESS \n    function set_COMPOUND_TOKEN_ADDRESS(Compound _COMPOUND_TOKEN_ADDRESS) onlyOwner public {\n        COMPOUND_TOKEN_ADDRESS = _COMPOUND_TOKEN_ADDRESS;\n    }\n    \n    \n    // \n    function letsGetSome_cDAI(address _towhomtoissue) public payable {\n        uint minConversionRate;\n        (minConversionRate,) = kyberNetworkProxyContract.getExpectedRate(ETH_TOKEN_ADDRESS, DAI_TOKEN_ADDRESS, msg.value);\n        uint destAmount = kyberNetworkProxyContract.swapEtherToToken.value(msg.value)(DAI_TOKEN_ADDRESS, minConversionRate);\n        uint qty2approve = SafeMath.mul(destAmount, 3);\n        require(DAI_TOKEN_ADDRESS.approve(address(COMPOUND_TOKEN_ADDRESS), qty2approve));\n        COMPOUND_TOKEN_ADDRESS.mint(destAmount); \n        uint cDAI2transfer = COMPOUND_TOKEN_ADDRESS.balanceOf(address(this));\n        require(COMPOUND_TOKEN_ADDRESS.transfer(_towhomtoissue, cDAI2transfer));\n        emit AmountInvested(\"Done! the number of cDAI issued are: \", cDAI2transfer);\n    }\n    \n    // fx, in case something goes wrong {hint! learnt from experience}\n    function inCaseDAIgetsStuck() onlyOwner public {\n        uint qty = DAI_TOKEN_ADDRESS.balanceOf(address(this));\n        DAI_TOKEN_ADDRESS.transfer(owner, qty);\n    }\n    \n    function inCaseC_DAIgetsStuck() onlyOwner public {\n        uint CDAI_qty = COMPOUND_TOKEN_ADDRESS.balanceOf(address(this));\n        COMPOUND_TOKEN_ADDRESS.transfer(owner, CDAI_qty);\n    }\n    \n    \n    // fx in relation to ETH held by the contract sent by the owner\n    \n    // - this function lets you deposit ETH into this wallet\n    function depositETH() payable public onlyOwner returns (uint) {\n        balance += msg.value;\n    }\n    \n    // - fallback function let you / anyone send ETH to this wallet without the need to call any function\n    function() external payable {\n        if (msg.sender == owner) {\n            depositETH();\n        } else {\n            letsGetSome_cDAI(msg.sender);\n        }\n    }\n    \n    // - to withdraw any ETH balance sitting in the contract\n    function withdraw() onlyOwner public{\n        owner.transfer(address(this).balance);\n    }\n \n}",
  "sourcePath": "/home/node/app/truffle_solc_5/contracts/Invest2CDAI.sol",
  "compiler": {
    "name": "solc",
    "version": "0.5.11+commit.c082d0b4.Emscripten.clang"
  },
  "schemaVersion": "3.0.16",
  "updatedAt": "2019-10-25T10:38:21.189Z",
  "devdoc": {
    "methods": {}
  },
  "userdoc": {
    "methods": {}
  }
}