{
  "contractName": "KyberNetworkProxy",
  "abi": [
    {
      "constant": false,
      "inputs": [
        {
          "name": "alerter",
          "type": "address"
        }
      ],
      "name": "removeAlerter",
      "outputs": [],
      "payable": false,
      "stateMutability": "nonpayable",
      "type": "function"
    },
    {
      "constant": true,
      "inputs": [],
      "name": "pendingAdmin",
      "outputs": [
        {
          "name": "",
          "type": "address"
        }
      ],
      "payable": false,
      "stateMutability": "view",
      "type": "function"
    },
    {
      "constant": true,
      "inputs": [],
      "name": "getOperators",
      "outputs": [
        {
          "name": "",
          "type": "address[]"
        }
      ],
      "payable": false,
      "stateMutability": "view",
      "type": "function"
    },
    {
      "constant": false,
      "inputs": [
        {
          "name": "token",
          "type": "address"
        },
        {
          "name": "amount",
          "type": "uint256"
        },
        {
          "name": "sendTo",
          "type": "address"
        }
      ],
      "name": "withdrawToken",
      "outputs": [],
      "payable": false,
      "stateMutability": "nonpayable",
      "type": "function"
    },
    {
      "constant": false,
      "inputs": [
        {
          "name": "newAlerter",
          "type": "address"
        }
      ],
      "name": "addAlerter",
      "outputs": [],
      "payable": false,
      "stateMutability": "nonpayable",
      "type": "function"
    },
    {
      "constant": true,
      "inputs": [],
      "name": "kyberNetworkContract",
      "outputs": [
        {
          "name": "",
          "type": "address"
        }
      ],
      "payable": false,
      "stateMutability": "view",
      "type": "function"
    },
    {
      "constant": false,
      "inputs": [
        {
          "name": "newAdmin",
          "type": "address"
        }
      ],
      "name": "transferAdmin",
      "outputs": [],
      "payable": false,
      "stateMutability": "nonpayable",
      "type": "function"
    },
    {
      "constant": false,
      "inputs": [],
      "name": "claimAdmin",
      "outputs": [],
      "payable": false,
      "stateMutability": "nonpayable",
      "type": "function"
    },
    {
      "constant": false,
      "inputs": [
        {
          "name": "newAdmin",
          "type": "address"
        }
      ],
      "name": "transferAdminQuickly",
      "outputs": [],
      "payable": false,
      "stateMutability": "nonpayable",
      "type": "function"
    },
    {
      "constant": true,
      "inputs": [],
      "name": "getAlerters",
      "outputs": [
        {
          "name": "",
          "type": "address[]"
        }
      ],
      "payable": false,
      "stateMutability": "view",
      "type": "function"
    },
    {
      "constant": false,
      "inputs": [
        {
          "name": "newOperator",
          "type": "address"
        }
      ],
      "name": "addOperator",
      "outputs": [],
      "payable": false,
      "stateMutability": "nonpayable",
      "type": "function"
    },
    {
      "constant": false,
      "inputs": [
        {
          "name": "operator",
          "type": "address"
        }
      ],
      "name": "removeOperator",
      "outputs": [],
      "payable": false,
      "stateMutability": "nonpayable",
      "type": "function"
    },
    {
      "constant": false,
      "inputs": [
        {
          "name": "amount",
          "type": "uint256"
        },
        {
          "name": "sendTo",
          "type": "address"
        }
      ],
      "name": "withdrawEther",
      "outputs": [],
      "payable": false,
      "stateMutability": "nonpayable",
      "type": "function"
    },
    {
      "constant": true,
      "inputs": [
        {
          "name": "token",
          "type": "address"
        },
        {
          "name": "user",
          "type": "address"
        }
      ],
      "name": "getBalance",
      "outputs": [
        {
          "name": "",
          "type": "uint256"
        }
      ],
      "payable": false,
      "stateMutability": "view",
      "type": "function"
    },
    {
      "constant": true,
      "inputs": [],
      "name": "admin",
      "outputs": [
        {
          "name": "",
          "type": "address"
        }
      ],
      "payable": false,
      "stateMutability": "view",
      "type": "function"
    },
    {
      "inputs": [
        {
          "name": "_admin",
          "type": "address"
        }
      ],
      "payable": false,
      "stateMutability": "nonpayable",
      "type": "constructor"
    },
    {
      "anonymous": false,
      "inputs": [
        {
          "indexed": true,
          "name": "trader",
          "type": "address"
        },
        {
          "indexed": false,
          "name": "src",
          "type": "address"
        },
        {
          "indexed": false,
          "name": "dest",
          "type": "address"
        },
        {
          "indexed": false,
          "name": "actualSrcAmount",
          "type": "uint256"
        },
        {
          "indexed": false,
          "name": "actualDestAmount",
          "type": "uint256"
        }
      ],
      "name": "ExecuteTrade",
      "type": "event"
    },
    {
      "anonymous": false,
      "inputs": [
        {
          "indexed": false,
          "name": "newNetworkContract",
          "type": "address"
        },
        {
          "indexed": false,
          "name": "oldNetworkContract",
          "type": "address"
        }
      ],
      "name": "KyberNetworkSet",
      "type": "event"
    },
    {
      "anonymous": false,
      "inputs": [
        {
          "indexed": false,
          "name": "token",
          "type": "address"
        },
        {
          "indexed": false,
          "name": "amount",
          "type": "uint256"
        },
        {
          "indexed": false,
          "name": "sendTo",
          "type": "address"
        }
      ],
      "name": "TokenWithdraw",
      "type": "event"
    },
    {
      "anonymous": false,
      "inputs": [
        {
          "indexed": false,
          "name": "amount",
          "type": "uint256"
        },
        {
          "indexed": false,
          "name": "sendTo",
          "type": "address"
        }
      ],
      "name": "EtherWithdraw",
      "type": "event"
    },
    {
      "anonymous": false,
      "inputs": [
        {
          "indexed": false,
          "name": "pendingAdmin",
          "type": "address"
        }
      ],
      "name": "TransferAdminPending",
      "type": "event"
    },
    {
      "anonymous": false,
      "inputs": [
        {
          "indexed": false,
          "name": "newAdmin",
          "type": "address"
        },
        {
          "indexed": false,
          "name": "previousAdmin",
          "type": "address"
        }
      ],
      "name": "AdminClaimed",
      "type": "event"
    },
    {
      "anonymous": false,
      "inputs": [
        {
          "indexed": false,
          "name": "newAlerter",
          "type": "address"
        },
        {
          "indexed": false,
          "name": "isAdd",
          "type": "bool"
        }
      ],
      "name": "AlerterAdded",
      "type": "event"
    },
    {
      "anonymous": false,
      "inputs": [
        {
          "indexed": false,
          "name": "newOperator",
          "type": "address"
        },
        {
          "indexed": false,
          "name": "isAdd",
          "type": "bool"
        }
      ],
      "name": "OperatorAdded",
      "type": "event"
    },
    {
      "constant": false,
      "inputs": [
        {
          "name": "src",
          "type": "address"
        },
        {
          "name": "srcAmount",
          "type": "uint256"
        },
        {
          "name": "dest",
          "type": "address"
        },
        {
          "name": "destAddress",
          "type": "address"
        },
        {
          "name": "maxDestAmount",
          "type": "uint256"
        },
        {
          "name": "minConversionRate",
          "type": "uint256"
        },
        {
          "name": "walletId",
          "type": "address"
        }
      ],
      "name": "trade",
      "outputs": [
        {
          "name": "",
          "type": "uint256"
        }
      ],
      "payable": true,
      "stateMutability": "payable",
      "type": "function"
    },
    {
      "constant": false,
      "inputs": [
        {
          "name": "src",
          "type": "address"
        },
        {
          "name": "srcAmount",
          "type": "uint256"
        },
        {
          "name": "dest",
          "type": "address"
        },
        {
          "name": "minConversionRate",
          "type": "uint256"
        }
      ],
      "name": "swapTokenToToken",
      "outputs": [
        {
          "name": "",
          "type": "uint256"
        }
      ],
      "payable": false,
      "stateMutability": "nonpayable",
      "type": "function"
    },
    {
      "constant": false,
      "inputs": [
        {
          "name": "token",
          "type": "address"
        },
        {
          "name": "minConversionRate",
          "type": "uint256"
        }
      ],
      "name": "swapEtherToToken",
      "outputs": [
        {
          "name": "",
          "type": "uint256"
        }
      ],
      "payable": true,
      "stateMutability": "payable",
      "type": "function"
    },
    {
      "constant": false,
      "inputs": [
        {
          "name": "token",
          "type": "address"
        },
        {
          "name": "srcAmount",
          "type": "uint256"
        },
        {
          "name": "minConversionRate",
          "type": "uint256"
        }
      ],
      "name": "swapTokenToEther",
      "outputs": [
        {
          "name": "",
          "type": "uint256"
        }
      ],
      "payable": false,
      "stateMutability": "nonpayable",
      "type": "function"
    },
    {
      "constant": false,
      "inputs": [
        {
          "name": "src",
          "type": "address"
        },
        {
          "name": "srcAmount",
          "type": "uint256"
        },
        {
          "name": "dest",
          "type": "address"
        },
        {
          "name": "destAddress",
          "type": "address"
        },
        {
          "name": "maxDestAmount",
          "type": "uint256"
        },
        {
          "name": "minConversionRate",
          "type": "uint256"
        },
        {
          "name": "walletId",
          "type": "address"
        },
        {
          "name": "hint",
          "type": "bytes"
        }
      ],
      "name": "tradeWithHint",
      "outputs": [
        {
          "name": "",
          "type": "uint256"
        }
      ],
      "payable": true,
      "stateMutability": "payable",
      "type": "function"
    },
    {
      "constant": false,
      "inputs": [
        {
          "name": "_kyberNetworkContract",
          "type": "address"
        }
      ],
      "name": "setKyberNetworkContract",
      "outputs": [],
      "payable": false,
      "stateMutability": "nonpayable",
      "type": "function"
    },
    {
      "constant": true,
      "inputs": [
        {
          "name": "src",
          "type": "address"
        },
        {
          "name": "dest",
          "type": "address"
        },
        {
          "name": "srcQty",
          "type": "uint256"
        }
      ],
      "name": "getExpectedRate",
      "outputs": [
        {
          "name": "expectedRate",
          "type": "uint256"
        },
        {
          "name": "slippageRate",
          "type": "uint256"
        }
      ],
      "payable": false,
      "stateMutability": "view",
      "type": "function"
    },
    {
      "constant": true,
      "inputs": [
        {
          "name": "user",
          "type": "address"
        }
      ],
      "name": "getUserCapInWei",
      "outputs": [
        {
          "name": "",
          "type": "uint256"
        }
      ],
      "payable": false,
      "stateMutability": "view",
      "type": "function"
    },
    {
      "constant": true,
      "inputs": [
        {
          "name": "user",
          "type": "address"
        },
        {
          "name": "token",
          "type": "address"
        }
      ],
      "name": "getUserCapInTokenWei",
      "outputs": [
        {
          "name": "",
          "type": "uint256"
        }
      ],
      "payable": false,
      "stateMutability": "view",
      "type": "function"
    },
    {
      "constant": true,
      "inputs": [],
      "name": "maxGasPrice",
      "outputs": [
        {
          "name": "",
          "type": "uint256"
        }
      ],
      "payable": false,
      "stateMutability": "view",
      "type": "function"
    },
    {
      "constant": true,
      "inputs": [],
      "name": "enabled",
      "outputs": [
        {
          "name": "",
          "type": "bool"
        }
      ],
      "payable": false,
      "stateMutability": "view",
      "type": "function"
    },
    {
      "constant": true,
      "inputs": [
        {
          "name": "field",
          "type": "bytes32"
        }
      ],
      "name": "info",
      "outputs": [
        {
          "name": "",
          "type": "uint256"
        }
      ],
      "payable": false,
      "stateMutability": "view",
      "type": "function"
    }
  ],
  "bytecode": "0x6060604052341561000f57600080fd5b604051602080611a048339810160405280805160008054600160a060020a03191633600160a060020a039081169190911790915590925082161515905061005557600080fd5b60008054600160a060020a03909216600160a060020a031990921691909117905561197f806100856000396000f3006060604052600436106101455763ffffffff60e060020a60003504166301a12fd3811461014a578063238dafe01461016b578063267822471461019257806327a099d8146101c157806329589f61146102275780633bba21dc146102ad5780633ccdbb28146102d25780633de39c11146102fb578063408ee7fe1461030e5780634f61ff8b1461032d5780636432679f146103405780637409e2eb1461035f57806375829def1461038b57806377f50f97146103aa5780637a2a0456146103bd5780637acc8678146103d45780637c423f54146103f3578063809a9e55146104065780638eaaeecf146104465780639870d7fe1461046b578063abd188a81461048a578063ac8a584a146104a9578063b64a097e146104c8578063cb3c28c7146104de578063ce56c45414610510578063d4fac45d14610532578063f851a44014610557575b600080fd5b341561015557600080fd5b610169600160a060020a036004351661056a565b005b341561017657600080fd5b61017e6106da565b604051901515815260200160405180910390f35b341561019d57600080fd5b6101a5610744565b604051600160a060020a03909116815260200160405180910390f35b34156101cc57600080fd5b6101d4610753565b60405160208082528190810183818151815260200191508051906020019060200280838360005b838110156102135780820151838201526020016101fb565b505050509050019250505060405180910390f35b61029b600160a060020a036004803582169160248035926044358316926064358116926084359260a4359260c43516916101049060e43590810190830135806020601f820181900481020160405190810160405281815292919060208401838380828437509496506107bb95505050505050565b60405190815260200160405180910390f35b34156102b857600080fd5b61029b600160a060020a0360043516602435604435610ad9565b34156102dd57600080fd5b610169600160a060020a036004358116906024359060443516610b1d565b341561030657600080fd5b61029b610c14565b341561031957600080fd5b610169600160a060020a0360043516610c5e565b341561033857600080fd5b6101a5610d5a565b341561034b57600080fd5b61029b600160a060020a0360043516610d69565b341561036a57600080fd5b61029b600160a060020a036004358116906024359060443516606435610de4565b341561039657600080fd5b610169600160a060020a0360043516610e15565b34156103b557600080fd5b610169610eb0565b61029b600160a060020a0360043516602435610f4a565b34156103df57600080fd5b610169600160a060020a0360043516610f8d565b34156103fe57600080fd5b6101d461106f565b341561041157600080fd5b61042e600160a060020a03600435811690602435166044356110d5565b60405191825260208201526040908101905180910390f35b341561045157600080fd5b61029b600160a060020a0360043581169060243516611171565b341561047657600080fd5b610169600160a060020a03600435166111f7565b341561049557600080fd5b610169600160a060020a03600435166112c7565b34156104b457600080fd5b610169600160a060020a036004351661136c565b34156104d357600080fd5b61029b6004356114d8565b61029b600160a060020a03600435811690602435906044358116906064358116906084359060a4359060c4351661152b565b341561051b57600080fd5b610169600435600160a060020a0360243516611552565b341561053d57600080fd5b61029b600160a060020a03600435811690602435166115e5565b341561056257600080fd5b6101a5611696565b6000805433600160a060020a0390811691161461058657600080fd5b600160a060020a03821660009081526003602052604090205460ff1615156105ad57600080fd5b50600160a060020a0381166000908152600360205260408120805460ff191690555b6005548110156106d65781600160a060020a03166005828154811015156105f257fe5b600091825260209091200154600160a060020a031614156106ce5760058054600019810190811061061f57fe5b60009182526020909120015460058054600160a060020a03909216918390811061064557fe5b60009182526020909120018054600160a060020a031916600160a060020a039290921691909117905560058054906106819060001983016118c1565b507f5611bf3e417d124f97bf2c788843ea8bb502b66079fbee02158ef30b172cb762826000604051600160a060020a039092168252151560208201526040908101905180910390a16106d6565b6001016105cf565b5050565b600754600090600160a060020a031663238dafe082604051602001526040518163ffffffff1660e060020a028152600401602060405180830381600087803b151561072457600080fd5b6102c65a03f1151561073557600080fd5b50505060405180519150505b90565b600154600160a060020a031681565b61075b6118ea565b60048054806020026020016040519081016040528092919081815260200182805480156107b157602002820191906000526020600020905b8154600160a060020a03168152600190910190602001808311610793575b5050505050905090565b60006107c56118fc565b60006107cf611913565b600160a060020a038c1673eeeeeeeeeeeeeeeeeeeeeeeeeeeeeeeeeeeeeeee14806107f8575034155b151561080357600080fd5b61080d8c336115e5565b83526108198a8a6115e5565b6020840152600160a060020a038c1673eeeeeeeeeeeeeeeeeeeeeeeeeeeeeeeeeeeeeeee1415610851573483818151019052506108e8565b600754600160a060020a03808e16916323b872dd913391168e60006040516020015260405160e060020a63ffffffff8616028152600160a060020a0393841660048201529190921660248201526044810191909152606401602060405180830381600087803b15156108c257600080fd5b6102c65a03f115156108d357600080fd5b5050506040518051905015156108e857600080fd5b600754600160a060020a031663088322ef34338f8f8f8f8f8f8f8f60006040516020015260405160e060020a63ffffffff8d16028152600160a060020a03808b16600483019081528a82166024840152604483018a90528882166064840152878216608484015260a4830187905260c4830186905290841660e4830152610120610104830190815290916101240183818151815260200191508051906020019080838360005b838110156109a657808201518382015260200161098e565b50505050905090810190601f1680156109d35780820380516001836020036101000a031916815260200191505b509a50505050505050505050506020604051808303818588803b15156109f857600080fd5b6125ee5a03f11515610a0957600080fd5b5050505060405180519250610a289050835184602001518e8d8d6116a5565b905080602001518214610a3a57600080fd5b8781602001511115610a4b57600080fd5b8681604001511015610a5c57600080fd5b600160a060020a0333167f1849bd6a030a1bca28b83437fd3de96f3d27a5d172fa7e9c78e7b61468928a398d8c84518560200151604051600160a060020a0394851681529290931660208301526040808301919091526060820192909252608001905180910390a280602001519c9b505050505050505050505050565b6000610ae36118ea565b610b14858573eeeeeeeeeeeeeeeeeeeeeeeeeeeeeeeeeeeeeeee336b204fce5e3e25026110000000886000886107bb565b95945050505050565b60005433600160a060020a03908116911614610b3857600080fd5b82600160a060020a031663a9059cbb828460006040516020015260405160e060020a63ffffffff8516028152600160a060020a0390921660048301526024820152604401602060405180830381600087803b1515610b9557600080fd5b6102c65a03f11515610ba657600080fd5b505050604051805190501515610bbb57600080fd5b7f72cb8a894ddb372ceec3d2a7648d86f17d5a15caae0e986c53109b8a9a9385e6838383604051600160a060020a03938416815260208101929092529091166040808301919091526060909101905180910390a1505050565b600754600090600160a060020a0316633de39c1182604051602001526040518163ffffffff1660e060020a028152600401602060405180830381600087803b151561072457600080fd5b60005433600160a060020a03908116911614610c7957600080fd5b600160a060020a03811660009081526003602052604090205460ff1615610c9f57600080fd5b60055460329010610caf57600080fd5b7f5611bf3e417d124f97bf2c788843ea8bb502b66079fbee02158ef30b172cb762816001604051600160a060020a039092168252151560208201526040908101905180910390a1600160a060020a0381166000908152600360205260409020805460ff191660019081179091556005805490918101610d2e83826118c1565b5060009182526020909120018054600160a060020a031916600160a060020a0392909216919091179055565b600754600160a060020a031681565b600754600090600160a060020a0316636432679f83836040516020015260405160e060020a63ffffffff8416028152600160a060020a039091166004820152602401602060405180830381600087803b1515610dc457600080fd5b6102c65a03f11515610dd557600080fd5b50505060405180519392505050565b6000610dee6118ea565b610e0b868686336b204fce5e3e25026110000000886000886107bb565b9695505050505050565b60005433600160a060020a03908116911614610e3057600080fd5b600160a060020a0381161515610e4557600080fd5b6001547f3b81caf78fa51ecbc8acb482fd7012a277b428d9b80f9d156e8a54107496cc4090600160a060020a0316604051600160a060020a03909116815260200160405180910390a160018054600160a060020a031916600160a060020a0392909216919091179055565b60015433600160a060020a03908116911614610ecb57600080fd5b6001546000547f65da1cfc2c2e81576ad96afb24a581f8e109b7a403b35cbd3243a1c99efdb9ed91600160a060020a039081169116604051600160a060020a039283168152911660208201526040908101905180910390a16001805460008054600160a060020a0319908116600160a060020a03841617909155169055565b6000610f546118ea565b610f8573eeeeeeeeeeeeeeeeeeeeeeeeeeeeeeeeeeeeeeee3486336b204fce5e3e25026110000000886000886107bb565b949350505050565b60005433600160a060020a03908116911614610fa857600080fd5b600160a060020a0381161515610fbd57600080fd5b7f3b81caf78fa51ecbc8acb482fd7012a277b428d9b80f9d156e8a54107496cc4081604051600160a060020a03909116815260200160405180910390a16000547f65da1cfc2c2e81576ad96afb24a581f8e109b7a403b35cbd3243a1c99efdb9ed908290600160a060020a0316604051600160a060020a039283168152911660208201526040908101905180910390a160008054600160a060020a031916600160a060020a0392909216919091179055565b6110776118ea565b60058054806020026020016040519081016040528092919081815260200182805480156107b157602002820191906000526020600020908154600160a060020a03168152600190910190602001808311610793575050505050905090565b6007546000908190600160a060020a031663809a9e55868686856040516040015260405160e060020a63ffffffff8616028152600160a060020a03938416600482015291909216602482015260448101919091526064016040805180830381600087803b151561114457600080fd5b6102c65a03f1151561115557600080fd5b5050506040518051906020018051905091509150935093915050565b600754600090600160a060020a0316638eaaeecf8484846040516020015260405160e060020a63ffffffff8516028152600160a060020a03928316600482015291166024820152604401602060405180830381600087803b15156111d457600080fd5b6102c65a03f115156111e557600080fd5b50505060405180519150505b92915050565b60005433600160a060020a0390811691161461121257600080fd5b600160a060020a03811660009081526002602052604090205460ff161561123857600080fd5b6004546032901061124857600080fd5b7f091a7a4b85135fdd7e8dbc18b12fabe5cc191ea867aa3c2e1a24a102af61d58b816001604051600160a060020a039092168252151560208201526040908101905180910390a1600160a060020a0381166000908152600260205260409020805460ff191660019081179091556004805490918101610d2e83826118c1565b60005433600160a060020a039081169116146112e257600080fd5b600160a060020a03811615156112f757600080fd5b6007547f8936e1f096bf0a8c9df862b3d1d5b82774cad78116200175f00b5b7ba3010b02908290600160a060020a0316604051600160a060020a039283168152911660208201526040908101905180910390a160078054600160a060020a031916600160a060020a0392909216919091179055565b6000805433600160a060020a0390811691161461138857600080fd5b600160a060020a03821660009081526002602052604090205460ff1615156113af57600080fd5b50600160a060020a0381166000908152600260205260408120805460ff191690555b6004548110156106d65781600160a060020a03166004828154811015156113f457fe5b600091825260209091200154600160a060020a031614156114d05760048054600019810190811061142157fe5b60009182526020909120015460048054600160a060020a03909216918390811061144757fe5b60009182526020909120018054600160a060020a031916600160a060020a039290921691909117905560048054600019019061148390826118c1565b507f091a7a4b85135fdd7e8dbc18b12fabe5cc191ea867aa3c2e1a24a102af61d58b826000604051600160a060020a039092168252151560208201526040908101905180910390a16106d6565b6001016113d1565b600754600090600160a060020a031663b64a097e83836040516020015260405160e060020a63ffffffff84160281526004810191909152602401602060405180830381600087803b1515610dc457600080fd5b60006115356118ea565b61154589898989898989886107bb565b9998505050505050505050565b60005433600160a060020a0390811691161461156d57600080fd5b600160a060020a03811682156108fc0283604051600060405180830381858888f19350505050151561159e57600080fd5b7fec47e7ed86c86774d1a72c19f35c639911393fe7c1a34031fdbd260890da90de8282604051918252600160a060020a031660208201526040908101905180910390a15050565b6000600160a060020a03831673eeeeeeeeeeeeeeeeeeeeeeeeeeeeeeeeeeeeeeee141561161d5750600160a060020a038116316111f1565b82600160a060020a03166370a082318360006040516020015260405160e060020a63ffffffff8416028152600160a060020a039091166004820152602401602060405180830381600087803b151561167457600080fd5b6102c65a03f1151561168557600080fd5b5050506040518051905090506111f1565b600054600160a060020a031681565b6116ad611913565b6000806116ba86336115e5565b91506116c685856115e5565b90508681116116d457600080fd5b8188116116e057600080fd5b8681036020840152818803835261170e835184602001516117008961171f565b6117098961171f565b611763565b604084015250909695505050505050565b600160a060020a038116600090815260066020526040812054151561174757611747826117fe565b50600160a060020a031660009081526006602052604090205490565b60006b204fce5e3e2502611000000085111561177e57600080fd5b6b204fce5e3e2502611000000084111561179757600080fd5b8282106117d257601283830311156117ae57600080fd5b84838303600a0a02670de0b6b3a764000085028115156117ca57fe5b049050610f85565b601282840311156117e257600080fd5b84828403600a0a670de0b6b3a76400008602028115156117ca57fe5b600160a060020a03811673eeeeeeeeeeeeeeeeeeeeeeeeeeeeeeeeeeeeeeee141561184457600160a060020a0381166000908152600660205260409020601290556118be565b80600160a060020a031663313ce5676000604051602001526040518163ffffffff1660e060020a028152600401602060405180830381600087803b151561188a57600080fd5b6102c65a03f1151561189b57600080fd5b5050506040518051600160a060020a038316600090815260066020526040902055505b50565b8154818355818115116118e5576000838152602090206118e5918101908301611935565b505050565b60206040519081016040526000815290565b604080519081016040526000808252602082015290565b6060604051908101604052806000815260200160008152602001600081525090565b61074191905b8082111561194f576000815560010161193b565b50905600a165627a7a723058207f4921a84236f014695ad1dce4e3cf8ad13a56e55573bf02fc0a814c4ee459280029",
  "source": "pragma solidity 0.4.18;\n\n\nimport \"./ERC20Interface.sol\";\nimport \"./Withdrawable.sol\";\nimport \"./Utils2.sol\";\nimport \"./KyberNetworkInterface.sol\";\nimport \"./KyberNetworkProxyInterface.sol\";\nimport \"./SimpleNetworkInterface.sol\";\n\n\n////////////////////////////////////////////////////////////////////////////////////////////////////////\n/// @title Kyber Network proxy for main contract\ncontract KyberNetworkProxy is KyberNetworkProxyInterface, SimpleNetworkInterface, Withdrawable, Utils2 {\n\n    KyberNetworkInterface public kyberNetworkContract;\n\n    function KyberNetworkProxy(address _admin) public {\n        require(_admin != address(0));\n        admin = _admin;\n    }\n\n    /// @notice use token address ETH_TOKEN_ADDRESS for ether\n    /// @dev makes a trade between src and dest token and send dest token to destAddress\n    /// @param src Src token\n    /// @param srcAmount amount of src tokens\n    /// @param dest   Destination token\n    /// @param destAddress Address to send tokens to\n    /// @param maxDestAmount A limit on the amount of dest tokens\n    /// @param minConversionRate The minimal conversion rate. If actual rate is lower, trade is canceled.\n    /// @param walletId is the wallet ID to send part of the fees\n    /// @return amount of actual dest tokens\n    function trade(\n        ERC20 src,\n        uint srcAmount,\n        ERC20 dest,\n        address destAddress,\n        uint maxDestAmount,\n        uint minConversionRate,\n        address walletId\n    )\n        public\n        payable\n        returns(uint)\n    {\n        bytes memory hint;\n\n        return tradeWithHint(\n            src,\n            srcAmount,\n            dest,\n            destAddress,\n            maxDestAmount,\n            minConversionRate,\n            walletId,\n            hint\n        );\n    }\n\n    /// @dev makes a trade between src and dest token and send dest tokens to msg sender\n    /// @param src Src token\n    /// @param srcAmount amount of src tokens\n    /// @param dest Destination token\n    /// @param minConversionRate The minimal conversion rate. If actual rate is lower, trade is canceled.\n    /// @return amount of actual dest tokens\n    function swapTokenToToken(\n        ERC20 src,\n        uint srcAmount,\n        ERC20 dest,\n        uint minConversionRate\n    )\n        public\n        returns(uint)\n    {\n        bytes memory hint;\n\n        return tradeWithHint(\n            src,\n            srcAmount,\n            dest,\n            msg.sender,\n            MAX_QTY,\n            minConversionRate,\n            0,\n            hint\n        );\n    }\n\n    /// @dev makes a trade from Ether to token. Sends token to msg sender\n    /// @param token Destination token\n    /// @param minConversionRate The minimal conversion rate. If actual rate is lower, trade is canceled.\n    /// @return amount of actual dest tokens\n    function swapEtherToToken(ERC20 token, uint minConversionRate) public payable returns(uint) {\n        bytes memory hint;\n\n        return tradeWithHint(\n            ETH_TOKEN_ADDRESS,\n            msg.value,\n            token,\n            msg.sender,\n            MAX_QTY,\n            minConversionRate,\n            0,\n            hint\n        );\n    }\n\n    /// @dev makes a trade from token to Ether, sends Ether to msg sender\n    /// @param token Src token\n    /// @param srcAmount amount of src tokens\n    /// @param minConversionRate The minimal conversion rate. If actual rate is lower, trade is canceled.\n    /// @return amount of actual dest tokens\n    function swapTokenToEther(ERC20 token, uint srcAmount, uint minConversionRate) public returns(uint) {\n        bytes memory hint;\n\n        return tradeWithHint(\n            token,\n            srcAmount,\n            ETH_TOKEN_ADDRESS,\n            msg.sender,\n            MAX_QTY,\n            minConversionRate,\n            0,\n            hint\n        );\n    }\n\n    struct UserBalance {\n        uint srcBalance;\n        uint destBalance;\n    }\n\n    event ExecuteTrade(address indexed trader, ERC20 src, ERC20 dest, uint actualSrcAmount, uint actualDestAmount);\n\n    /// @notice use token address ETH_TOKEN_ADDRESS for ether\n    /// @dev makes a trade between src and dest token and send dest token to destAddress\n    /// @param src Src token\n    /// @param srcAmount amount of src tokens\n    /// @param dest Destination token\n    /// @param destAddress Address to send tokens to\n    /// @param maxDestAmount A limit on the amount of dest tokens\n    /// @param minConversionRate The minimal conversion rate. If actual rate is lower, trade is canceled.\n    /// @param walletId is the wallet ID to send part of the fees\n    /// @param hint will give hints for the trade.\n    /// @return amount of actual dest tokens\n    function tradeWithHint(\n        ERC20 src,\n        uint srcAmount,\n        ERC20 dest,\n        address destAddress,\n        uint maxDestAmount,\n        uint minConversionRate,\n        address walletId,\n        bytes hint\n    )\n        public\n        payable\n        returns(uint)\n    {\n        require(src == ETH_TOKEN_ADDRESS || msg.value == 0);\n        \n        UserBalance memory userBalanceBefore;\n\n        userBalanceBefore.srcBalance = getBalance(src, msg.sender);\n        userBalanceBefore.destBalance = getBalance(dest, destAddress);\n\n        if (src == ETH_TOKEN_ADDRESS) {\n            userBalanceBefore.srcBalance += msg.value;\n        } else {\n            require(src.transferFrom(msg.sender, kyberNetworkContract, srcAmount));\n        }\n\n        uint reportedDestAmount = kyberNetworkContract.tradeWithHint.value(msg.value)(\n            msg.sender,\n            src,\n            srcAmount,\n            dest,\n            destAddress,\n            maxDestAmount,\n            minConversionRate,\n            walletId,\n            hint\n        );\n\n        TradeOutcome memory tradeOutcome = calculateTradeOutcome(\n            userBalanceBefore.srcBalance,\n            userBalanceBefore.destBalance,\n            src,\n            dest,\n            destAddress\n        );\n\n        require(reportedDestAmount == tradeOutcome.userDeltaDestAmount);\n        require(tradeOutcome.userDeltaDestAmount <= maxDestAmount);\n        require(tradeOutcome.actualRate >= minConversionRate);\n\n        ExecuteTrade(msg.sender, src, dest, tradeOutcome.userDeltaSrcAmount, tradeOutcome.userDeltaDestAmount);\n        return tradeOutcome.userDeltaDestAmount;\n    }\n\n    event KyberNetworkSet(address newNetworkContract, address oldNetworkContract);\n\n    function setKyberNetworkContract(KyberNetworkInterface _kyberNetworkContract) public onlyAdmin {\n\n        require(_kyberNetworkContract != address(0));\n\n        KyberNetworkSet(_kyberNetworkContract, kyberNetworkContract);\n\n        kyberNetworkContract = _kyberNetworkContract;\n    }\n\n    function getExpectedRate(ERC20 src, ERC20 dest, uint srcQty)\n        public view\n        returns(uint expectedRate, uint slippageRate)\n    {\n        return kyberNetworkContract.getExpectedRate(src, dest, srcQty);\n    }\n\n    function getUserCapInWei(address user) public view returns(uint) {\n        return kyberNetworkContract.getUserCapInWei(user);\n    }\n\n    function getUserCapInTokenWei(address user, ERC20 token) public view returns(uint) {\n        return kyberNetworkContract.getUserCapInTokenWei(user, token);\n    }\n\n    function maxGasPrice() public view returns(uint) {\n        return kyberNetworkContract.maxGasPrice();\n    }\n\n    function enabled() public view returns(bool) {\n        return kyberNetworkContract.enabled();\n    }\n\n    function info(bytes32 field) public view returns(uint) {\n        return kyberNetworkContract.info(field);\n    }\n\n    struct TradeOutcome {\n        uint userDeltaSrcAmount;\n        uint userDeltaDestAmount;\n        uint actualRate;\n    }\n\n    function calculateTradeOutcome (uint srcBalanceBefore, uint destBalanceBefore, ERC20 src, ERC20 dest,\n        address destAddress)\n        internal returns(TradeOutcome outcome)\n    {\n        uint userSrcBalanceAfter;\n        uint userDestBalanceAfter;\n\n        userSrcBalanceAfter = getBalance(src, msg.sender);\n        userDestBalanceAfter = getBalance(dest, destAddress);\n\n        //protect from underflow\n        require(userDestBalanceAfter > destBalanceBefore);\n        require(srcBalanceBefore > userSrcBalanceAfter);\n\n        outcome.userDeltaDestAmount = userDestBalanceAfter - destBalanceBefore;\n        outcome.userDeltaSrcAmount = srcBalanceBefore - userSrcBalanceAfter;\n\n        outcome.actualRate = calcRateFromQty(\n                outcome.userDeltaSrcAmount,\n                outcome.userDeltaDestAmount,\n                getDecimalsSafe(src),\n                getDecimalsSafe(dest)\n            );\n    }\n}\n",
  "sourcePath": "/home/node/app/workshop-master/contracts/KyberNetworkProxy.sol",
  "compiler": {
    "name": "solc",
    "version": "0.4.18+commit.9cf6e910.Emscripten.clang"
  },
  "schemaVersion": "3.0.16",
  "updatedAt": "2019-10-11T14:32:48.630Z",
  "devdoc": {
    "methods": {
      "claimAdmin()": {
        "details": "Allows the pendingAdmin address to finalize the change admin process."
      },
      "getBalance(address,address)": {
        "details": "get the balance of a user.",
        "params": {
          "token": "The token type"
        },
        "return": "The balance"
      },
      "swapEtherToToken(address,uint256)": {
        "details": "makes a trade from Ether to token. Sends token to msg sender",
        "params": {
          "minConversionRate": "The minimal conversion rate. If actual rate is lower, trade is canceled.",
          "token": "Destination token"
        },
        "return": "amount of actual dest tokens"
      },
      "swapTokenToEther(address,uint256,uint256)": {
        "details": "makes a trade from token to Ether, sends Ether to msg sender",
        "params": {
          "minConversionRate": "The minimal conversion rate. If actual rate is lower, trade is canceled.",
          "srcAmount": "amount of src tokens",
          "token": "Src token"
        },
        "return": "amount of actual dest tokens"
      },
      "swapTokenToToken(address,uint256,address,uint256)": {
        "details": "makes a trade between src and dest token and send dest tokens to msg sender",
        "params": {
          "dest": "Destination token",
          "minConversionRate": "The minimal conversion rate. If actual rate is lower, trade is canceled.",
          "src": "Src token",
          "srcAmount": "amount of src tokens"
        },
        "return": "amount of actual dest tokens"
      },
      "trade(address,uint256,address,address,uint256,uint256,address)": {
        "details": "makes a trade between src and dest token and send dest token to destAddress",
        "params": {
          "dest": "Destination token",
          "destAddress": "Address to send tokens to",
          "maxDestAmount": "A limit on the amount of dest tokens",
          "minConversionRate": "The minimal conversion rate. If actual rate is lower, trade is canceled.",
          "src": "Src token",
          "srcAmount": "amount of src tokens",
          "walletId": "is the wallet ID to send part of the fees"
        },
        "return": "amount of actual dest tokens"
      },
      "tradeWithHint(address,uint256,address,address,uint256,uint256,address,bytes)": {
        "details": "makes a trade between src and dest token and send dest token to destAddress",
        "params": {
          "dest": "Destination token",
          "destAddress": "Address to send tokens to",
          "hint": "will give hints for the trade.",
          "maxDestAmount": "A limit on the amount of dest tokens",
          "minConversionRate": "The minimal conversion rate. If actual rate is lower, trade is canceled.",
          "src": "Src token",
          "srcAmount": "amount of src tokens",
          "walletId": "is the wallet ID to send part of the fees"
        },
        "return": "amount of actual dest tokens"
      },
      "transferAdmin(address)": {
        "details": "Allows the current admin to set the pendingAdmin address.",
        "params": {
          "newAdmin": "The address to transfer ownership to."
        }
      },
      "transferAdminQuickly(address)": {
        "details": "Allows the current admin to set the admin in one tx. Useful initial deployment.",
        "params": {
          "newAdmin": "The address to transfer ownership to."
        }
      },
      "withdrawEther(uint256,address)": {
        "details": "Withdraw Ethers"
      },
      "withdrawToken(address,uint256,address)": {
        "details": "Withdraw all ERC20 compatible tokens",
        "params": {
          "token": "ERC20 The address of the token contract"
        }
      }
    },
    "title": "Kyber Network proxy for main contract"
  },
  "userdoc": {
    "methods": {
      "trade(address,uint256,address,address,uint256,uint256,address)": {
        "notice": "use token address ETH_TOKEN_ADDRESS for ether"
      },
      "tradeWithHint(address,uint256,address,address,uint256,uint256,address,bytes)": {
        "notice": "use token address ETH_TOKEN_ADDRESS for ether"
      }
    }
  }
}