{
  "contractName": "KyberDutchXReserve",
  "abi": [
    {
      "constant": false,
      "inputs": [
        {
          "name": "alerter",
          "type": "address"
        }
      ],
      "name": "removeAlerter",
      "outputs": [],
      "payable": false,
      "stateMutability": "nonpayable",
      "type": "function"
    },
    {
      "constant": true,
      "inputs": [],
      "name": "DEFAULT_KYBER_FEE_BPS",
      "outputs": [
        {
          "name": "",
          "type": "uint256"
        }
      ],
      "payable": false,
      "stateMutability": "view",
      "type": "function"
    },
    {
      "constant": true,
      "inputs": [],
      "name": "BPS",
      "outputs": [
        {
          "name": "",
          "type": "uint256"
        }
      ],
      "payable": false,
      "stateMutability": "view",
      "type": "function"
    },
    {
      "constant": true,
      "inputs": [],
      "name": "feeBps",
      "outputs": [
        {
          "name": "",
          "type": "uint256"
        }
      ],
      "payable": false,
      "stateMutability": "view",
      "type": "function"
    },
    {
      "constant": true,
      "inputs": [],
      "name": "dutchX",
      "outputs": [
        {
          "name": "",
          "type": "address"
        }
      ],
      "payable": false,
      "stateMutability": "view",
      "type": "function"
    },
    {
      "constant": true,
      "inputs": [],
      "name": "dutchXFeeDen",
      "outputs": [
        {
          "name": "",
          "type": "uint256"
        }
      ],
      "payable": false,
      "stateMutability": "view",
      "type": "function"
    },
    {
      "constant": true,
      "inputs": [],
      "name": "pendingAdmin",
      "outputs": [
        {
          "name": "",
          "type": "address"
        }
      ],
      "payable": false,
      "stateMutability": "view",
      "type": "function"
    },
    {
      "constant": true,
      "inputs": [],
      "name": "getOperators",
      "outputs": [
        {
          "name": "",
          "type": "address[]"
        }
      ],
      "payable": false,
      "stateMutability": "view",
      "type": "function"
    },
    {
      "constant": false,
      "inputs": [
        {
          "name": "token",
          "type": "address"
        },
        {
          "name": "amount",
          "type": "uint256"
        },
        {
          "name": "sendTo",
          "type": "address"
        }
      ],
      "name": "withdrawToken",
      "outputs": [],
      "payable": false,
      "stateMutability": "nonpayable",
      "type": "function"
    },
    {
      "constant": true,
      "inputs": [],
      "name": "weth",
      "outputs": [
        {
          "name": "",
          "type": "address"
        }
      ],
      "payable": false,
      "stateMutability": "view",
      "type": "function"
    },
    {
      "constant": false,
      "inputs": [
        {
          "name": "newAlerter",
          "type": "address"
        }
      ],
      "name": "addAlerter",
      "outputs": [],
      "payable": false,
      "stateMutability": "nonpayable",
      "type": "function"
    },
    {
      "constant": true,
      "inputs": [
        {
          "name": "",
          "type": "address"
        }
      ],
      "name": "listedTokens",
      "outputs": [
        {
          "name": "",
          "type": "bool"
        }
      ],
      "payable": false,
      "stateMutability": "view",
      "type": "function"
    },
    {
      "constant": false,
      "inputs": [
        {
          "name": "newAdmin",
          "type": "address"
        }
      ],
      "name": "transferAdmin",
      "outputs": [],
      "payable": false,
      "stateMutability": "nonpayable",
      "type": "function"
    },
    {
      "constant": false,
      "inputs": [],
      "name": "claimAdmin",
      "outputs": [],
      "payable": false,
      "stateMutability": "nonpayable",
      "type": "function"
    },
    {
      "constant": false,
      "inputs": [
        {
          "name": "newAdmin",
          "type": "address"
        }
      ],
      "name": "transferAdminQuickly",
      "outputs": [],
      "payable": false,
      "stateMutability": "nonpayable",
      "type": "function"
    },
    {
      "constant": true,
      "inputs": [],
      "name": "getAlerters",
      "outputs": [
        {
          "name": "",
          "type": "address[]"
        }
      ],
      "payable": false,
      "stateMutability": "view",
      "type": "function"
    },
    {
      "constant": false,
      "inputs": [
        {
          "name": "newOperator",
          "type": "address"
        }
      ],
      "name": "addOperator",
      "outputs": [],
      "payable": false,
      "stateMutability": "nonpayable",
      "type": "function"
    },
    {
      "constant": false,
      "inputs": [
        {
          "name": "operator",
          "type": "address"
        }
      ],
      "name": "removeOperator",
      "outputs": [],
      "payable": false,
      "stateMutability": "nonpayable",
      "type": "function"
    },
    {
      "constant": true,
      "inputs": [],
      "name": "kyberNetwork",
      "outputs": [
        {
          "name": "",
          "type": "address"
        }
      ],
      "payable": false,
      "stateMutability": "view",
      "type": "function"
    },
    {
      "constant": false,
      "inputs": [
        {
          "name": "amount",
          "type": "uint256"
        },
        {
          "name": "sendTo",
          "type": "address"
        }
      ],
      "name": "withdrawEther",
      "outputs": [],
      "payable": false,
      "stateMutability": "nonpayable",
      "type": "function"
    },
    {
      "constant": true,
      "inputs": [
        {
          "name": "token",
          "type": "address"
        },
        {
          "name": "user",
          "type": "address"
        }
      ],
      "name": "getBalance",
      "outputs": [
        {
          "name": "",
          "type": "uint256"
        }
      ],
      "payable": false,
      "stateMutability": "view",
      "type": "function"
    },
    {
      "constant": true,
      "inputs": [],
      "name": "tradeEnabled",
      "outputs": [
        {
          "name": "",
          "type": "bool"
        }
      ],
      "payable": false,
      "stateMutability": "view",
      "type": "function"
    },
    {
      "constant": true,
      "inputs": [],
      "name": "dutchXFeeNum",
      "outputs": [
        {
          "name": "",
          "type": "uint256"
        }
      ],
      "payable": false,
      "stateMutability": "view",
      "type": "function"
    },
    {
      "constant": true,
      "inputs": [],
      "name": "admin",
      "outputs": [
        {
          "name": "",
          "type": "address"
        }
      ],
      "payable": false,
      "stateMutability": "view",
      "type": "function"
    },
    {
      "inputs": [
        {
          "name": "_dutchX",
          "type": "address"
        },
        {
          "name": "_admin",
          "type": "address"
        },
        {
          "name": "_kyberNetwork",
          "type": "address"
        },
        {
          "name": "_weth",
          "type": "address"
        }
      ],
      "payable": false,
      "stateMutability": "nonpayable",
      "type": "constructor"
    },
    {
      "payable": true,
      "stateMutability": "payable",
      "type": "fallback"
    },
    {
      "anonymous": false,
      "inputs": [
        {
          "indexed": true,
          "name": "sender",
          "type": "address"
        },
        {
          "indexed": false,
          "name": "src",
          "type": "address"
        },
        {
          "indexed": false,
          "name": "srcAmount",
          "type": "uint256"
        },
        {
          "indexed": false,
          "name": "destToken",
          "type": "address"
        },
        {
          "indexed": false,
          "name": "destAmount",
          "type": "uint256"
        },
        {
          "indexed": false,
          "name": "destAddress",
          "type": "address"
        },
        {
          "indexed": false,
          "name": "auctionIndex",
          "type": "uint256"
        }
      ],
      "name": "TradeExecute",
      "type": "event"
    },
    {
      "anonymous": false,
      "inputs": [
        {
          "indexed": false,
          "name": "bps",
          "type": "uint256"
        }
      ],
      "name": "FeeUpdated",
      "type": "event"
    },
    {
      "anonymous": false,
      "inputs": [
        {
          "indexed": false,
          "name": "token",
          "type": "address"
        }
      ],
      "name": "TokenListed",
      "type": "event"
    },
    {
      "anonymous": false,
      "inputs": [
        {
          "indexed": false,
          "name": "token",
          "type": "address"
        }
      ],
      "name": "TokenDelisted",
      "type": "event"
    },
    {
      "anonymous": false,
      "inputs": [
        {
          "indexed": false,
          "name": "enable",
          "type": "bool"
        }
      ],
      "name": "TradeEnabled",
      "type": "event"
    },
    {
      "anonymous": false,
      "inputs": [
        {
          "indexed": false,
          "name": "kyberNetwork",
          "type": "address"
        }
      ],
      "name": "KyberNetworkSet",
      "type": "event"
    },
    {
      "anonymous": false,
      "inputs": [
        {
          "indexed": false,
          "name": "success",
          "type": "bool"
        },
        {
          "indexed": false,
          "name": "caller",
          "type": "address"
        },
        {
          "indexed": false,
          "name": "destination",
          "type": "address"
        },
        {
          "indexed": false,
          "name": "value",
          "type": "uint256"
        },
        {
          "indexed": false,
          "name": "data",
          "type": "bytes"
        }
      ],
      "name": "Execution",
      "type": "event"
    },
    {
      "anonymous": false,
      "inputs": [
        {
          "indexed": false,
          "name": "token",
          "type": "address"
        },
        {
          "indexed": false,
          "name": "amount",
          "type": "uint256"
        },
        {
          "indexed": false,
          "name": "sendTo",
          "type": "address"
        }
      ],
      "name": "TokenWithdraw",
      "type": "event"
    },
    {
      "anonymous": false,
      "inputs": [
        {
          "indexed": false,
          "name": "amount",
          "type": "uint256"
        },
        {
          "indexed": false,
          "name": "sendTo",
          "type": "address"
        }
      ],
      "name": "EtherWithdraw",
      "type": "event"
    },
    {
      "anonymous": false,
      "inputs": [
        {
          "indexed": false,
          "name": "pendingAdmin",
          "type": "address"
        }
      ],
      "name": "TransferAdminPending",
      "type": "event"
    },
    {
      "anonymous": false,
      "inputs": [
        {
          "indexed": false,
          "name": "newAdmin",
          "type": "address"
        },
        {
          "indexed": false,
          "name": "previousAdmin",
          "type": "address"
        }
      ],
      "name": "AdminClaimed",
      "type": "event"
    },
    {
      "anonymous": false,
      "inputs": [
        {
          "indexed": false,
          "name": "newAlerter",
          "type": "address"
        },
        {
          "indexed": false,
          "name": "isAdd",
          "type": "bool"
        }
      ],
      "name": "AlerterAdded",
      "type": "event"
    },
    {
      "anonymous": false,
      "inputs": [
        {
          "indexed": false,
          "name": "newOperator",
          "type": "address"
        },
        {
          "indexed": false,
          "name": "isAdd",
          "type": "bool"
        }
      ],
      "name": "OperatorAdded",
      "type": "event"
    },
    {
      "constant": true,
      "inputs": [
        {
          "name": "src",
          "type": "address"
        },
        {
          "name": "dest",
          "type": "address"
        },
        {
          "name": "srcQty",
          "type": "uint256"
        },
        {
          "name": "blockNumber",
          "type": "uint256"
        }
      ],
      "name": "getConversionRate",
      "outputs": [
        {
          "name": "",
          "type": "uint256"
        }
      ],
      "payable": false,
      "stateMutability": "view",
      "type": "function"
    },
    {
      "constant": false,
      "inputs": [
        {
          "name": "srcToken",
          "type": "address"
        },
        {
          "name": "srcAmount",
          "type": "uint256"
        },
        {
          "name": "destToken",
          "type": "address"
        },
        {
          "name": "destAddress",
          "type": "address"
        },
        {
          "name": "conversionRate",
          "type": "uint256"
        },
        {
          "name": "validate",
          "type": "bool"
        }
      ],
      "name": "trade",
      "outputs": [
        {
          "name": "",
          "type": "bool"
        }
      ],
      "payable": true,
      "stateMutability": "payable",
      "type": "function"
    },
    {
      "constant": false,
      "inputs": [
        {
          "name": "bps",
          "type": "uint256"
        }
      ],
      "name": "setFee",
      "outputs": [],
      "payable": false,
      "stateMutability": "nonpayable",
      "type": "function"
    },
    {
      "constant": false,
      "inputs": [
        {
          "name": "token",
          "type": "address"
        }
      ],
      "name": "listToken",
      "outputs": [],
      "payable": false,
      "stateMutability": "nonpayable",
      "type": "function"
    },
    {
      "constant": false,
      "inputs": [
        {
          "name": "token",
          "type": "address"
        }
      ],
      "name": "delistToken",
      "outputs": [],
      "payable": false,
      "stateMutability": "nonpayable",
      "type": "function"
    },
    {
      "constant": false,
      "inputs": [],
      "name": "setDutchXFee",
      "outputs": [],
      "payable": false,
      "stateMutability": "nonpayable",
      "type": "function"
    },
    {
      "constant": false,
      "inputs": [],
      "name": "disableTrade",
      "outputs": [
        {
          "name": "",
          "type": "bool"
        }
      ],
      "payable": false,
      "stateMutability": "nonpayable",
      "type": "function"
    },
    {
      "constant": false,
      "inputs": [],
      "name": "enableTrade",
      "outputs": [
        {
          "name": "",
          "type": "bool"
        }
      ],
      "payable": false,
      "stateMutability": "nonpayable",
      "type": "function"
    },
    {
      "constant": false,
      "inputs": [
        {
          "name": "_kyberNetwork",
          "type": "address"
        }
      ],
      "name": "setKyberNetwork",
      "outputs": [],
      "payable": false,
      "stateMutability": "nonpayable",
      "type": "function"
    },
    {
      "constant": false,
      "inputs": [
        {
          "name": "destination",
          "type": "address"
        },
        {
          "name": "value",
          "type": "uint256"
        },
        {
          "name": "data",
          "type": "bytes"
        }
      ],
      "name": "executeTransaction",
      "outputs": [],
      "payable": false,
      "stateMutability": "nonpayable",
      "type": "function"
    }
  ],
  "bytecode": "0x6060604052601960075534156200001557600080fd5b604051608080620027b88339810160405280805191906020018051919060200180519190602001805160008054600160a060020a03191633600160a060020a03908116919091179091559092508516151590506200007257600080fd5b600160a060020a03831615156200008857600080fd5b600160a060020a03821615156200009e57600080fd5b600160a060020a0381161515620000b457600080fd5b600a8054600160a060020a03808716600160a060020a03199283161790925560008054868416908316179055600b8054858416908316179055600c80549284169290911691909117905562000116640100000000620007bd6200021582021704565b600c54600a54600160a060020a039182169163095ea7b391167f80000000000000000000000000000000000000000000000000000000000000006000604051602001526040517c010000000000000000000000000000000000000000000000000000000063ffffffff8516028152600160a060020a0390921660048301526024820152604401602060405180830381600087803b1515620001b657600080fd5b6102c65a03f11515620001c857600080fd5b505050604051805190501515620001de57600080fd5b6200020b73eeeeeeeeeeeeeeeeeeeeeeeeeeeeeeeeeeeeeeee64010000000062001e886200030282021704565b50505050620003e2565b600a54600160a060020a031663edd0b5cb306000604051604001526040517c010000000000000000000000000000000000000000000000000000000063ffffffff8416028152600160a060020a0390911660048201526024016040805180830381600087803b15156200028757600080fd5b6102c65a03f115156200029957600080fd5b50505060405180519060200180516009819055600892909255501515620002c557600e805460ff191690555b600e547f7d7f00509dd73ac4449f698ae75ccc797895eff5fa9d446d3df387598a26e7359060ff16604051901515815260200160405180910390a1565b600160a060020a03811673eeeeeeeeeeeeeeeeeeeeeeeeeeeeeeeeeeeeeeee14156200034a57600160a060020a038116600090815260066020526040902060129055620003df565b80600160a060020a031663313ce5676000604051602001526040518163ffffffff167c0100000000000000000000000000000000000000000000000000000000028152600401602060405180830381600087803b1515620003aa57600080fd5b6102c65a03f11515620003bc57600080fd5b5050506040518051600160a060020a038316600090815260066020526040902055505b50565b6123c680620003f26000396000f3006060604052600436106101915763ffffffff60e060020a60003504166299d386811461019357806301a12fd3146101ba57806304fe3212146101d95780631fc1e25f146101ec5780631fe884031461020b578063249d39e91461023057806324a9d8531461024357806325071db014610256578063261542a414610285578063267822471461029857806327a099d8146102ab5780633ccdbb28146103115780633f579f421461033a5780633fc8cef31461039f578063408ee7fe146103b257806354a325a6146103d15780636940030f146103f057806369fe0e2d146104035780636cf69811146104195780637093f47f1461044557806375829def1461046457806377f50f97146104835780637acc8678146104965780637c423f54146104b55780637cd44272146104c85780639870d7fe146104f3578063abffc9ac14610512578063ac8a584a14610531578063b78b842d14610550578063ce56c45414610563578063d4fac45d14610585578063d621e813146105aa578063de05ef1a146105bd578063f851a440146105d0575b005b341561019e57600080fd5b6101a66105e3565b604051901515815260200160405180910390f35b34156101c557600080fd5b610191600160a060020a036004351661064d565b34156101e457600080fd5b6101916107bd565b34156101f757600080fd5b610191600160a060020a036004351661088e565b341561021657600080fd5b61021e6109d3565b60405190815260200160405180910390f35b341561023b57600080fd5b61021e6109d8565b341561024e57600080fd5b61021e6109de565b341561026157600080fd5b6102696109e4565b604051600160a060020a03909116815260200160405180910390f35b341561029057600080fd5b61021e6109f3565b34156102a357600080fd5b6102696109f9565b34156102b657600080fd5b6102be610a08565b60405160208082528190810183818151815260200191508051906020019060200280838360005b838110156102fd5780820151838201526020016102e5565b505050509050019250505060405180910390f35b341561031c57600080fd5b610191600160a060020a036004358116906024359060443516610a70565b341561034557600080fd5b61019160048035600160a060020a03169060248035919060649060443590810190830135806020601f82018190048102016040519081016040528181529291906020840183838082843750949650610b6795505050505050565b34156103aa57600080fd5b610269610ce5565b34156103bd57600080fd5b610191600160a060020a0360043516610cf4565b34156103dc57600080fd5b610191600160a060020a0360043516610df0565b34156103fb57600080fd5b6101a6610e82565b341561040e57600080fd5b610191600435610eef565b6101a6600160a060020a03600435811690602435906044358116906064351660843560a4351515610f54565b341561045057600080fd5b6101a6600160a060020a0360043516611503565b341561046f57600080fd5b610191600160a060020a0360043516611518565b341561048e57600080fd5b6101916115b3565b34156104a157600080fd5b610191600160a060020a036004351661164d565b34156104c057600080fd5b6102be61172f565b34156104d357600080fd5b61021e600160a060020a0360043581169060243516604435606435611795565b34156104fe57600080fd5b610191600160a060020a0360043516611a3c565b341561051d57600080fd5b610191600160a060020a0360043516611b0c565b341561053c57600080fd5b610191600160a060020a0360043516611bb0565b341561055b57600080fd5b610269611d1c565b341561056e57600080fd5b610191600435600160a060020a0360243516611d2b565b341561059057600080fd5b61021e600160a060020a0360043581169060243516611dbe565b34156105b557600080fd5b6101a6611e6a565b34156105c857600080fd5b61021e611e73565b34156105db57600080fd5b610269611e79565b6000805433600160a060020a039081169116146105ff57600080fd5b600e805460ff1916600117908190557f7d7f00509dd73ac4449f698ae75ccc797895eff5fa9d446d3df387598a26e7359060ff16604051901515815260200160405180910390a15060015b90565b6000805433600160a060020a0390811691161461066957600080fd5b600160a060020a03821660009081526003602052604090205460ff16151561069057600080fd5b50600160a060020a0381166000908152600360205260408120805460ff191690555b6005548110156107b95781600160a060020a03166005828154811015156106d557fe5b600091825260209091200154600160a060020a031614156107b15760058054600019810190811061070257fe5b60009182526020909120015460058054600160a060020a03909216918390811061072857fe5b60009182526020909120018054600160a060020a031916600160a060020a039290921691909117905560058054906107649060001983016122f8565b507f5611bf3e417d124f97bf2c788843ea8bb502b66079fbee02158ef30b172cb762826000604051600160a060020a039092168252151560208201526040908101905180910390a16107b9565b6001016106b2565b5050565b600a54600160a060020a031663edd0b5cb3060006040516040015260405160e060020a63ffffffff8416028152600160a060020a0390911660048201526024016040805180830381600087803b151561081557600080fd5b6102c65a03f1151561082657600080fd5b5050506040518051906020018051600981905560089290925550151561085157600e805460ff191690555b600e547f7d7f00509dd73ac4449f698ae75ccc797895eff5fa9d446d3df387598a26e7359060ff16604051901515815260200160405180910390a1565b60005433600160a060020a039081169116146108a957600080fd5b600160a060020a03811615156108be57600080fd5b600160a060020a0381166000908152600d60205260409020805460ff191660011790556108ea81611e88565b600a54600160a060020a038083169163095ea7b391167f800000000000000000000000000000000000000000000000000000000000000060006040516020015260405160e060020a63ffffffff8516028152600160a060020a0390921660048301526024820152604401602060405180830381600087803b151561096d57600080fd5b6102c65a03f1151561097e57600080fd5b50505060405180519050151561099357600080fd5b7f017664858438d89f547fee46da0bcfc5396ea13a9fb1490b8fdd76cfa979f1a981604051600160a060020a03909116815260200160405180910390a150565b601981565b61271081565b60075481565b600a54600160a060020a031681565b60095481565b600154600160a060020a031681565b610a1061231c565b6004805480602002602001604051908101604052809291908181526020018280548015610a6657602002820191906000526020600020905b8154600160a060020a03168152600190910190602001808311610a48575b5050505050905090565b60005433600160a060020a03908116911614610a8b57600080fd5b82600160a060020a031663a9059cbb828460006040516020015260405160e060020a63ffffffff8516028152600160a060020a0390921660048301526024820152604401602060405180830381600087803b1515610ae857600080fd5b6102c65a03f11515610af957600080fd5b505050604051805190501515610b0e57600080fd5b7f72cb8a894ddb372ceec3d2a7648d86f17d5a15caae0e986c53109b8a9a9385e6838383604051600160a060020a03938416815260208101929092529091166040808301919091526060909101905180910390a1505050565b600160a060020a03331660009081526002602052604090205460ff161515610b8e57600080fd5b82600160a060020a0316828260405180828051906020019080838360005b83811015610bc4578082015183820152602001610bac565b50505050905090810190601f168015610bf15780820380516001836020036101000a031916815260200191505b5091505060006040518083038185876187965a03f19250505015610cdb577f0c522140e9193f2aabe5087aa9816c5fdea5ba2e9e42a54acfe27ffdc98d91b06001338585856040518515158152600160a060020a038086166020830152841660408201526060810183905260a06080820181815290820183818151815260200191508051906020019080838360005b83811015610c98578082015183820152602001610c80565b50505050905090810190601f168015610cc55780820380516001836020036101000a031916815260200191505b50965050505050505060405180910390a1610ce0565b600080fd5b505050565b600c54600160a060020a031681565b60005433600160a060020a03908116911614610d0f57600080fd5b600160a060020a03811660009081526003602052604090205460ff1615610d3557600080fd5b60055460329010610d4557600080fd5b7f5611bf3e417d124f97bf2c788843ea8bb502b66079fbee02158ef30b172cb762816001604051600160a060020a039092168252151560208201526040908101905180910390a1600160a060020a0381166000908152600360205260409020805460ff191660019081179091556005805490918101610dc483826122f8565b5060009182526020909120018054600160a060020a031916600160a060020a0392909216919091179055565b60005433600160a060020a03908116911614610e0b57600080fd5b600160a060020a0381161515610e2057600080fd5b600b8054600160a060020a031916600160a060020a0383811691909117918290557f38622430bb6defd4452b087e8d0b4a6d1c4d35c179c2d7d875d4abb272b9d88b9116604051600160a060020a03909116815260200160405180910390a150565b600160a060020a03331660009081526003602052604081205460ff161515610ea957600080fd5b600e805460ff191690557f7d7f00509dd73ac4449f698ae75ccc797895eff5fa9d446d3df387598a26e7356000604051901515815260200160405180910390a150600190565b60005433600160a060020a03908116911614610f0a57600080fd5b612710811115610f1957600080fd5b60078190557f8c4d35e54a3f2ef1134138fd8ea3daee6a3c89e10d2665996babdf70261e2c768160405190815260200160405180910390a150565b6000610f5e61232e565b600e546000908190819060ff161515610f7657600080fd5b600b5433600160a060020a03908116911614610f9157600080fd5b610f9b8b8a611f45565b935083511515610faa57600080fd5b600160a060020a038b1660008051602061237b833981519152141561103e57348a14610fd557600080fd5b6007546127109081038b02600c549190049350600160a060020a031663d0e30db0846040518263ffffffff1660e060020a0281526004016000604051808303818588803b151561102457600080fd5b6125ee5a03f1151561103557600080fd5b505050506110dd565b341561104957600080fd5b8a600160a060020a03166323b872dd33308d60006040516020015260405160e060020a63ffffffff8616028152600160a060020a0393841660048201529190921660248201526044810191909152606401602060405180830381600087803b15156110b357600080fd5b6102c65a03f115156110c457600080fd5b5050506040518051905015156110d957600080fd5b8992505b600a54600160a060020a03166347e7ef2460208601518560006040516020015260405160e060020a63ffffffff8516028152600160a060020a0390921660048301526024820152604401602060405180830381600087803b151561114057600080fd5b6102c65a03f1151561115157600080fd5b50505060405180515050600a54600160a060020a0316635e7f22c26040860151866020015187518760006040516020015260405160e060020a63ffffffff8716028152600160a060020a03948516600482015292909316602483015260448201526064810191909152608401602060405180830381600087803b15156111d657600080fd5b6102c65a03f115156111e757600080fd5b50505060405180515050600a54600160a060020a031663b02938506040860151866020015130885160006040516040015260405160e060020a63ffffffff8716028152600160a060020a03948516600482015292841660248401529216604482015260648101919091526084016040805180830381600087803b151561126c57600080fd5b6102c65a03f1151561127d57600080fd5b5050506040518051906020018051600a54929450925050600160a060020a031663f3fef3a360408601518460006040516020015260405160e060020a63ffffffff8516028152600160a060020a0390921660048301526024820152604401602060405180830381600087803b15156112f457600080fd5b6102c65a03f1151561130557600080fd5b50505060405180515050600160a060020a03891660008051602061237b83398151915214156113ce57600c54600160a060020a0316632e1a7d4d8360405160e060020a63ffffffff84160281526004810191909152602401600060405180830381600087803b151561137657600080fd5b6102c65a03f1151561138757600080fd5b5050600754612710915081038302049150600160a060020a03881682156108fc0283604051600060405180830381858888f1935050505015156113c957600080fd5b611455565b8360400151600160a060020a031663a9059cbb898460006040516020015260405160e060020a63ffffffff8516028152600160a060020a0390921660048301526024820152604401602060405180830381600087803b151561142f57600080fd5b6102c65a03f1151561144057600080fd5b50505060405180519050151561145557600080fd5b6114718a836114638e61204c565b61146c8d61204c565b61210a565b87111561147d57600080fd5b600160a060020a0333167fd7dd4b527e22d0655c20ef5e9f1db6f8b4059d29617cc7584d2e32f6b4fbf8ae8c8c8c868d8a51604051600160a060020a03968716815260208101959095529285166040808601919091526060850192909252909316608083015260a082015260c001905180910390a25060019a9950505050505050505050565b600d6020526000908152604090205460ff1681565b60005433600160a060020a0390811691161461153357600080fd5b600160a060020a038116151561154857600080fd5b6001547f3b81caf78fa51ecbc8acb482fd7012a277b428d9b80f9d156e8a54107496cc4090600160a060020a0316604051600160a060020a03909116815260200160405180910390a160018054600160a060020a031916600160a060020a0392909216919091179055565b60015433600160a060020a039081169116146115ce57600080fd5b6001546000547f65da1cfc2c2e81576ad96afb24a581f8e109b7a403b35cbd3243a1c99efdb9ed91600160a060020a039081169116604051600160a060020a039283168152911660208201526040908101905180910390a16001805460008054600160a060020a0319908116600160a060020a03841617909155169055565b60005433600160a060020a0390811691161461166857600080fd5b600160a060020a038116151561167d57600080fd5b7f3b81caf78fa51ecbc8acb482fd7012a277b428d9b80f9d156e8a54107496cc4081604051600160a060020a03909116815260200160405180910390a16000547f65da1cfc2c2e81576ad96afb24a581f8e109b7a403b35cbd3243a1c99efdb9ed908290600160a060020a0316604051600160a060020a039283168152911660208201526040908101905180910390a160008054600160a060020a031916600160a060020a0392909216919091179055565b61173761231c565b6005805480602002602001604051908101604052809291908181526020018280548015610a6657602002820191906000526020600020908154600160a060020a03168152600190910190602001808311610a48575050505050905090565b600061179f61232e565b600e54600090819060ff1615156117b95760009350611a31565b600160a060020a03881660008051602061237b833981519152141561180857600160a060020a0387166000908152600d602052604090205460ff1615156118035760009350611a31565b61185b565b600160a060020a03871660008051602061237b833981519152141561185257600160a060020a0388166000908152600d602052604090205460ff1615156118035760009350611a31565b60009350611a31565b6118658888611f45565b9250825115156118785760009350611a31565b600a54600160a060020a031663fdab1b7b60408501518560200151865160006040516040015260405160e060020a63ffffffff8616028152600160a060020a03938416600482015291909216602482015260448101919091526064016040805180830381600087803b15156118ec57600080fd5b6102c65a03f115156118fd57600080fd5b50505060405180519060200180516080860152506060840190815251158061192757508260800151155b156119355760009350611a31565b6119528360200151878560400151866060015187608001516121ad565b15156119615760009350611a31565b600160a060020a03881660008051602061237b833981519152146119855785611992565b6007546127109081038702045b91508115806119a657508183608001518302105b156119b45760009350611a31565b8260600151836080015183028115156119c957fe5b0490506009546008546009540382028115156119e157fe5b049050600160a060020a03871660008051602061237b83398151915214611a085780611a15565b6007546127109081038202045b9050611a2e8682611a258b61204c565b61146c8b61204c565b93505b505050949350505050565b60005433600160a060020a03908116911614611a5757600080fd5b600160a060020a03811660009081526002602052604090205460ff1615611a7d57600080fd5b60045460329010611a8d57600080fd5b7f091a7a4b85135fdd7e8dbc18b12fabe5cc191ea867aa3c2e1a24a102af61d58b816001604051600160a060020a039092168252151560208201526040908101905180910390a1600160a060020a0381166000908152600260205260409020805460ff191660019081179091556004805490918101610dc483826122f8565b60005433600160a060020a03908116911614611b2757600080fd5b600160a060020a0381166000908152600d602052604090205460ff161515611b4e57600080fd5b600160a060020a0381166000908152600d602052604090819020805460ff191690557f6621c4efc5efa31320394260425b7d14cbb9d7e3754b2c98c04af66b1cbf315b90829051600160a060020a03909116815260200160405180910390a150565b6000805433600160a060020a03908116911614611bcc57600080fd5b600160a060020a03821660009081526002602052604090205460ff161515611bf357600080fd5b50600160a060020a0381166000908152600260205260408120805460ff191690555b6004548110156107b95781600160a060020a0316600482815481101515611c3857fe5b600091825260209091200154600160a060020a03161415611d1457600480546000198101908110611c6557fe5b60009182526020909120015460048054600160a060020a039092169183908110611c8b57fe5b60009182526020909120018054600160a060020a031916600160a060020a0392909216919091179055600480546000190190611cc790826122f8565b507f091a7a4b85135fdd7e8dbc18b12fabe5cc191ea867aa3c2e1a24a102af61d58b826000604051600160a060020a039092168252151560208201526040908101905180910390a16107b9565b600101611c15565b600b54600160a060020a031681565b60005433600160a060020a03908116911614611d4657600080fd5b600160a060020a03811682156108fc0283604051600060405180830381858888f193505050501515611d7757600080fd5b7fec47e7ed86c86774d1a72c19f35c639911393fe7c1a34031fdbd260890da90de8282604051918252600160a060020a031660208201526040908101905180910390a15050565b6000600160a060020a03831660008051602061237b8339815191521415611df05750600160a060020a03811631611e64565b82600160a060020a03166370a082318360006040516020015260405160e060020a63ffffffff8416028152600160a060020a039091166004820152602401602060405180830381600087803b1515611e4757600080fd5b6102c65a03f11515611e5857600080fd5b50505060405180519150505b92915050565b600e5460ff1681565b60085481565b600054600160a060020a031681565b600160a060020a03811660008051602061237b8339815191521415611ec857600160a060020a038116600090815260066020526040902060129055611f42565b80600160a060020a031663313ce5676000604051602001526040518163ffffffff1660e060020a028152600401602060405180830381600087803b1515611f0e57600080fd5b6102c65a03f11515611f1f57600080fd5b5050506040518051600160a060020a038316600090815260066020526040902055505b50565b611f4d61232e565b600160a060020a03831660008051602061237b83398151915214611f715782611f7e565b600c54600160a060020a03165b600160a060020a039081166020830152821660008051602061237b83398151915214611faa5781611fb7565b600c54600160a060020a03165b600160a060020a0390811660408301908152600a54909116906314584a9d9051836020015160006040516020015260405160e060020a63ffffffff8516028152600160a060020a03928316600482015291166024820152604401602060405180830381600087803b151561202a57600080fd5b6102c65a03f1151561203b57600080fd5b505050604051805182525092915050565b600080600160a060020a03831660008051602061237b83398151915214156120775760129150612104565b50600160a060020a0382166000908152600660205260409020548015156121005782600160a060020a031663313ce5676000604051602001526040518163ffffffff1660e060020a028152600401602060405180830381600087803b15156120de57600080fd5b6102c65a03f115156120ef57600080fd5b505050604051805190509150612104565b8091505b50919050565b60006b204fce5e3e2502611000000085111561212557600080fd5b6b204fce5e3e2502611000000084111561213e57600080fd5b828210612179576012838303111561215557600080fd5b84838303600a0a02670de0b6b3a7640000850281151561217157fe5b0490506121a5565b6012828403111561218957600080fd5b84828403600a0a670de0b6b3a764000086020281151561217157fe5b949350505050565b600a54600090819081908190600160a060020a031663b8beafd6888b846040516020015260405160e060020a63ffffffff8516028152600160a060020a03928316600482015291166024820152604401602060405180830381600087803b151561221657600080fd5b6102c65a03f1151561222757600080fd5b5050506040518051600a54909450600160a060020a0316905063b64c4905888b60006040516020015260405160e060020a63ffffffff8516028152600160a060020a03928316600482015291166024820152604401602060405180830381600087803b151561229557600080fd5b6102c65a03f115156122a657600080fd5b5050506040518051905091508186830210156122c557600093506122ec565b82858784028115156122d357fe5b040390508781126122e757600193506122ec565b600093505b50505095945050505050565b815481835581811511610ce057600083815260209020610ce091810190830161235c565b60206040519081016040526000815290565b60a0604051908101604090815260008083526020830181905290820181905260608201819052608082015290565b61064a91905b808211156123765760008155600101612362565b50905600000000000000000000000000eeeeeeeeeeeeeeeeeeeeeeeeeeeeeeeeeeeeeeeea165627a7a72305820e2874fa661c1eaf4f8eae967320c199c96289449fd54a62b22da2bec52d9f3a60029",
  "source": "pragma solidity 0.4.18;\n\n\nimport \"../Withdrawable.sol\";\nimport \"../KyberReserveInterface.sol\";\nimport \"../Utils2.sol\";\n\n\ninterface WETH9 {\n    function approve(address spender, uint amount) public returns(bool);\n    function withdraw(uint amount) public;\n    function deposit() public payable;\n}\n\n\ninterface DutchXExchange {\n    // Two functions below are in fact: mapping (address => mapping (address => uint)) public sellVolumesCurrent;\n    // Token => Token => amount\n    function buyVolumes(address sellToken, address buyToken) public view returns (uint);\n    function sellVolumesCurrent(address sellToken, address buyToken) public view returns (uint);\n    function deposit(address tokenAddress,uint amount) public returns(uint);\n    function postBuyOrder(address sellToken,address buyToken,uint auctionIndex,uint amount) public returns (uint);\n\n    function claimBuyerFunds(address sellToken, address buyToken, address user, uint auctionIndex) public\n        returns(uint returned, uint frtsIssued);\n\n    function withdraw(address tokenAddress,uint amount) public returns (uint);\n    function getAuctionIndex(address sellToken, address buyToken) public view returns(uint index);\n    function getFeeRatio(address user) public view returns (uint num, uint den); // feeRatio < 10^4\n\n    function getCurrentAuctionPrice(address sellToken, address buyToken, uint auctionIndex) public view\n        returns (uint num, uint den);\n}\n\n\ncontract KyberDutchXReserve is KyberReserveInterface, Withdrawable, Utils2 {\n\n    uint public constant BPS = 10000;\n    uint public constant DEFAULT_KYBER_FEE_BPS = 25;\n\n    uint public feeBps = DEFAULT_KYBER_FEE_BPS;\n    uint public dutchXFeeNum;\n    uint public dutchXFeeDen;\n\n    DutchXExchange public dutchX;\n    address public kyberNetwork;\n    WETH9 public weth;\n\n    mapping(address => bool) public listedTokens;\n\n    bool public tradeEnabled;\n\n    /**\n        Constructor\n    */\n    function KyberDutchXReserve(\n        DutchXExchange _dutchX,\n        address _admin,\n        address _kyberNetwork,\n        WETH9 _weth\n    )\n        public\n    {\n        require(address(_dutchX) != address(0));\n        require(_admin != address(0));\n        require(_kyberNetwork != address(0));\n        require(_weth != WETH9(0));\n\n        dutchX = _dutchX;\n        admin = _admin;\n        kyberNetwork = _kyberNetwork;\n        weth = _weth;\n\n        setDutchXFee();\n        require(weth.approve(dutchX, 2 ** 255));\n        setDecimals(ETH_TOKEN_ADDRESS);\n    }\n\n    function() public payable {\n        // anyone can deposit ether\n    }\n\n    struct AuctionData {\n        uint index;\n        ERC20 srcToken;\n        ERC20 dstToken;\n        uint priceNum; // numerator\n        uint priceDen; // denominator\n    }\n\n    /**\n        Returns rate = dest quantity / source quantity.\n    */\n    function getConversionRate(\n        ERC20 src,\n        ERC20 dest,\n        uint srcQty,\n        uint blockNumber\n    )\n        public\n        view\n        returns(uint)\n    {\n        blockNumber;\n        if (!tradeEnabled) return 0;\n\n        if (src == ETH_TOKEN_ADDRESS) {\n            if (!listedTokens[dest]) return 0;\n        } else if (dest == ETH_TOKEN_ADDRESS) {\n            if (!listedTokens[src]) return 0;\n        } else {\n            return 0;\n        }\n\n        AuctionData memory auctionData = getAuctionData(src, dest);\n        if (auctionData.index == 0) return 0;\n\n        (auctionData.priceNum, auctionData.priceDen) = dutchX.getCurrentAuctionPrice(\n                auctionData.dstToken,\n                auctionData.srcToken,\n                auctionData.index\n            );\n\n        if (auctionData.priceNum == 0 || auctionData.priceDen == 0) return 0;\n\n        if (!sufficientLiquidity(auctionData.srcToken, srcQty, auctionData.dstToken,\n            auctionData.priceNum, auctionData.priceDen)) {\n            return 0;\n        }\n\n        // if source is Eth, reduce kyber fee from source.\n        uint actualSrcQty = (src == ETH_TOKEN_ADDRESS) ? srcQty * (BPS - feeBps) / BPS : srcQty;\n\n        if (actualSrcQty == 0 || actualSrcQty * auctionData.priceDen < actualSrcQty) return 0;\n\n        uint convertedQty = (actualSrcQty * auctionData.priceDen) / auctionData.priceNum;\n        // reduce dutchX fees\n        convertedQty = convertedQty * (dutchXFeeDen - dutchXFeeNum) / dutchXFeeDen;\n\n        // if destination is Eth, reduce kyber fee from destination.\n        convertedQty = (dest == ETH_TOKEN_ADDRESS) ? convertedQty * (BPS - feeBps) / BPS : convertedQty;\n\n        // here use original srcQty, which will give the real rate (as seen by internal kyberNetwork)\n        return calcRateFromQty(\n            srcQty, /* srcAmount */\n            convertedQty, /* destAmount */\n            getDecimals(src), /* srcDecimals */\n            getDecimals(dest) /* dstDecimals */\n        );\n    }\n\n    event TradeExecute(\n        address indexed sender,\n        address src,\n        uint srcAmount,\n        address destToken,\n        uint destAmount,\n        address destAddress,\n        uint auctionIndex\n    );\n\n    function trade(\n        ERC20 srcToken,\n        uint srcAmount,\n        ERC20 destToken,\n        address destAddress,\n        uint conversionRate,\n        bool validate\n    )\n        public\n        payable\n        returns(bool)\n    {\n        validate;\n\n        require(tradeEnabled);\n        require(msg.sender == kyberNetwork);\n\n        AuctionData memory auctionData = getAuctionData(srcToken, destToken);\n        require(auctionData.index != 0);\n\n        uint actualSrcQty;\n\n        if (srcToken == ETH_TOKEN_ADDRESS){\n            require(srcAmount == msg.value);\n            actualSrcQty = srcAmount * (BPS - feeBps) / BPS;\n            weth.deposit.value(actualSrcQty)();\n        } else {\n            require(msg.value == 0);\n            require(srcToken.transferFrom(msg.sender, address(this), srcAmount));\n            actualSrcQty = srcAmount;\n        }\n\n        dutchX.deposit(auctionData.srcToken, actualSrcQty);\n        dutchX.postBuyOrder(auctionData.dstToken, auctionData.srcToken, auctionData.index, actualSrcQty);\n\n        uint destAmount;\n        uint frtsIssued;\n        (destAmount, frtsIssued) = dutchX.claimBuyerFunds(\n            auctionData.dstToken,\n            auctionData.srcToken,\n            this,\n            auctionData.index\n        );\n\n        dutchX.withdraw(auctionData.dstToken, destAmount);\n\n        if (destToken == ETH_TOKEN_ADDRESS) {\n            weth.withdraw(destAmount);\n            destAmount = destAmount * (BPS - feeBps) / BPS;\n            destAddress.transfer(destAmount);\n        } else {\n            require(auctionData.dstToken.transfer(destAddress, destAmount));\n        }\n\n        require(conversionRate <= calcRateFromQty(\n            srcAmount, /* srcAmount */\n            destAmount, /* destAmount */\n            getDecimals(srcToken), /* srcDecimals */\n            getDecimals(destToken) /* dstDecimals */\n        ));\n        \n        TradeExecute(\n            msg.sender, /* sender */\n            srcToken, /* src */\n            srcAmount, /* srcAmount */\n            destToken, /* destToken */\n            destAmount, /* destAmount */\n            destAddress, /* destAddress */\n            auctionData.index\n        );\n\n        return true;\n    }\n\n    event FeeUpdated(\n        uint bps\n    );\n\n    function setFee(uint bps) public onlyAdmin {\n        require(bps <= BPS);\n        feeBps = bps;\n        FeeUpdated(bps);\n    }\n\n    event TokenListed(\n        ERC20 token\n    );\n\n    function listToken(ERC20 token)\n        public\n        onlyAdmin\n    {\n        require(address(token) != address(0));\n\n        listedTokens[token] = true;\n        setDecimals(token);\n        require(token.approve(dutchX, 2**255));\n        TokenListed(token);\n    }\n\n    event TokenDelisted(ERC20 token);\n\n    function delistToken(ERC20 token)\n        public\n        onlyAdmin\n    {\n        require(listedTokens[token]);\n        listedTokens[token] = false;\n\n        TokenDelisted(token);\n    }\n\n    event TradeEnabled(\n        bool enable\n    );\n\n    function setDutchXFee() public {\n        (dutchXFeeNum, dutchXFeeDen) = dutchX.getFeeRatio(this);\n\n        // can't use denominator 0 (EVM bad instruction)\n        if (dutchXFeeDen == 0) {\n            tradeEnabled = false;\n        }\n\n        TradeEnabled(tradeEnabled);\n    }\n\n    function disableTrade()\n        public\n        onlyAlerter\n        returns(bool)\n    {\n        tradeEnabled = false;\n        TradeEnabled(tradeEnabled);\n        return true;\n    }\n\n    function enableTrade()\n        public\n        onlyAdmin\n        returns(bool)\n    {\n        tradeEnabled = true;\n        TradeEnabled(tradeEnabled);\n        return true;\n    }\n\n    event KyberNetworkSet(\n        address kyberNetwork\n    );\n\n    function setKyberNetwork(\n        address _kyberNetwork\n    )\n        public\n        onlyAdmin\n    {\n        require(_kyberNetwork != address(0));\n        kyberNetwork = _kyberNetwork;\n        KyberNetworkSet(kyberNetwork);\n    }\n\n    event Execution(bool success, address caller, address destination, uint value, bytes data);\n\n    function executeTransaction(address destination, uint value, bytes data)\n        public\n        onlyOperator\n    {\n        if (destination.call.value(value)(data)) {\n            Execution(true, msg.sender, destination, value, data);\n        } else {\n            revert();\n        }\n    }\n\n    function sufficientLiquidity(ERC20 src, uint srcQty, ERC20 dest, uint priceNum, uint priceDen)\n        internal view returns(bool)\n    {\n        uint buyVolume = dutchX.buyVolumes(dest, src);\n        uint sellVolume = dutchX.sellVolumesCurrent(dest, src);\n\n        // 10^30 * 10^37 = 10^67\n        if (sellVolume * priceNum < sellVolume) return false;\n        int outstandingVolume = int((sellVolume * priceNum) / priceDen) - int(buyVolume);\n        if (outstandingVolume >= int(srcQty)) return true;\n\n        return false;\n    }\n\n    function getAuctionData(ERC20 src, ERC20 dst) internal view returns (AuctionData data) {\n        data.srcToken = src == ETH_TOKEN_ADDRESS ? ERC20(weth) : src;\n        data.dstToken = dst == ETH_TOKEN_ADDRESS ? ERC20(weth) : dst;\n        data.index = dutchX.getAuctionIndex(data.dstToken, data.srcToken);\n    }\n}\n",
  "sourcePath": "/home/node/app/workshop-master/contracts/dutchX/KyberDutchXReserve.sol",
  "compiler": {
    "name": "solc",
    "version": "0.4.18+commit.9cf6e910.Emscripten.clang"
  },
  "schemaVersion": "3.0.16",
  "updatedAt": "2019-10-11T14:32:49.170Z",
  "devdoc": {
    "methods": {
      "claimAdmin()": {
        "details": "Allows the pendingAdmin address to finalize the change admin process."
      },
      "getBalance(address,address)": {
        "details": "get the balance of a user.",
        "params": {
          "token": "The token type"
        },
        "return": "The balance"
      },
      "transferAdmin(address)": {
        "details": "Allows the current admin to set the pendingAdmin address.",
        "params": {
          "newAdmin": "The address to transfer ownership to."
        }
      },
      "transferAdminQuickly(address)": {
        "details": "Allows the current admin to set the admin in one tx. Useful initial deployment.",
        "params": {
          "newAdmin": "The address to transfer ownership to."
        }
      },
      "withdrawEther(uint256,address)": {
        "details": "Withdraw Ethers"
      },
      "withdrawToken(address,uint256,address)": {
        "details": "Withdraw all ERC20 compatible tokens",
        "params": {
          "token": "ERC20 The address of the token contract"
        }
      }
    }
  },
  "userdoc": {
    "methods": {
      "getConversionRate(address,address,uint256,uint256)": {
        "notice": "Returns rate = dest quantity / source quantity."
      }
    }
  }
}