{
  "contractName": "Migrations",
  "abi": [
    {
      "constant": true,
      "inputs": [],
      "name": "owner",
      "outputs": [
        {
          "name": "",
          "type": "address"
        }
      ],
      "payable": false,
      "stateMutability": "view",
      "type": "function"
    },
    {
      "constant": true,
      "inputs": [],
      "name": "lastCompletedMigration",
      "outputs": [
        {
          "name": "",
          "type": "uint256"
        }
      ],
      "payable": false,
      "stateMutability": "view",
      "type": "function"
    },
    {
      "inputs": [],
      "payable": false,
      "stateMutability": "nonpayable",
      "type": "constructor"
    },
    {
      "constant": false,
      "inputs": [
        {
          "name": "completed",
          "type": "uint256"
        }
      ],
      "name": "setCompleted",
      "outputs": [],
      "payable": false,
      "stateMutability": "nonpayable",
      "type": "function"
    },
    {
      "constant": false,
      "inputs": [
        {
          "name": "newAddress",
          "type": "address"
        }
      ],
      "name": "upgrade",
      "outputs": [],
      "payable": false,
      "stateMutability": "nonpayable",
      "type": "function"
    }
  ],
  "bytecode": "0x6060604052341561000f57600080fd5b60008054600160a060020a033316600160a060020a03199091161790556101e78061003b6000396000f3006060604052600436106100615763ffffffff7c01000000000000000000000000000000000000000000000000000000006000350416630900f01081146100665780638da5cb5b14610087578063fbdbad3c146100b6578063fdacd576146100db575b600080fd5b341561007157600080fd5b610085600160a060020a03600435166100f1565b005b341561009257600080fd5b61009a610186565b604051600160a060020a03909116815260200160405180910390f35b34156100c157600080fd5b6100c9610195565b60405190815260200160405180910390f35b34156100e657600080fd5b61008560043561019b565b6000805433600160a060020a03908116911614156101825781905080600160a060020a031663fdacd5766001546040517c010000000000000000000000000000000000000000000000000000000063ffffffff84160281526004810191909152602401600060405180830381600087803b151561016d57600080fd5b6102c65a03f1151561017e57600080fd5b5050505b5050565b600054600160a060020a031681565b60015481565b60005433600160a060020a03908116911614156101b85760018190555b505600a165627a7a723058204fdafe624d2c4a17b1b958b4af0762bbc13aa70f1321cfd3b926f4869f3a3bbf0029",
  "source": "pragma solidity 0.4.18;\n\n\ncontract Migrations {\n    address public owner;\n    uint public lastCompletedMigration;\n\n    modifier restricted() {\n        if (msg.sender == owner) _;\n    }\n\n    function Migrations() public {\n        owner = msg.sender;\n    }\n\n    function setCompleted(uint completed) public restricted {\n        lastCompletedMigration = completed;\n    }\n\n    function upgrade(address newAddress) public restricted {\n        Migrations upgraded = Migrations(newAddress);\n        upgraded.setCompleted(lastCompletedMigration);\n    }\n}\n",
  "sourcePath": "/home/node/app/workshop-master/contracts/Migrations.sol",
  "compiler": {
    "name": "solc",
    "version": "0.4.18+commit.9cf6e910.Emscripten.clang"
  },
  "schemaVersion": "3.0.16",
  "updatedAt": "2019-10-11T14:32:49.004Z",
  "devdoc": {
    "methods": {}
  },
  "userdoc": {
    "methods": {}
  }
}