{
  "contractName": "MockDutchX",
  "abi": [
    {
      "constant": true,
      "inputs": [],
      "name": "feeDenominator",
      "outputs": [
        {
          "name": "",
          "type": "uint256"
        }
      ],
      "payable": false,
      "stateMutability": "view",
      "type": "function"
    },
    {
      "constant": true,
      "inputs": [
        {
          "name": "",
          "type": "address"
        },
        {
          "name": "",
          "type": "address"
        },
        {
          "name": "",
          "type": "uint256"
        },
        {
          "name": "",
          "type": "address"
        }
      ],
      "name": "buyerBalances",
      "outputs": [
        {
          "name": "",
          "type": "uint256"
        }
      ],
      "payable": false,
      "stateMutability": "view",
      "type": "function"
    },
    {
      "constant": true,
      "inputs": [],
      "name": "auctionIndexCounter",
      "outputs": [
        {
          "name": "",
          "type": "uint256"
        }
      ],
      "payable": false,
      "stateMutability": "view",
      "type": "function"
    },
    {
      "constant": true,
      "inputs": [],
      "name": "mutualDenominator",
      "outputs": [
        {
          "name": "",
          "type": "uint256"
        }
      ],
      "payable": false,
      "stateMutability": "view",
      "type": "function"
    },
    {
      "constant": true,
      "inputs": [],
      "name": "ethToken",
      "outputs": [
        {
          "name": "",
          "type": "address"
        }
      ],
      "payable": false,
      "stateMutability": "view",
      "type": "function"
    },
    {
      "constant": true,
      "inputs": [
        {
          "name": "",
          "type": "address"
        },
        {
          "name": "",
          "type": "address"
        }
      ],
      "name": "tokenAuctionIndex",
      "outputs": [
        {
          "name": "",
          "type": "uint256"
        }
      ],
      "payable": false,
      "stateMutability": "view",
      "type": "function"
    },
    {
      "constant": true,
      "inputs": [
        {
          "name": "",
          "type": "address"
        },
        {
          "name": "",
          "type": "address"
        },
        {
          "name": "",
          "type": "uint256"
        },
        {
          "name": "",
          "type": "address"
        }
      ],
      "name": "claimedAmounts",
      "outputs": [
        {
          "name": "",
          "type": "uint256"
        }
      ],
      "payable": false,
      "stateMutability": "view",
      "type": "function"
    },
    {
      "constant": true,
      "inputs": [
        {
          "name": "",
          "type": "address"
        },
        {
          "name": "",
          "type": "address"
        }
      ],
      "name": "sellVolumesCurrent",
      "outputs": [
        {
          "name": "",
          "type": "uint256"
        }
      ],
      "payable": false,
      "stateMutability": "view",
      "type": "function"
    },
    {
      "constant": true,
      "inputs": [
        {
          "name": "",
          "type": "address"
        },
        {
          "name": "",
          "type": "address"
        }
      ],
      "name": "buyVolumes",
      "outputs": [
        {
          "name": "",
          "type": "uint256"
        }
      ],
      "payable": false,
      "stateMutability": "view",
      "type": "function"
    },
    {
      "constant": true,
      "inputs": [
        {
          "name": "",
          "type": "address"
        },
        {
          "name": "",
          "type": "address"
        },
        {
          "name": "",
          "type": "uint256"
        },
        {
          "name": "",
          "type": "address"
        }
      ],
      "name": "sellerBalances",
      "outputs": [
        {
          "name": "",
          "type": "uint256"
        }
      ],
      "payable": false,
      "stateMutability": "view",
      "type": "function"
    },
    {
      "constant": true,
      "inputs": [
        {
          "name": "",
          "type": "address"
        },
        {
          "name": "",
          "type": "address"
        }
      ],
      "name": "balances",
      "outputs": [
        {
          "name": "",
          "type": "uint256"
        }
      ],
      "payable": false,
      "stateMutability": "view",
      "type": "function"
    },
    {
      "constant": true,
      "inputs": [],
      "name": "feeNumerator",
      "outputs": [
        {
          "name": "",
          "type": "uint256"
        }
      ],
      "payable": false,
      "stateMutability": "view",
      "type": "function"
    },
    {
      "constant": true,
      "inputs": [
        {
          "name": "",
          "type": "address"
        },
        {
          "name": "",
          "type": "address"
        }
      ],
      "name": "tokenAuctionNumerator",
      "outputs": [
        {
          "name": "",
          "type": "uint256"
        }
      ],
      "payable": false,
      "stateMutability": "view",
      "type": "function"
    },
    {
      "inputs": [
        {
          "name": "_ethToken",
          "type": "address"
        }
      ],
      "payable": false,
      "stateMutability": "nonpayable",
      "type": "constructor"
    },
    {
      "constant": false,
      "inputs": [
        {
          "name": "sellToken",
          "type": "address"
        },
        {
          "name": "buyToken",
          "type": "address"
        }
      ],
      "name": "startNewAuctionIndex",
      "outputs": [],
      "payable": false,
      "stateMutability": "nonpayable",
      "type": "function"
    },
    {
      "constant": false,
      "inputs": [
        {
          "name": "sellToken",
          "type": "address"
        },
        {
          "name": "buyToken",
          "type": "address"
        },
        {
          "name": "amount",
          "type": "uint256"
        },
        {
          "name": "numerator",
          "type": "uint256"
        }
      ],
      "name": "addSellFundsToAuction",
      "outputs": [],
      "payable": false,
      "stateMutability": "nonpayable",
      "type": "function"
    },
    {
      "constant": false,
      "inputs": [
        {
          "name": "sellToken",
          "type": "address"
        },
        {
          "name": "buyToken",
          "type": "address"
        },
        {
          "name": "numerator",
          "type": "uint256"
        }
      ],
      "name": "setNewAuctionNumerator",
      "outputs": [],
      "payable": false,
      "stateMutability": "nonpayable",
      "type": "function"
    },
    {
      "constant": true,
      "inputs": [
        {
          "name": "sellToken",
          "type": "address"
        },
        {
          "name": "buyToken",
          "type": "address"
        },
        {
          "name": "auctionIndex",
          "type": "uint256"
        }
      ],
      "name": "getCurrentAuctionPrice",
      "outputs": [
        {
          "name": "num",
          "type": "uint256"
        },
        {
          "name": "den",
          "type": "uint256"
        }
      ],
      "payable": false,
      "stateMutability": "view",
      "type": "function"
    },
    {
      "constant": false,
      "inputs": [
        {
          "name": "tokenAddress",
          "type": "address"
        },
        {
          "name": "amount",
          "type": "uint256"
        }
      ],
      "name": "deposit",
      "outputs": [
        {
          "name": "",
          "type": "uint256"
        }
      ],
      "payable": false,
      "stateMutability": "nonpayable",
      "type": "function"
    },
    {
      "constant": true,
      "inputs": [
        {
          "name": "sellToken",
          "type": "address"
        },
        {
          "name": "buyToken",
          "type": "address"
        }
      ],
      "name": "getAuctionIndex",
      "outputs": [
        {
          "name": "index",
          "type": "uint256"
        }
      ],
      "payable": false,
      "stateMutability": "view",
      "type": "function"
    },
    {
      "constant": false,
      "inputs": [
        {
          "name": "sellToken",
          "type": "address"
        },
        {
          "name": "buyToken",
          "type": "address"
        },
        {
          "name": "auctionIndex",
          "type": "uint256"
        },
        {
          "name": "amount",
          "type": "uint256"
        }
      ],
      "name": "postBuyOrder",
      "outputs": [
        {
          "name": "",
          "type": "uint256"
        }
      ],
      "payable": false,
      "stateMutability": "nonpayable",
      "type": "function"
    },
    {
      "constant": false,
      "inputs": [
        {
          "name": "sellToken",
          "type": "address"
        },
        {
          "name": "buyToken",
          "type": "address"
        },
        {
          "name": "user",
          "type": "address"
        },
        {
          "name": "auctionIndex",
          "type": "uint256"
        }
      ],
      "name": "claimBuyerFunds",
      "outputs": [
        {
          "name": "returned",
          "type": "uint256"
        },
        {
          "name": "frtsIssued",
          "type": "uint256"
        }
      ],
      "payable": false,
      "stateMutability": "nonpayable",
      "type": "function"
    },
    {
      "constant": false,
      "inputs": [
        {
          "name": "tokenAddress",
          "type": "address"
        },
        {
          "name": "amount",
          "type": "uint256"
        }
      ],
      "name": "withdraw",
      "outputs": [
        {
          "name": "",
          "type": "uint256"
        }
      ],
      "payable": false,
      "stateMutability": "nonpayable",
      "type": "function"
    },
    {
      "constant": false,
      "inputs": [
        {
          "name": "numerator",
          "type": "uint256"
        },
        {
          "name": "denominator",
          "type": "uint256"
        }
      ],
      "name": "setFee",
      "outputs": [],
      "payable": false,
      "stateMutability": "nonpayable",
      "type": "function"
    },
    {
      "constant": true,
      "inputs": [
        {
          "name": "user",
          "type": "address"
        }
      ],
      "name": "getFeeRatio",
      "outputs": [
        {
          "name": "num",
          "type": "uint256"
        },
        {
          "name": "den",
          "type": "uint256"
        }
      ],
      "payable": false,
      "stateMutability": "view",
      "type": "function"
    }
  ],
  "bytecode": "0x60606040526001600055678ac7230489e80000600155341561002057600080fd5b604051602080610edd83398101604052808051915050600160a060020a038116151561004b57600080fd5b60048054600160a060020a031916600160a060020a0392909216919091179055610e638061007a6000396000f3006060604052600436106101245763ffffffff60e060020a60003504166314584a9d8114610129578063180b0d7e14610160578063339739d914610173578063377758071461019a5780633dc5dad0146101c957806347e7ef24146101dc57806352f7c988146101fe5780635e7f22c2146102175780636aca65e7146102425780637bf1a627146102555780638129015b146102845780639fec8e96146102a9578063b0293850146102d8578063b64c49051461031e578063b8beafd614610343578063c1a21bf314610368578063c23f001f14610397578063d5f64618146103bc578063da92937e146103e7578063e86dea4a1461040f578063edd0b5cb14610422578063f3fef3a314610441578063fcb3734414610463578063fdab1b7b14610488575b600080fd5b341561013457600080fd5b61014e600160a060020a03600435811690602435166104b0565b60405190815260200160405180910390f35b341561016b57600080fd5b61014e6104db565b341561017e57600080fd5b610198600160a060020a03600435811690602435166104e1565b005b34156101a557600080fd5b61014e600160a060020a036004358116906024358116906044359060643516610515565b34156101d457600080fd5b61014e610541565b34156101e757600080fd5b61014e600160a060020a0360043516602435610547565b341561020957600080fd5b61019860043560243561060f565b341561022257600080fd5b61014e600160a060020a036004358116906024351660443560643561061a565b341561024d57600080fd5b61014e6108c0565b341561026057600080fd5b6102686108c6565b604051600160a060020a03909116815260200160405180910390f35b341561028f57600080fd5b61014e600160a060020a03600435811690602435166108d5565b34156102b457600080fd5b61014e600160a060020a0360043581169060243581169060443590606435166108f2565b34156102e357600080fd5b610306600160a060020a036004358116906024358116906044351660643561091e565b60405191825260208201526040908101905180910390f35b341561032957600080fd5b61014e600160a060020a0360043581169060243516610b15565b341561034e57600080fd5b61014e600160a060020a0360043581169060243516610b32565b341561037357600080fd5b61014e600160a060020a036004358116906024358116906044359060643516610b4f565b34156103a257600080fd5b61014e600160a060020a0360043581169060243516610b7b565b34156103c757600080fd5b610198600160a060020a0360043581169060243516604435606435610b98565b34156103f257600080fd5b610198600160a060020a0360043581169060243516604435610c64565b341561041a57600080fd5b61014e610c90565b341561042d57600080fd5b610306600160a060020a0360043516610c96565b341561044c57600080fd5b61014e600160a060020a0360043516602435610ca1565b341561046e57600080fd5b61014e600160a060020a0360043581169060243516610dba565b341561049357600080fd5b610306600160a060020a0360043581169060243516604435610dd7565b600160a060020a03918216600090815260076020908152604080832093909416825291909152205490565b60035481565b60008054600181018255600160a060020a039384168252600760209081526040808420949095168352929092529190912055565b600b60209081526000948552604080862082529385528385208152918452828420909152825290205481565b60005481565b600082600160a060020a03166323b872dd33308560006040516020015260405160e060020a63ffffffff8616028152600160a060020a0393841660048201529190921660248201526044810191909152606401602060405180830381600087803b15156105b357600080fd5b6102c65a03f115156105c457600080fd5b5050506040518051905015156105d957600080fd5b50600160a060020a0391821660009081526009602090815260408083203390951683529390529190912080549091019081905590565b600291909155600355565b600160a060020a03808516600090815260056020908152604080832093871683529290529081205481908190819081908190819081901161065a57600080fd5b600160a060020a03808b166000908152600960209081526040808320339094168352929052205488111561068d57600080fd5b600160a060020a03808c166000818152600560209081526040808320948f168084529482528083205493835260068252808320948352939052919091205490965094506106db8b8b8b610dd7565b909450925084838786028115156106ee57fe5b0410156106fa57600080fd5b848385880281151561070857fe5b040391508188101561073157600088111561072c576107298a8c8b8b610e07565b90505b610737565b50955085805b60008811156108775787600960008c600160a060020a0316600160a060020a03168152602001908152602001600020600033600160a060020a0316600160a060020a031681526020019081526020016000206000828254039250508190555080600b60008d600160a060020a0316600160a060020a0316815260200190815260200160002060008c600160a060020a0316600160a060020a0316815260200190815260200160002060008b8152602001908152602001600020600033600160a060020a0316600160a060020a031681526020019081526020016000206000828254019250508190555080600660008d600160a060020a0316600160a060020a0316815260200190815260200160002060008c600160a060020a0316600160a060020a03168152602001908152602001600020600082825401925050819055505b600160a060020a03808c166000908152600b602090815260408083208e8516845282528083208d8452825280832033909416835292905220549650505050505050949350505050565b60015481565b600454600160a060020a031681565b600760209081526000928352604080842090915290825290205481565b600c60209081526000948552604080862082529385528385208152918452828420909152825290205481565b6000806000806000806109328a8a89610dd7565b8094508195505050600b60008b600160a060020a0316600160a060020a0316815260200190815260200160002060008a600160a060020a0316600160a060020a031681526020019081526020016000206000888152602001908152602001600020600089600160a060020a0316600160a060020a03168152602001908152602001600020549150600c60008b600160a060020a0316600160a060020a0316815260200190815260200160002060008a600160a060020a0316600160a060020a031681526020019081526020016000206000888152602001908152602001600020600089600160a060020a0316600160a060020a031681526020019081526020016000205484848402811515610a4357fe5b0403905080600c60008c600160a060020a0316600160a060020a0316815260200190815260200160002060008b600160a060020a0316600160a060020a03168152602001908152602001600020600089815260200190815260200160002060008a600160a060020a0316600160a060020a03168152602001908152602001600020600082825401925050819055506000811115610b0657600160a060020a03808b166000908152600960209081526040808320938c168352929052208054820190555b99939850929650505050505050565b600560209081526000928352604080842090915290825290205481565b600660209081526000928352604080842090915290825290205481565b600a60209081526000948552604080862082529385528385208152918452828420909152825290205481565b600960209081526000928352604080842090915290825290205481565b83600160a060020a03166323b872dd33308560006040516020015260405160e060020a63ffffffff8616028152600160a060020a0393841660048201529190921660248201526044810191909152606401602060405180830381600087803b1515610c0257600080fd5b6102c65a03f11515610c1357600080fd5b505050604051805190501515610c2857600080fd5b600160a060020a038085166000908152600560209081526040808320938716835292905220805483019055610c5e848483610c64565b50505050565b600160a060020a0392831660009081526008602090815260408083209490951682529290925291902055565b60025481565b600254600354915091565b600160a060020a0380831660009081526009602090815260408083203390941683529290529081205480831115610cd757600080fd5b60008311610ce457600080fd5b600160a060020a03808516600081815260096020908152604080832033958616845290915280822080548890039055919263a9059cbb9290918791516020015260405160e060020a63ffffffff8516028152600160a060020a0390921660048301526024820152604401602060405180830381600087803b1515610d6757600080fd5b6102c65a03f11515610d7857600080fd5b505050604051805190501515610d8d57600080fd5b505050600160a060020a039081166000908152600960209081526040808320339094168352929052205490565b600860209081526000928352604080842090915290825290205481565b50600160a060020a0391821660009081526008602090815260408083209390941682529190915220546001549091565b600080600080610e1633610c96565b909350915081858402811515610e2857fe5b049094039796505050505050505600a165627a7a72305820fb31a6adb28cba7a004f6a334d45619321fa9c8f08dcfc998f0cf5c12b490a8f0029",
  "source": "pragma solidity 0.4.18;\n\n\nimport \"../../ERC20Interface.sol\";\n\n\ncontract MockDutchX {\n\n    uint public auctionIndexCounter = 1; //counter\n    uint public mutualDenominator = 10 ** 19;\n    uint public feeNumerator;\n    uint public feeDenominator;\n    address public ethToken;\n\n    // Token => Token => amount\n    mapping (address => mapping (address => uint)) public sellVolumesCurrent;\n    // Token => Token => amount\n    mapping (address => mapping (address => uint)) public buyVolumes;\n    mapping (address => mapping (address => uint)) public tokenAuctionIndex;\n    mapping (address => mapping (address => uint)) public tokenAuctionNumerator;\n\n    // Token => user => amount\n    // balances stores a user's balance in the DutchX\n    mapping (address => mapping (address => uint)) public balances;\n\n    // Token => Token =>  auctionIndex => user => amount\n    mapping (address => mapping (address => mapping (uint => mapping (address => uint)))) public sellerBalances;\n    mapping (address => mapping (address => mapping (uint => mapping (address => uint)))) public buyerBalances;\n    mapping (address => mapping (address => mapping (uint => mapping (address => uint)))) public claimedAmounts;\n\n    function MockDutchX(address _ethToken) public {\n        require(_ethToken != address(0));\n        ethToken = _ethToken;\n    }\n\n    function startNewAuctionIndex(address sellToken, address buyToken) public {\n        tokenAuctionIndex[sellToken][buyToken] = auctionIndexCounter++;\n    }\n\n    function addSellFundsToAuction(address sellToken, address buyToken, uint amount, uint numerator) public {\n        require(ERC20(sellToken).transferFrom(msg.sender, this, amount));\n        sellVolumesCurrent[sellToken][buyToken] += amount;\n        setNewAuctionNumerator(sellToken, buyToken, numerator);\n    }\n\n    function setNewAuctionNumerator(address sellToken, address buyToken, uint numerator) public {\n        tokenAuctionNumerator[sellToken][buyToken] = numerator;\n    }\n\n    function getCurrentAuctionPrice(address sellToken, address buyToken, uint auctionIndex) public view\n        returns(uint num, uint den)\n    {\n        auctionIndex;\n        num = tokenAuctionNumerator[sellToken][buyToken];\n        den = mutualDenominator;\n    }\n\n    function deposit(\n        address tokenAddress,\n        uint amount\n    )\n        public\n        returns (uint)\n    {\n        require(ERC20(tokenAddress).transferFrom(msg.sender, this, amount));\n        balances[tokenAddress][msg.sender] += amount;\n        return balances[tokenAddress][msg.sender];\n    }\n\n    function getAuctionIndex(address sellToken, address buyToken) public view returns(uint index){\n        index = tokenAuctionIndex[sellToken][buyToken];\n    }\n\n    function postBuyOrder(\n        address sellToken,\n        address buyToken,\n        uint auctionIndex,\n        uint amount\n    )\n        public\n        returns (uint)\n    {\n        // R6: auction must be funded\n        require(sellVolumesCurrent[sellToken][buyToken] > 0);\n        require(amount <= balances[buyToken][msg.sender]);\n\n        uint sellVolume = sellVolumesCurrent[sellToken][buyToken];\n        uint buyVolume = buyVolumes[sellToken][buyToken];\n\n        uint num;\n        uint den;\n        (num, den) = getCurrentAuctionPrice(sellToken, buyToken, auctionIndex);\n        // 10^30 * 10^37 = 10^67\n        require((sellVolume * num) / den >= buyVolume);\n        uint outstandingVolume = (sellVolume * num) / den - buyVolume;\n\n        uint amountAfterFee;\n        if (amount < outstandingVolume) {\n            if (amount > 0) {\n                amountAfterFee = settleFee(buyToken, sellToken, auctionIndex, amount);\n            }\n        } else {\n            amount = outstandingVolume;\n            amountAfterFee = outstandingVolume;\n        }\n\n        // Here we could also use outstandingVolume or amountAfterFee, it doesn't matter\n        if (amount > 0) {\n            // Update variables\n            balances[buyToken][msg.sender] -= amount;\n            buyerBalances[sellToken][buyToken][auctionIndex][msg.sender] += amountAfterFee;\n            buyVolumes[sellToken][buyToken] += amountAfterFee;\n        }\n\n        return buyerBalances[sellToken][buyToken][auctionIndex][msg.sender];\n    }\n\n    function claimBuyerFunds(\n        address sellToken,\n        address buyToken,\n        address user,\n        uint auctionIndex\n    )\n        public\n        returns (uint returned, uint frtsIssued)\n    {\n        uint num;\n        uint den;\n        (num, den) = getCurrentAuctionPrice(sellToken, buyToken, auctionIndex);\n\n        uint buyerBalance = buyerBalances[sellToken][buyToken][auctionIndex][user];\n        // < 10^30 * 10^37 = 10^67\n        uint unclaimedBuyerFunds = (buyerBalance * den) / num - claimedAmounts[sellToken][buyToken][auctionIndex][user];\n\n        claimedAmounts[sellToken][buyToken][auctionIndex][user] += unclaimedBuyerFunds;\n\n        // Claim tokens\n        if (unclaimedBuyerFunds > 0) {\n            balances[sellToken][user] += unclaimedBuyerFunds;\n        }\n\n        frtsIssued;\n        returned = unclaimedBuyerFunds;\n    }\n\n    function withdraw(\n        address tokenAddress,\n        uint amount\n    )\n        public\n        returns (uint)\n    {\n        uint usersBalance = balances[tokenAddress][msg.sender];\n        require(amount <= usersBalance);\n        require(amount > 0);\n        balances[tokenAddress][msg.sender] -= amount;\n\n        require(ERC20(tokenAddress).transfer(msg.sender, amount));\n        return balances[tokenAddress][msg.sender];\n    }\n\n    function setFee(uint numerator, uint denominator) public {\n        feeNumerator = numerator;\n        feeDenominator = denominator;\n    }\n\n    // feeRatio < 10^4\n    function getFeeRatio(address user) public view returns (uint num, uint den) {\n        user;\n        return (feeNumerator, feeDenominator);\n    }\n\n    function settleFee(\n        address primaryToken,\n        address secondaryToken,\n        uint auctionIndex,\n        uint amount\n    )\n        internal\n        view\n            // < 10^30\n        returns (uint amountAfterFee)\n    {\n        primaryToken;\n        secondaryToken;\n        auctionIndex;\n\n        uint feeNum;\n        uint feeDen;\n        (feeNum, feeDen) = getFeeRatio(msg.sender);\n        // 10^30 * 10^3 / 10^4 = 10^29\n        uint fee = (amount * feeNum) / feeDen;\n\n        amountAfterFee = amount - fee;\n    }\n}\n",
  "sourcePath": "/home/node/app/workshop-master/contracts/dutchX/mock/MockDutchX.sol",
  "compiler": {
    "name": "solc",
    "version": "0.4.18+commit.9cf6e910.Emscripten.clang"
  },
  "schemaVersion": "3.0.16",
  "updatedAt": "2019-10-11T14:32:49.224Z",
  "devdoc": {
    "methods": {}
  },
  "userdoc": {
    "methods": {}
  }
}