{
  "contractName": "MockUniswapFactory",
  "abi": [
    {
      "constant": true,
      "inputs": [],
      "name": "tokenToEth",
      "outputs": [
        {
          "name": "eth",
          "type": "uint256"
        },
        {
          "name": "token",
          "type": "uint256"
        }
      ],
      "payable": false,
      "stateMutability": "view",
      "type": "function"
    },
    {
      "constant": true,
      "inputs": [],
      "name": "ethToToken",
      "outputs": [
        {
          "name": "eth",
          "type": "uint256"
        },
        {
          "name": "token",
          "type": "uint256"
        }
      ],
      "payable": false,
      "stateMutability": "view",
      "type": "function"
    },
    {
      "constant": true,
      "inputs": [],
      "name": "token",
      "outputs": [
        {
          "name": "",
          "type": "address"
        }
      ],
      "payable": false,
      "stateMutability": "view",
      "type": "function"
    },
    {
      "payable": true,
      "stateMutability": "payable",
      "type": "fallback"
    },
    {
      "constant": true,
      "inputs": [
        {
          "name": "ethWei",
          "type": "uint256"
        }
      ],
      "name": "getEthToTokenInputPrice",
      "outputs": [
        {
          "name": "tokens_bought",
          "type": "uint256"
        }
      ],
      "payable": false,
      "stateMutability": "view",
      "type": "function"
    },
    {
      "constant": true,
      "inputs": [
        {
          "name": "tokens_sold",
          "type": "uint256"
        }
      ],
      "name": "getTokenToEthInputPrice",
      "outputs": [
        {
          "name": "eth_bought",
          "type": "uint256"
        }
      ],
      "payable": false,
      "stateMutability": "view",
      "type": "function"
    },
    {
      "constant": true,
      "inputs": [
        {
          "name": "_token",
          "type": "address"
        }
      ],
      "name": "getExchange",
      "outputs": [
        {
          "name": "exchange",
          "type": "address"
        }
      ],
      "payable": false,
      "stateMutability": "view",
      "type": "function"
    },
    {
      "constant": true,
      "inputs": [
        {
          "name": "_token",
          "type": "address"
        }
      ],
      "name": "createExchange",
      "outputs": [
        {
          "name": "exchange",
          "type": "address"
        }
      ],
      "payable": false,
      "stateMutability": "view",
      "type": "function"
    },
    {
      "constant": false,
      "inputs": [
        {
          "name": "min_tokens",
          "type": "uint256"
        },
        {
          "name": "deadline",
          "type": "uint256"
        }
      ],
      "name": "ethToTokenSwapInput",
      "outputs": [
        {
          "name": "tokens_bought",
          "type": "uint256"
        }
      ],
      "payable": true,
      "stateMutability": "payable",
      "type": "function"
    },
    {
      "constant": false,
      "inputs": [
        {
          "name": "tokens_sold",
          "type": "uint256"
        },
        {
          "name": "min_eth",
          "type": "uint256"
        },
        {
          "name": "deadline",
          "type": "uint256"
        }
      ],
      "name": "tokenToEthSwapInput",
      "outputs": [
        {
          "name": "eth_bought",
          "type": "uint256"
        }
      ],
      "payable": false,
      "stateMutability": "nonpayable",
      "type": "function"
    },
    {
      "constant": false,
      "inputs": [
        {
          "name": "eth",
          "type": "uint256"
        },
        {
          "name": "_token",
          "type": "uint256"
        }
      ],
      "name": "setRateEthToToken",
      "outputs": [],
      "payable": false,
      "stateMutability": "nonpayable",
      "type": "function"
    },
    {
      "constant": false,
      "inputs": [
        {
          "name": "eth",
          "type": "uint256"
        },
        {
          "name": "_token",
          "type": "uint256"
        }
      ],
      "name": "setRateTokenToEth",
      "outputs": [],
      "payable": false,
      "stateMutability": "nonpayable",
      "type": "function"
    },
    {
      "constant": false,
      "inputs": [
        {
          "name": "_token",
          "type": "address"
        }
      ],
      "name": "setToken",
      "outputs": [],
      "payable": false,
      "stateMutability": "nonpayable",
      "type": "function"
    }
  ],
  "bytecode": "0x6060604052341561000f57600080fd5b6104768061001e6000396000f3006060604052600436106100a05763ffffffff60e060020a60003504166306f2bf6281146100a25780630707a106146100dd578063144fa6d7146100f65780631648f38e146100a25780633a68e4e9146101155780635c5af0001461012e578063789770f41461015957806395b68fe71461016c57806395e3c50b14610194578063cd7724c3146101b0578063f39b5b9b146101c6578063fc0c546a146101d4575b005b34156100ad57600080fd5b6100c1600160a060020a03600435166101e7565b604051600160a060020a03909116815260200160405180910390f35b34156100e857600080fd5b6100a06004356024356101ec565b341561010157600080fd5b6100a0600160a060020a0360043516610216565b341561012057600080fd5b6100a0600435602435610245565b341561013957600080fd5b61014161026f565b60405191825260208201526040908101905180910390f35b341561016457600080fd5b610141610278565b341561017757600080fd5b610182600435610281565b60405190815260200160405180910390f35b341561019f57600080fd5b61018260043560243560443561029d565b34156101bb57600080fd5b610182600435610382565b610182600435602435610394565b34156101df57600080fd5b6100c161043b565b503090565b60408051908101604052828152602081018290526000815181556020820151600190910155505050565b6004805473ffffffffffffffffffffffffffffffffffffffff1916600160a060020a0392909216919091179055565b60408051908101604052828152602081018290526002815181556020820151600190910155505050565b60025460035482565b60005460015482565b60035460025460009190830281151561029657fe5b0492915050565b6000804283116102ac57600080fd5b600454600160a060020a03166323b872dd33308860006040516020015260405160e060020a63ffffffff8616028152600160a060020a0393841660048201529190921660248201526044810191909152606401602060405180830381600087803b151561031857600080fd5b6102c65a03f1151561032957600080fd5b50505060405180519050151561033e57600080fd5b61034785610281565b9050600160a060020a03331681156108fc0282604051600060405180830381858888f19350505050151561037a57600080fd5b949350505050565b60008054600154830281151561029657fe5b6000804283116103a357600080fd5b6103ac34610382565b600454909150600160a060020a031663a9059cbb338360006040516020015260405160e060020a63ffffffff8516028152600160a060020a0390921660048301526024820152604401602060405180830381600087803b151561040e57600080fd5b6102c65a03f1151561041f57600080fd5b50505060405180519050151561043457600080fd5b9392505050565b600454600160a060020a0316815600a165627a7a723058200146adec5f508127c3bb0990813ec8cd64632df23880b717b75a98ca24c9d32f0029",
  "source": "pragma solidity 0.4.18;\n\nimport \"../../ERC20Interface.sol\";\n\n\ninterface MockUniswapExchange {\n    function ethToTokenSwapInput(\n        uint256 min_tokens,\n        uint256 deadline\n    )\n        external\n        payable\n        returns (uint256  tokens_bought);\n\n    function tokenToEthSwapInput(\n        uint256 tokens_sold,\n        uint256 min_eth,\n        uint256 deadline\n    )\n        external\n        returns (uint256  eth_bought);\n\n    function getEthToTokenInputPrice(\n        uint256 eth_sold\n    )\n        public\n        view\n        returns (uint256 tokens_bought);\n\n    function getTokenToEthInputPrice(\n        uint256 tokens_sold\n    )\n        public\n        view\n        returns (uint256 eth_bought);\n}\n\n\ncontract MockUniswapFactory is MockUniswapExchange {\n    struct Factors {\n        uint eth;\n        uint token;\n    }\n\n    Factors public ethToToken;\n    Factors public tokenToEth;\n\n    ERC20 public token;\n\n    function() public payable {\n        // anyone can deposit ether\n    }\n\n    function getEthToTokenInputPrice(\n        uint256 ethWei\n    )\n        public\n        view\n        returns (uint256 tokens_bought)\n    {\n        return ethWei * ethToToken.token / ethToToken.eth;\n    }\n\n    function getTokenToEthInputPrice(\n        uint256 tokens_sold\n    )\n        public\n        view\n        returns (uint256 eth_bought)\n    {\n        return tokens_sold * tokenToEth.eth / tokenToEth.token;\n    }\n\n    function getExchange(\n        address _token\n    )\n        external\n        view\n        returns (address exchange)\n    {\n        _token;  // eliminating unused variable warning\n\n        return address(this);\n    }\n\n    function createExchange(\n        address _token\n    )\n        external\n        view\n        returns(address exchange)\n    {\n        _token;  // eliminating unused variable warning\n\n        return address(this);\n    }\n\n    function ethToTokenSwapInput(\n        uint256 min_tokens,\n        uint256 deadline\n    )\n        external\n        payable\n        returns (uint256  tokens_bought)\n    {\n        min_tokens;  // eliminating unused variable warning\n\n        require(deadline > block.timestamp);\n\n        uint amount = getEthToTokenInputPrice(msg.value);\n        require(token.transfer(msg.sender, amount));\n        return amount;\n    }\n\n    function tokenToEthSwapInput(\n        uint256 tokens_sold,\n        uint256 min_eth,\n        uint256 deadline\n    )\n        external\n        returns (uint256  eth_bought)\n    {\n        min_eth;  // eliminating unused variable warning\n\n        require(deadline > block.timestamp);\n\n        require(token.transferFrom(msg.sender, address(this), tokens_sold));\n        uint amount = getTokenToEthInputPrice(tokens_sold);\n        msg.sender.transfer(amount);\n        return amount;\n    }\n\n    function setRateEthToToken(\n        uint eth,\n        uint _token\n    )\n        public\n    {\n        ethToToken = Factors(eth, _token);\n    }\n\n    function setRateTokenToEth(\n        uint eth,\n        uint _token\n    )\n        public\n    {\n        tokenToEth = Factors(eth, _token);\n    }\n\n    function setToken(ERC20 _token)\n        public\n    {\n        token = _token;\n    }\n}\n",
  "sourcePath": "/home/node/app/workshop-master/contracts/uniswap/forTesting/MockUniswapFactory.sol",
  "compiler": {
    "name": "solc",
    "version": "0.4.18+commit.9cf6e910.Emscripten.clang"
  },
  "schemaVersion": "3.0.16",
  "updatedAt": "2019-10-11T14:32:49.910Z",
  "devdoc": {
    "methods": {}
  },
  "userdoc": {
    "methods": {}
  }
}