{
  "contractName": "MockMedianizer",
  "abi": [
    {
      "inputs": [
        {
          "name": "_val",
          "type": "uint256"
        }
      ],
      "payable": false,
      "stateMutability": "nonpayable",
      "type": "constructor"
    },
    {
      "constant": true,
      "inputs": [],
      "name": "peek",
      "outputs": [
        {
          "name": "",
          "type": "bytes32"
        },
        {
          "name": "",
          "type": "bool"
        }
      ],
      "payable": false,
      "stateMutability": "view",
      "type": "function"
    }
  ],
  "bytecode": "0x60606040526000805460ff19166001179055341561001c57600080fd5b6040516020806100e883398101604052808051600155505060a6806100426000396000f300606060405260043610603e5763ffffffff7c010000000000000000000000000000000000000000000000000000000060003504166359e02dd781146043575b600080fd5b3415604d57600080fd5b6053606d565b604051918252151560208201526040908101905180910390f35b60015460005460ff1690915600a165627a7a723058205ad1ffd907c73fe8189d7e2e2a6342149c4862f6d0e2c0a8e7b408061cd90b970029",
  "source": "pragma solidity 0.4.18;\n\n\ncontract MockMedianizer {\n\n    bool has = true;\n    uint val;\n\n    function MockMedianizer(uint _val) public {\n        val = _val;\n    }\n\n    function peek() public view returns (bytes32, bool) {\n        return(bytes32(val), has);\n    }\n}\n",
  "sourcePath": "/home/node/app/workshop-master/contracts/mockContracts/MockMedianizer.sol",
  "compiler": {
    "name": "solc",
    "version": "0.4.18+commit.9cf6e910.Emscripten.clang"
  },
  "schemaVersion": "3.0.16",
  "updatedAt": "2019-10-11T14:32:49.273Z",
  "devdoc": {
    "methods": {}
  },
  "userdoc": {
    "methods": {}
  }
}