{
  "contractName": "MyContract",
  "abi": [
    {
      "constant": true,
      "inputs": [],
      "name": "kyberNetworkProxyContract",
      "outputs": [
        {
          "name": "",
          "type": "address"
        }
      ],
      "payable": false,
      "stateMutability": "view",
      "type": "function"
    },
    {
      "inputs": [
        {
          "name": "_kyberNetworkProxyContract",
          "type": "address"
        }
      ],
      "payable": false,
      "stateMutability": "nonpayable",
      "type": "constructor"
    },
    {
      "anonymous": false,
      "inputs": [
        {
          "indexed": true,
          "name": "sender",
          "type": "address"
        },
        {
          "indexed": false,
          "name": "srcToken",
          "type": "address"
        },
        {
          "indexed": false,
          "name": "destToken",
          "type": "address"
        }
      ],
      "name": "Swap",
      "type": "event"
    },
    {
      "anonymous": false,
      "inputs": [
        {
          "indexed": true,
          "name": "sender",
          "type": "address"
        },
        {
          "indexed": false,
          "name": "destToken",
          "type": "address"
        },
        {
          "indexed": false,
          "name": "amount",
          "type": "uint256"
        }
      ],
      "name": "Swap2",
      "type": "event"
    },
    {
      "constant": true,
      "inputs": [
        {
          "name": "srcToken",
          "type": "address"
        },
        {
          "name": "srcQty",
          "type": "uint256"
        },
        {
          "name": "destToken",
          "type": "address"
        }
      ],
      "name": "getConversionRates",
      "outputs": [
        {
          "name": "",
          "type": "uint256"
        },
        {
          "name": "",
          "type": "uint256"
        }
      ],
      "payable": false,
      "stateMutability": "view",
      "type": "function"
    },
    {
      "constant": false,
      "inputs": [
        {
          "name": "srcToken",
          "type": "address"
        },
        {
          "name": "srcQty",
          "type": "uint256"
        },
        {
          "name": "destToken",
          "type": "address"
        },
        {
          "name": "destAddress",
          "type": "address"
        },
        {
          "name": "maxDestAmount",
          "type": "uint256"
        }
      ],
      "name": "executeSwap",
      "outputs": [],
      "payable": false,
      "stateMutability": "nonpayable",
      "type": "function"
    },
    {
      "constant": false,
      "inputs": [
        {
          "name": "token",
          "type": "address"
        },
        {
          "name": "destAddress",
          "type": "address"
        }
      ],
      "name": "execSwap",
      "outputs": [],
      "payable": true,
      "stateMutability": "payable",
      "type": "function"
    }
  ],
  "bytecode": "0x6060604052341561000f57600080fd5b6040516020806107738339810160405280805160008054600160a060020a03909216600160a060020a0319909216919091179055505061071f806100546000396000f3006060604052600436106100485763ffffffff60e060020a6000350416630aea8188811461004d5780635eab968d1461008e578063685b2bcc146100aa578063785250da146100dc575b600080fd5b341561005857600080fd5b610076600160a060020a03600435811690602435906044351661010b565b60405191825260208201526040908101905180910390f35b6100a8600160a060020a03600435811690602435166101a5565b005b34156100b557600080fd5b6100a8600160a060020a0360043581169060243590604435811690606435166084356103a3565b34156100e757600080fd5b6100ef6106e4565b604051600160a060020a03909116815260200160405180910390f35b600080548190600160a060020a031663809a9e55868587856040516040015260405160e060020a63ffffffff8616028152600160a060020a03938416600482015291909216602482015260448101919091526064016040805180830381600087803b151561017857600080fd5b6102c65a03f1151561018957600080fd5b5050506040518051906020018051905091509150935093915050565b600080548190600160a060020a031663809a9e5573eeeeeeeeeeeeeeeeeeeeeeeeeeeeeeeeeeeeeeee8634856040516040015260405160e060020a63ffffffff8616028152600160a060020a03938416600482015291909216602482015260448101919091526064016040805180830381600087803b151561022657600080fd5b6102c65a03f1151561023757600080fd5b5050506040518051906020018051505060008054919350600160a060020a0390911690637a2a0456903490879086906040516020015260405160e060020a63ffffffff8616028152600160a060020a03909216600483015260248201526044016020604051808303818588803b15156102af57600080fd5b6125ee5a03f115156102c057600080fd5b505050506040518051915050600160a060020a03841663a9059cbb848360006040516020015260405160e060020a63ffffffff8516028152600160a060020a0390921660048301526024820152604401602060405180830381600087803b151561032957600080fd5b6102c65a03f1151561033a57600080fd5b50505060405180519050151561034f57600080fd5b33600160a060020a03167f7a5570e7c820722c27185a079e2263460c54417c2c5ce3878b55ba57202d84618583604051600160a060020a03909216825260208201526040908101905180910390a250505050565b600085600160a060020a03166323b872dd33308860006040516020015260405160e060020a63ffffffff8616028152600160a060020a0393841660048201529190921660248201526044810191909152606401602060405180830381600087803b151561040f57600080fd5b6102c65a03f1151561042057600080fd5b50505060405180519050151561043557600080fd5b60008054600160a060020a038089169263095ea7b39290911690806040516020015260405160e060020a63ffffffff8516028152600160a060020a0390921660048301526024820152604401602060405180830381600087803b151561049a57600080fd5b6102c65a03f115156104ab57600080fd5b5050506040518051905015156104c057600080fd5b60008054600160a060020a038089169263095ea7b3929091169088906040516020015260405160e060020a63ffffffff8516028152600160a060020a0390921660048301526024820152604401602060405180830381600087803b151561052657600080fd5b6102c65a03f1151561053757600080fd5b50505060405180519050151561054c57600080fd5b60008054600160a060020a03169063809a9e55908890879089906040516040015260405160e060020a63ffffffff8616028152600160a060020a03938416600482015291909216602482015260448101919091526064016040805180830381600087803b15156105bb57600080fd5b6102c65a03f115156105cc57600080fd5b5050506040518051906020018051505060008054919250600160a060020a039091169063cb3c28c790889088908890889088908890806040516020015260405160e060020a63ffffffff8a16028152600160a060020a039788166004820152602481019690965293861660448601529185166064850152608484015260a483015290911660c482015260e401602060405180830381600087803b151561067157600080fd5b6102c65a03f1151561068257600080fd5b50505060405180515050600160a060020a0333167f11f4b7a3b533a03660188385e81861fb044615f4dafe593932037df7b7836ecd8786604051600160a060020a039283168152911660208201526040908101905180910390a2505050505050565b600054600160a060020a0316815600a165627a7a72305820461517480c3cefca4b357b2081ba897500bd12cfe0e5496a1ae0083165aceca30029",
  "source": "pragma solidity ^0.4.18;\n\nimport \"./ERC20Interface.sol\";\nimport \"./KyberNetworkProxy.sol\";\n\ncontract MyContract {\n    // Variables\n    KyberNetworkProxy public kyberNetworkProxyContract;\n    ERC20 constant internal ETH_TOKEN_ADDRESS = ERC20(0x00eeeeeeeeeeeeeeeeeeeeeeeeeeeeeeeeeeeeeeee);\n\n    // Events\n    event Swap(address indexed sender, ERC20 srcToken, ERC20 destToken);\n    event Swap2(address indexed sender, ERC20 destToken, uint amount);\n\n\n\n    // Functions\n    /**\n     * @dev Contract constructor\n     * @param _kyberNetworkProxyContract KyberNetworkProxy contract address\n     */\n    function MyContract(\n        KyberNetworkProxy _kyberNetworkProxyContract\n    ) public {\n        kyberNetworkProxyContract = _kyberNetworkProxyContract;\n    }\n\n    /**\n     * @dev Gets the conversion rate for the destToken given the srcQty.\n     * @param srcToken source token contract address\n     * @param srcQty amount of source tokens\n     * @param destToken destination token contract address\n     */\n    function getConversionRates(\n        ERC20 srcToken,\n        uint srcQty,\n        ERC20 destToken\n    ) public\n      view\n      returns (uint, uint)\n    {\n      return kyberNetworkProxyContract.getExpectedRate(srcToken, destToken, srcQty);\n\n    }\n\n    /**\n     * @dev Swap the user's ERC20 token to another ERC20 token/ETH\n     * @param srcToken source token contract address\n     * @param srcQty amount of source tokens\n     * @param destToken destination token contract address\n     * @param destAddress address to send swapped tokens to\n     * @param maxDestAmount address to send swapped tokens to\n     */\n    function executeSwap(\n        ERC20 srcToken,\n        uint srcQty,\n        ERC20 destToken,\n        address destAddress,\n        uint maxDestAmount\n    ) public {\n        uint minConversionRate;\n\n        // Check that the token transferFrom has succeeded\n        require(srcToken.transferFrom(msg.sender, address(this), srcQty));\n\n        // Mitigate ERC20 Approve front-running attack, by initially setting\n        // allowance to 0\n        require(srcToken.approve(address(kyberNetworkProxyContract), 0));\n\n        // Set the spender's token allowance to tokenQty\n        require(srcToken.approve(address(kyberNetworkProxyContract), srcQty));\n\n        // Get the minimum conversion rate\n        (minConversionRate,) = kyberNetworkProxyContract.getExpectedRate(srcToken, destToken, srcQty);\n\n        // Swap the ERC20 token and send to destAddress\n        kyberNetworkProxyContract.trade(\n            srcToken,\n            srcQty,\n            destToken,\n            destAddress,\n            maxDestAmount,\n            minConversionRate,\n            0 //walletId for fee sharing program\n        );\n\n        // Log the event\n        Swap(msg.sender, srcToken, destToken);\n    }\n    \n\n    //@dev Swap the user's ETH to ERC20 token\n    //@param token destination token contract address\n    //@param destAddress address to send swapped tokens to\n    function execSwap(ERC20 token, address destAddress) public payable {\n        uint minConversionRate;\n\n        // Get the minimum conversion rate\n        (minConversionRate,) = kyberNetworkProxyContract.getExpectedRate(ETH_TOKEN_ADDRESS, token, msg.value);\n\n        // Swap the ETH to ERC20 token\n        uint destAmount = kyberNetworkProxyContract.swapEtherToToken.value(msg.value)(token, minConversionRate);\n\n        // Send the swapped tokens to the destination address\n        require(token.transfer(destAddress, destAmount));\n\n        // Log the event\n        Swap2(msg.sender, token, destAmount);\n    }\n}",
  "sourcePath": "/home/node/app/workshop-master/contracts/ETH2TOKEN_using_kyber.sol",
  "compiler": {
    "name": "solc",
    "version": "0.4.18+commit.9cf6e910.Emscripten.clang"
  },
  "schemaVersion": "3.0.16",
  "updatedAt": "2019-10-11T14:32:48.412Z",
  "devdoc": {
    "methods": {
      "executeSwap(address,uint256,address,address,uint256)": {
        "details": "Swap the user's ERC20 token to another ERC20 token/ETH",
        "params": {
          "destAddress": "address to send swapped tokens to",
          "destToken": "destination token contract address",
          "maxDestAmount": "address to send swapped tokens to",
          "srcQty": "amount of source tokens",
          "srcToken": "source token contract address"
        }
      },
      "getConversionRates(address,uint256,address)": {
        "details": "Gets the conversion rate for the destToken given the srcQty.",
        "params": {
          "destToken": "destination token contract address",
          "srcQty": "amount of source tokens",
          "srcToken": "source token contract address"
        }
      }
    }
  },
  "userdoc": {
    "methods": {}
  }
}