{
  "contractName": "OrderListFactory",
  "abi": [
    {
      "constant": false,
      "inputs": [
        {
          "name": "admin",
          "type": "address"
        }
      ],
      "name": "newOrdersContract",
      "outputs": [
        {
          "name": "",
          "type": "address"
        }
      ],
      "payable": false,
      "stateMutability": "nonpayable",
      "type": "function"
    }
  ],
  "bytecode": "0x6060604052341561000f57600080fd5b611abe8061001e6000396000f3006060604052600436106100405763ffffffff7c0100000000000000000000000000000000000000000000000000000000600035041663fccf6e678114610045575b600080fd5b341561005057600080fd5b61007173ffffffffffffffffffffffffffffffffffffffff6004351661009a565b60405173ffffffffffffffffffffffffffffffffffffffff909116815260200160405180910390f35b600080826100a66100e0565b73ffffffffffffffffffffffffffffffffffffffff9091168152602001604051809103906000f08015156100d957600080fd5b9392505050565b6040516119a2806100f183390190560060606040526007805463ffffffff19166003179055341561001f57600080fd5b6040516020806119a28339810160405280805160008054600160a060020a03191633600160a060020a039081169190911790915590925082161515905061006557600080fd5b60008054600160a060020a03909216600160a060020a03199092169190911781556002815260066020527f8819ef417987f8ae7a81f42cdfb18815282fe989326fbff903d13cf0e03ace2980547fffffffff000000000000000000000000000000000000000000000000000000001678010000000000000000000000000000000000000000000000001790557f8819ef417987f8ae7a81f42cdfb18815282fe989326fbff903d13cf0e03ace2a55611880806101226000396000f3006060604052600436106101685763ffffffff7c0100000000000000000000000000000000000000000000000000000000600035041662d84fd8811461016d57806301a12fd31461019d5780631f38c358146101be578063244c96a1146101f3578063267822471461023657806327a099d814610265578063374ab1c6146102cb578063408ee7fe146102de57806361592b85146102fd578063689f15321461036757806375829def146103d157806377f50f97146103f05780637acc8678146104035780637c423f541461042257806385fcb4a8146104355780639870d7fe1461045a578063a3fb591714610479578063a590529e146104ad578063a5da0bf5146104fe578063ac8a584a14610541578063b39c471814610560578063b7b2c52514610573578063c41c6d5614610586578063c70ad4a314610599578063c92ba8b2146105ac578063cb2f7b87146105e6578063d11dfdec14610614578063f851a44014610627575b600080fd5b341561017857600080fd5b61018963ffffffff6004351661063a565b604051901515815260200160405180910390f35b34156101a857600080fd5b6101bc600160a060020a0360043516610725565b005b34156101c957600080fd5b6101da63ffffffff60043516610895565b60405163ffffffff909116815260200160405180910390f35b34156101fe57600080fd5b6102246001608060020a03600435811690602435811690604435811690606435166108f3565b60405190815260200160405180910390f35b341561024157600080fd5b610249610947565b604051600160a060020a03909116815260200160405180910390f35b341561027057600080fd5b610278610956565b60405160208082528190810183818151815260200191508051906020019060200280838360005b838110156102b757808201518382015260200161029f565b505050509050019250505060405180910390f35b34156102d657600080fd5b6102246109bf565b34156102e957600080fd5b6101bc600160a060020a03600435166109c4565b341561030857600080fd5b61031963ffffffff60043516610ac0565b604051600160a060020a0390951685526001608060020a0393841660208601529190921660408085019190915263ffffffff92831660608501529116608083015260a0909101905180910390f35b341561037257600080fd5b61038363ffffffff60043516610b15565b604051600160a060020a03909516855263ffffffff9384166020860152919092166040808501919091526001608060020a0392831660608501529116608083015260a0909101905180910390f35b34156103dc57600080fd5b6101bc600160a060020a0360043516610b66565b34156103fb57600080fd5b6101bc610c01565b341561040e57600080fd5b6101bc600160a060020a0360043516610c9b565b341561042d57600080fd5b610278610d7d565b341561044057600080fd5b6101da6001608060020a0360043581169060243516610de3565b341561046557600080fd5b6101bc600160a060020a0360043516610ea4565b341561048457600080fd5b61048c610f74565b60405163ffffffff9092168252151560208201526040908101905180910390f35b34156104b857600080fd5b6104e463ffffffff6004358116906001608060020a036024358116916044359091169060643516610fb5565b604051911515825260208201526040908101905180910390f35b341561050957600080fd5b610189600160a060020a036004351663ffffffff6024358116906001608060020a03604435811691606435909116906084351661117b565b341561054c57600080fd5b6101bc600160a060020a03600435166111ee565b341561056b57600080fd5b6101da61135a565b341561057e57600080fd5b6101da611366565b341561059157600080fd5b610224611366565b34156105a457600080fd5b61022461136b565b34156105b757600080fd5b610189600160a060020a036004351663ffffffff602435166001608060020a0360443581169060643516611370565b34156105f157600080fd5b61018963ffffffff600435166001608060020a03602435811690604435166113eb565b341561061f57600080fd5b6101da6109bf565b341561063257600080fd5b61024961145f565b60008054819033600160a060020a0390811691161461065857600080fd5b6106618361146e565b505063ffffffff908116600090815260066020526040808220805460a060020a8082048616855283852080547bffffffff0000000000000000000000000000000000000000000000001990811660c060020a94859004891685021790915583549283048716865293909420805477ffffffff0000000000000000000000000000000000000000199081169286900490961685029190911790558054909316909117167802000000000000000000000000000000000000000000000000179055600190565b6000805433600160a060020a0390811691161461074157600080fd5b600160a060020a03821660009081526003602052604090205460ff16151561076857600080fd5b50600160a060020a0381166000908152600360205260408120805460ff191690555b6005548110156108915781600160a060020a03166005828154811015156107ad57fe5b600091825260209091200154600160a060020a03161415610889576005805460001981019081106107da57fe5b60009182526020909120015460058054600160a060020a03909216918390811061080057fe5b60009182526020909120018054600160a060020a031916600160a060020a0392909216919091179055600580549061083c9060001983016117fb565b507f5611bf3e417d124f97bf2c788843ea8bb502b66079fbee02158ef30b172cb762826000604051600160a060020a039092168252151560208201526040908101905180910390a1610891565b60010161078a565b5050565b60008054819033600160a060020a039081169116146108b357600080fd5b5060075463ffffffff9081169083820116819010156108d157600080fd5b6007805463ffffffff80821686011663ffffffff199091161790559050919050565b60006001608060020a038086169085811690858116908516808402828402101561092157600019945061093b565b8084028383021115610936576001945061093b565b600094505b50505050949350505050565b600154600160a060020a031681565b61095e611824565b60048054806020026020016040519081016040528092919081815260200182805480156109b457602002820191906000526020600020905b8154600160a060020a03168152600190910190602001808311610996575b505050505090505b90565b600181565b60005433600160a060020a039081169116146109df57600080fd5b600160a060020a03811660009081526003602052604090205460ff1615610a0557600080fd5b60055460329010610a1557600080fd5b7f5611bf3e417d124f97bf2c788843ea8bb502b66079fbee02158ef30b172cb762816001604051600160a060020a039092168252151560208201526040908101905180910390a1600160a060020a0381166000908152600360205260409020805460ff191660019081179091556005805490918101610a9483826117fb565b5060009182526020909120018054600160a060020a031916600160a060020a0392909216919091179055565b63ffffffff90811660009081526006602052604090208054600190910154600160a060020a038216936001608060020a0380831694608060020a909304169260a060020a810483169260c060020a9091041690565b60066020526000908152604090208054600190910154600160a060020a0382169163ffffffff60a060020a820481169260c060020a90920416906001608060020a0380821691608060020a90041685565b60005433600160a060020a03908116911614610b8157600080fd5b600160a060020a0381161515610b9657600080fd5b6001547f3b81caf78fa51ecbc8acb482fd7012a277b428d9b80f9d156e8a54107496cc4090600160a060020a0316604051600160a060020a03909116815260200160405180910390a160018054600160a060020a031916600160a060020a0392909216919091179055565b60015433600160a060020a03908116911614610c1c57600080fd5b6001546000547f65da1cfc2c2e81576ad96afb24a581f8e109b7a403b35cbd3243a1c99efdb9ed91600160a060020a039081169116604051600160a060020a039283168152911660208201526040908101905180910390a16001805460008054600160a060020a0319908116600160a060020a03841617909155169055565b60005433600160a060020a03908116911614610cb657600080fd5b600160a060020a0381161515610ccb57600080fd5b7f3b81caf78fa51ecbc8acb482fd7012a277b428d9b80f9d156e8a54107496cc4081604051600160a060020a03909116815260200160405180910390a16000547f65da1cfc2c2e81576ad96afb24a581f8e109b7a403b35cbd3243a1c99efdb9ed908290600160a060020a0316604051600160a060020a039283168152911660208201526040908101905180910390a160008054600160a060020a031916600160a060020a0392909216919091179055565b610d85611824565b60058054806020026020016040519081016040528092919081815260200182805480156109b457602002820191906000526020600020908154600160a060020a03168152600190910190602001808311610996575050505050905090565b600260008181526006602052907f8819ef417987f8ae7a81f42cdfb18815282fe989326fbff903d13cf0e03ace29825b815460c060020a900463ffffffff16600114610e9757905460c060020a900463ffffffff16600081815260066020526040902060018101549193509190610e7190879087906001608060020a0380821691608060020a9004166108f3565b90506000811215610e9257815460a060020a900463ffffffff169350610e9b565b610e13565b8293505b50505092915050565b60005433600160a060020a03908116911614610ebf57600080fd5b600160a060020a03811660009081526002602052604090205460ff1615610ee557600080fd5b60045460329010610ef557600080fd5b7f091a7a4b85135fdd7e8dbc18b12fabe5cc191ea867aa3c2e1a24a102af61d58b816001604051600160a060020a039092168252151560208201526040908101905180910390a1600160a060020a0381166000908152600260205260409020805460ff191660019081179091556004805490918101610a9483826117fb565b600260005260066020527f8819ef417987f8ae7a81f42cdfb18815282fe989326fbff903d13cf0e03ace295460c060020a900463ffffffff16600181149091565b6000805481908190819033600160a060020a03908116911614610fd757600080fd5b63ffffffff881615801590610ff3575063ffffffff8816600214155b8015611006575063ffffffff8816600114155b151561101157600080fd5b63ffffffff888116908616141561102757600080fd5b63ffffffff88811660009081526006602052604090205460a060020a9004811690861614156110dd5763ffffffff80891660009081526006602052604090205460c060020a900416915061107d8787878561152a565b156110d85763ffffffff88166000908152600660205260408120600190810180546001608060020a038a8116608060020a02818d166fffffffffffffffffffffffffffffffff19909316929092171617905594509250611170565b611167565b63ffffffff80861660009081526006602052604090205460c060020a900416915061110a8787878561152a565b15611167575063ffffffff8716600090815260066020526040902054600160a060020a03166111388861063a565b151561114357600080fd5b6111508189898989611697565b151561115b57600080fd5b60018093509350611170565b60006002935093505b505094509492505050565b60008054819033600160a060020a0390811691161461119957600080fd5b5063ffffffff80831660009081526006602052604090205460c060020a9004166111c58585858461152a565b15156111d457600091506111e4565b6111e18787878787611697565b91505b5095945050505050565b6000805433600160a060020a0390811691161461120a57600080fd5b600160a060020a03821660009081526002602052604090205460ff16151561123157600080fd5b50600160a060020a0381166000908152600260205260408120805460ff191690555b6004548110156108915781600160a060020a031660048281548110151561127657fe5b600091825260209091200154600160a060020a03161415611352576004805460001981019081106112a357fe5b60009182526020909120015460048054600160a060020a0390921691839081106112c957fe5b60009182526020909120018054600160a060020a031916600160a060020a039290921691909117905560048054600019019061130590826117fb565b507f091a7a4b85135fdd7e8dbc18b12fabe5cc191ea867aa3c2e1a24a102af61d58b826000604051600160a060020a039092168252151560208201526040908101905180910390a1610891565b600101611253565b60075463ffffffff1681565b600281565b600081565b60008054819033600160a060020a0390811691161461138e57600080fd5b63ffffffff8516158015906113aa575063ffffffff8516600214155b80156113bd575063ffffffff8516600114155b15156113c857600080fd5b6113d28484610de3565b90506113e18686868685611697565b9695505050505050565b60008054819033600160a060020a0390811691161461140957600080fd5b5063ffffffff8416600090815260066020526040902054600160a060020a03166114328561063a565b151561143d57600080fd5b61144981868686611370565b151561145457600080fd5b506001949350505050565b600054600160a060020a031681565b600063ffffffff82161580159061148c575063ffffffff8216600214155b801561149f575063ffffffff8216600114155b15156114aa57600080fd5b5063ffffffff80821660009081526006602052604090208054909160a060020a90910416158015906114e95750805460c060020a900463ffffffff1615155b80156115045750805460a060020a900463ffffffff16600114155b801561151f5750805460c060020a900463ffffffff16600214155b151561089157600080fd5b600080808063ffffffff86166001148061154a575063ffffffff85166002145b15611558576000935061168c565b63ffffffff8616600081815260066020526040902093506002148015906115d35750825460a060020a900463ffffffff1615806115a15750825460c060020a900463ffffffff16155b806115ba5750825460a060020a900463ffffffff166001145b806115d35750825460c060020a900463ffffffff166002145b156115e1576000935061168c565b63ffffffff861660021461162957600183015461161590899089906001608060020a0380821691608060020a9004166108f3565b91506000821215611629576000935061168c565b63ffffffff8516600114611687575063ffffffff84166000908152600660205260409020600181015461167390899089906001608060020a0380821691608060020a9004166108f3565b91506000821315611687576000935061168c565b600193505b505050949350505050565b63ffffffff81811660008181526006602052604080822088851683529082208054600160a060020a031916600160a060020a038b161777ffffffff0000000000000000000000000000000000000000191660a060020a9094029390931780845581547bffffffff0000000000000000000000000000000000000000000000001990911660c060020a9182900486168202178455600193840180546fffffffffffffffffffffffffffffffff19166001608060020a038a8116919091178116608060020a918a16919091021790558154929491939204169081146117b95763ffffffff8082166000908152600660205260409020805491891660a060020a0277ffffffff0000000000000000000000000000000000000000199092169190911790555b815463ffffffff881660c060020a027bffffffff0000000000000000000000000000000000000000000000001990911617825560019250505095945050505050565b81548183558181151161181f5760008381526020902061181f918101908301611836565b505050565b60206040519081016040526000815290565b6109bc91905b80821115611850576000815560010161183c565b50905600a165627a7a72305820b2d0533e689cac6fba17326c0ce337c66339845fe08c55a464143258cc839d340029a165627a7a7230582067ed5a4633528c2ebccf28b42530cfd9a31993135a33ff021cdb889e62658fbc0029",
  "source": "pragma solidity 0.4.18;\n\n\nimport \"./OrderList.sol\";\n\n\ncontract OrderListFactory {\n    function newOrdersContract(address admin) public returns(OrderListInterface) {\n        OrderList orders = new OrderList(admin);\n        return orders;\n    }\n}\n",
  "sourcePath": "/home/node/app/workshop-master/contracts/permissionless/OrderListFactory.sol",
  "compiler": {
    "name": "solc",
    "version": "0.4.18+commit.9cf6e910.Emscripten.clang"
  },
  "schemaVersion": "3.0.16",
  "updatedAt": "2019-10-11T14:32:49.568Z",
  "devdoc": {
    "methods": {}
  },
  "userdoc": {
    "methods": {}
  }
}