{
  "contractName": "PermissionlessOrderbookReserveLister",
  "abi": [
    {
      "constant": true,
      "inputs": [
        {
          "name": "",
          "type": "address"
        }
      ],
      "name": "reserveListingStage",
      "outputs": [
        {
          "name": "",
          "type": "uint8"
        }
      ],
      "payable": false,
      "stateMutability": "view",
      "type": "function"
    },
    {
      "constant": true,
      "inputs": [],
      "name": "kyberNetworkContract",
      "outputs": [
        {
          "name": "",
          "type": "address"
        }
      ],
      "payable": false,
      "stateMutability": "view",
      "type": "function"
    },
    {
      "constant": true,
      "inputs": [],
      "name": "maxOrdersPerTrade",
      "outputs": [
        {
          "name": "",
          "type": "uint256"
        }
      ],
      "payable": false,
      "stateMutability": "view",
      "type": "function"
    },
    {
      "constant": true,
      "inputs": [],
      "name": "kncToken",
      "outputs": [
        {
          "name": "",
          "type": "address"
        }
      ],
      "payable": false,
      "stateMutability": "view",
      "type": "function"
    },
    {
      "constant": true,
      "inputs": [],
      "name": "orderFactoryContract",
      "outputs": [
        {
          "name": "",
          "type": "address"
        }
      ],
      "payable": false,
      "stateMutability": "view",
      "type": "function"
    },
    {
      "constant": true,
      "inputs": [],
      "name": "ORDERBOOK_BURN_FEE_BPS",
      "outputs": [
        {
          "name": "",
          "type": "uint256"
        }
      ],
      "payable": false,
      "stateMutability": "view",
      "type": "function"
    },
    {
      "constant": true,
      "inputs": [
        {
          "name": "",
          "type": "address"
        }
      ],
      "name": "reserves",
      "outputs": [
        {
          "name": "",
          "type": "address"
        }
      ],
      "payable": false,
      "stateMutability": "view",
      "type": "function"
    },
    {
      "constant": true,
      "inputs": [],
      "name": "minNewOrderValueUsd",
      "outputs": [
        {
          "name": "",
          "type": "uint256"
        }
      ],
      "payable": false,
      "stateMutability": "view",
      "type": "function"
    },
    {
      "constant": true,
      "inputs": [],
      "name": "medianizerContract",
      "outputs": [
        {
          "name": "",
          "type": "address"
        }
      ],
      "payable": false,
      "stateMutability": "view",
      "type": "function"
    },
    {
      "inputs": [
        {
          "name": "kyber",
          "type": "address"
        },
        {
          "name": "factory",
          "type": "address"
        },
        {
          "name": "medianizer",
          "type": "address"
        },
        {
          "name": "knc",
          "type": "address"
        },
        {
          "name": "unsupportedTokens",
          "type": "address[]"
        },
        {
          "name": "maxOrders",
          "type": "uint256"
        },
        {
          "name": "minOrderValueUsd",
          "type": "uint256"
        }
      ],
      "payable": false,
      "stateMutability": "nonpayable",
      "type": "constructor"
    },
    {
      "anonymous": false,
      "inputs": [
        {
          "indexed": false,
          "name": "token",
          "type": "address"
        },
        {
          "indexed": false,
          "name": "stage",
          "type": "uint8"
        }
      ],
      "name": "TokenOrderbookListingStage",
      "type": "event"
    },
    {
      "constant": false,
      "inputs": [
        {
          "name": "token",
          "type": "address"
        }
      ],
      "name": "addOrderbookContract",
      "outputs": [
        {
          "name": "",
          "type": "bool"
        }
      ],
      "payable": false,
      "stateMutability": "nonpayable",
      "type": "function"
    },
    {
      "constant": false,
      "inputs": [
        {
          "name": "token",
          "type": "address"
        }
      ],
      "name": "initOrderbookContract",
      "outputs": [
        {
          "name": "",
          "type": "bool"
        }
      ],
      "payable": false,
      "stateMutability": "nonpayable",
      "type": "function"
    },
    {
      "constant": false,
      "inputs": [
        {
          "name": "token",
          "type": "address"
        }
      ],
      "name": "listOrderbookContract",
      "outputs": [
        {
          "name": "",
          "type": "bool"
        }
      ],
      "payable": false,
      "stateMutability": "nonpayable",
      "type": "function"
    },
    {
      "constant": false,
      "inputs": [
        {
          "name": "token",
          "type": "address"
        },
        {
          "name": "hintReserveIndex",
          "type": "uint256"
        }
      ],
      "name": "unlistOrderbookContract",
      "outputs": [],
      "payable": false,
      "stateMutability": "nonpayable",
      "type": "function"
    },
    {
      "constant": true,
      "inputs": [
        {
          "name": "token",
          "type": "address"
        }
      ],
      "name": "getOrderbookListingStage",
      "outputs": [
        {
          "name": "",
          "type": "address"
        },
        {
          "name": "",
          "type": "uint8"
        }
      ],
      "payable": false,
      "stateMutability": "view",
      "type": "function"
    }
  ],
  "bytecode": "0x60606040526103e8600055341561001557600080fd5b60405161549b38038061549b833981016040528080519190602001805191906020018051919060200180519190602001805182019190602001805191906020018051915060009050600160a060020a038816151561007257600080fd5b600160a060020a038716151561008757600080fd5b600160a060020a038616151561009c57600080fd5b600160a060020a03851615156100b157600080fd5b600183116100be57600080fd5b600082116100cb57600080fd5b5060028054600160a060020a03808a16600160a060020a03199283161790925560038054898416908316179055600480548884169083161790556005805492871692909116919091179055600182905560008181555b83518110156101a257600084828151811061013857fe5b90602001906020020151600160a060020a0316141561015657600080fd5b60016008600086848151811061016857fe5b90602001906020020151600160a060020a031681526020810191909152604001600020805460ff1916911515919091179055600101610121565b50505050505050506152e2806101b96000396000f300606060405260043610620000c55763ffffffff60e060020a6000350416630f631c078114620000ca5780631138f0d4146200011157806315365af514620001475780634f61ff8b14620001695780636f84f05c146200019b578063811c7fe214620001c35780638fd37d9014620001d95780639d9bcdea1462000200578063a75f31bb1462000216578063c5d569c9146200022c578063d66bd524146200024e578063f11def681462000270578063f89d973c1462000286578063fa24d14114620002dd575b600080fd5b3415620000d657600080fd5b620000ec600160a060020a0360043516620002f3565b60405180826003811115620000fd57fe5b60ff16815260200191505060405180910390f35b34156200011d57600080fd5b62000133600160a060020a036004351662000308565b604051901515815260200160405180910390f35b34156200015357600080fd5b62000133600160a060020a036004351662000612565b34156200017557600080fd5b6200017f6200081b565b604051600160a060020a03909116815260200160405180910390f35b3415620001a757600080fd5b620001b16200082a565b60405190815260200160405180910390f35b3415620001cf57600080fd5b6200017f62000830565b3415620001e557600080fd5b620001fe600160a060020a03600435166024356200083f565b005b34156200020c57600080fd5b6200017f62000a22565b34156200022257600080fd5b620001b162000a31565b34156200023857600080fd5b62000133600160a060020a036004351662000a36565b34156200025a57600080fd5b6200017f600160a060020a036004351662000b4c565b34156200027c57600080fd5b620001b162000b67565b34156200029257600080fd5b620002a8600160a060020a036004351662000b6d565b604051600160a060020a038316815260208101826003811115620002c857fe5b60ff1681526020019250505060405180910390f35b3415620002e957600080fd5b6200017f62000b9e565b60076020526000908152604090205460ff1681565b6000806002600160a060020a03841660009081526007602052604090205460ff1660038111156200033557fe5b146200034057600080fd5b600254600160a060020a03848116600090815260066020526040808220549383169363a0d7bb1b931691600191516020015260405160e060020a63ffffffff8516028152600160a060020a03909216600483015215156024820152604401602060405180830381600087803b1515620003b857600080fd5b6102c65a03f11515620003ca57600080fd5b505050604051805190501515620003e057600080fd5b600254600160a060020a03848116600090815260066020526040808220549383169363e02584bf93169187916001918291829190516020015260405160e060020a63ffffffff8816028152600160a060020a039586166004820152939094166024840152901515604483015215156064820152901515608482015260a401602060405180830381600087803b15156200047857600080fd5b6102c65a03f115156200048a57600080fd5b505050604051805190501515620004a057600080fd5b600254600160a060020a031663579425b76000604051602001526040518163ffffffff1660e060020a028152600401602060405180830381600087803b1515620004e957600080fd5b6102c65a03f11515620004fb57600080fd5b5050506040518051600160a060020a03858116600090815260066020526040908190205492945081851693506346b8c49e929091169060199082905160e060020a63ffffffff8616028152600160a060020a03938416600482015260248101929092529091166044820152606401600060405180830381600087803b15156200058357600080fd5b6102c65a03f115156200059557600080fd5b505050600160a060020a038316600090815260076020526040902080546003919060ff1916600183021790555060008051602062005297833981519152836003604051600160a060020a038316815260208101826003811115620005f557fe5b60ff1681526020019250505060405180910390a150600192915050565b600080600160a060020a03831660009081526007602052604090205460ff1660038111156200063d57fe5b146200064857600080fd5b600160a060020a03821660009081526008602052604090205460ff16156200066f57600080fd5b600554600254600160a060020a039182169184911663579425b76000604051602001526040518163ffffffff1660e060020a028152600401602060405180830381600087803b1515620006c157600080fd5b6102c65a03f11515620006d357600080fd5b5050506040518051600254600454600354600054600154949550600160a060020a0393841694928416939091169160196200070d62000bad565b600160a060020a03998a168152978916602089015295881660408089019190915294881660608801529287166080870152951660a085015260c084019490945260e0830193909352610100820152610120019051809103906000f08015156200077557600080fd5b600160a060020a038381166000908152600660209081526040808320805473ffffffffffffffffffffffffffffffffffffffff1916959094169490941790925560079091522080546001919060ff19168280021790555060008051602062005297833981519152826001604051600160a060020a038316815260208101826003811115620007ff57fe5b60ff1681526020019250505060405180910390a1506001919050565b600254600160a060020a031681565b60015481565b600554600160a060020a031681565b6003600160a060020a03831660009081526007602052604090205460ff1660038111156200086957fe5b146200087457600080fd5b600160a060020a03808316600090815260066020526040808220549092169163e9348532919051602001526040518163ffffffff1660e060020a028152600401602060405180830381600087803b1515620008ce57600080fd5b6102c65a03f11515620008e057600080fd5b505050604051805190501515620008f657600080fd5b600254600160a060020a03838116600090815260066020526040808220549383169363249715b39316918591516020015260405160e060020a63ffffffff8516028152600160a060020a0390921660048301526024820152604401602060405180830381600087803b15156200096b57600080fd5b6102c65a03f115156200097d57600080fd5b5050506040518051905015156200099357600080fd5b600160a060020a0382166000908152600760209081526040808320805460ff191690556006909152808220805473ffffffffffffffffffffffffffffffffffffffff191690556000805160206200529783398151915291849151600160a060020a03831681526020810182600381111562000a0a57fe5b60ff1681526020019250505060405180910390a15050565b600354600160a060020a031681565b601981565b60006001600160a060020a03831660009081526007602052604090205460ff16600381111562000a6257fe5b1462000a6d57600080fd5b600160a060020a03808316600090815260066020526040808220549092169163e1c7392a919051602001526040518163ffffffff1660e060020a028152600401602060405180830381600087803b151562000ac757600080fd5b6102c65a03f1151562000ad957600080fd5b50505060405180519050151562000aef57600080fd5b600160a060020a038216600090815260076020526040902080546002919060ff1916600183021790555060008051602062005297833981519152826002604051600160a060020a038316815260208101826003811115620007ff57fe5b600660205260009081526040902054600160a060020a031681565b60005481565b600160a060020a0380821660009081526006602090815260408083205460079092529091205491169060ff16915091565b600454600160a060020a031681565b6040516146d88062000bbf833901905600606060405234156200001057600080fd5b60405161012080620046d8833981016040528080519190602001805191906020018051919060200180519190602001805191906020018051919060200180519190602001805191906020018051915050600160a060020a03891615156200007657600080fd5b600160a060020a03881615156200008c57600080fd5b600160a060020a0387161515620000a257600080fd5b600160a060020a0386161515620000b857600080fd5b600160a060020a0385161515620000ce57600080fd5b600160a060020a0384161515620000e457600080fd5b801515620000f157600080fd5b60648111156200010057600080fd5b8115156200010d57600080fd5b600083116200011b57600080fd5b60098054600160a060020a0319908116600160a060020a03898116919091179092556008805482168a8416179055600a80548216888416179055600b805482168784161790556006805482168c841617905560078054909116918a16919091179055601181905560028390556003829055620001a46401000000006200032d8102620020771704565b1515620001b057600080fd5b600654600854600160a060020a039182169163095ea7b391167f80000000000000000000000000000000000000000000000000000000000000006000604051602001526040517c010000000000000000000000000000000000000000000000000000000063ffffffff8516028152600160a060020a0390921660048301526024820152604401602060405180830381600087803b15156200025057600080fd5b6102c65a03f115156200026257600080fd5b5050506040518051905015156200027857600080fd5b6007546200029d90600160a060020a0316640100000000620040b26200042e82021704565b600854600160a060020a031663301254166000604051602001526040518163ffffffff167c0100000000000000000000000000000000000000000000000000000000028152600401602060405180830381600087803b1515620002ff57600080fd5b6102c65a03f115156200031157600080fd5b5050506040518051600155506200050e98505050505050505050565b600a546000908190819081908190600160a060020a03166359e02dd782604051604001526040518163ffffffff167c01000000000000000000000000000000000000000000000000000000000281526004016040805180830381600087803b15156200039857600080fd5b6102c65a03f11515620003aa57600080fd5b505050604051805190602001805191955090935050821515620003cc57600080fd5b670de0b6b3a764000084049150811515620003e657600080fd5b620186a08210620003f657600080fd5b60025484906ec097ce7bc90715b34b9f1000000000028115156200041657fe5b04600481905560029004600555506001949350505050565b600160a060020a03811673eeeeeeeeeeeeeeeeeeeeeeeeeeeeeeeeeeeeeeee14156200047657600160a060020a0381166000908152602081905260409020601290556200050b565b80600160a060020a031663313ce5676000604051602001526040518163ffffffff167c0100000000000000000000000000000000000000000000000000000000028152600401602060405180830381600087803b1515620004d657600080fd5b6102c65a03f11515620004e857600080fd5b5050506040518051600160a060020a038316600090815260208190526040902055505b50565b6141ba806200051e6000396000f30060606040526004361061029a5763ffffffff60e060020a60003504166304068ae2811461029f57806314fd6da0146102c4578063269fe82e146103065780632ac1db5a1461031c5780632b4d53031461036357806330cbb66f14610382578063338b5dea146103c05780633b443e3b146103e45780633bed33ce146103f7578063411273d81461040d57806344909b741461043257806350baa6221461044557806350d91deb1461045b57806352802121146105aa578063541e15b6146105be57806357df82e0146105d15780635cd36325146105f05780635e310670146106275780635ff468571461064357806362bb7533146106b557806362c5aecc146106c8578063685e7fc2146106ed578063690d986b146107005780636c0f79b61461072f5780636c3aacf9146107875780636cf69811146107f1578063744fa2c81461081d57806374d88c50146108425780637a03b624146108675780637cd442721461087a5780637f18b569146108a55780638108592c146108b857806384d062b4146108ce578063853717bb146108fc578063860aefcf146109125780638b7d6b05146109505780638fb2fbe11461096f57806390f3dd331461099d57806392418cf6146109d4578063971e668f146109ea5780639d0d647314610a185780639ebbf23114610a465780639f7ba82814610a59578063a9055b8114610a78578063abdde3d114610a97578063b7b2c52514610ab3578063ba6b0fa014610ac6578063bc1f71e114610ae5578063c01a3cd214610b07578063c444214a14610b2c578063d11dfdec14610b3f578063d4fac45d14610b52578063e1c7392a14610b77578063e934853214610b8a578063f2e9135014610b9d578063f67e8db214610cec578063f719254d14610cff578063fe459fdf14610d1b575b600080fd5b34156102aa57600080fd5b6102b2610d2e565b60405190815260200160405180910390f35b34156102cf57600080fd5b6102f26001608060020a036004358116906024351663ffffffff60443516610d33565b604051901515815260200160405180910390f35b341561031157600080fd5b6102b2600435610d71565b341561032757600080fd5b61034a63ffffffff600435166001608060020a0360243581169060443516610dfa565b60405163ffffffff909116815260200160405180910390f35b341561036e57600080fd5b6102b2600160a060020a0360043516610f4f565b341561038d57600080fd5b6103a1600160a060020a0360043516610f61565b60405163ffffffff909216825260208201526040908101905180910390f35b34156103cb57600080fd5b6103e2600160a060020a0360043516602435610f83565b005b34156103ef57600080fd5b6102b26110aa565b341561040257600080fd5b6103e26004356110b0565b341561041857600080fd5b61034a6001608060020a0360043581169060243516611156565b341561043d57600080fd5b6102b26111f5565b341561045057600080fd5b6103e26004356111fa565b341561046657600080fd5b6102f26004602481358181019083013580602081810201604051908101604052809392919081815260200183836020028082843782019150505050505091908035906020019082018035906020019080806020026020016040519081016040528093929190818152602001838360200280828437820191505050505050919080359060200190820180359060200190808060200260200160405190810160405280939291908181526020018383602002808284378201915050505050509190803590602001908201803590602001908080602002602001604051908101604052809392919081815260200183836020028082843782019150505050505091908035906020019082018035906020019080806020026020016040519081016040528093929190818152602001838360200280828437509496506112e095505050505050565b6103e2600160a060020a0360043516611435565b34156105c957600080fd5b6102b26114ba565b34156105dc57600080fd5b6103a1600160a060020a03600435166114bf565b34156105fb57600080fd5b6102f263ffffffff6004358116906001608060020a0360243581169160443590911690606435166114e1565b341561063257600080fd5b6102f263ffffffff60043516611508565b341561064e57600080fd5b610662600160a060020a0360043516611528565b60405160208082528190810183818151815260200191508051906020019060200280838360005b838110156106a1578082015183820152602001610689565b505050509050019250505060405180910390f35b34156106c057600080fd5b6106626115ea565b34156106d357600080fd5b61034a6001608060020a036004358116906024351661160d565b34156106f857600080fd5b6102b2611689565b341561070b57600080fd5b610713611690565b604051600160a060020a03909116815260200160405180910390f35b341561073a57600080fd5b61074261169f565b604051600160a060020a0396871681529486166020860152928516604080860191909152918516606085015284166080840152921660a082015260c001905180910390f35b341561079257600080fd5b6107a363ffffffff600435166116d1565b604051600160a060020a0390951685526001608060020a0393841660208601529190921660408085019190915263ffffffff92831660608501529116608083015260a0909101905180910390f35b6102f2600160a060020a03600435811690602435906044358116906064351660843560a4351515611772565b341561082857600080fd5b6102f26001608060020a0360043581169060243516611a64565b341561084d57600080fd5b6102f26001608060020a0360043581169060243516611a79565b341561087257600080fd5b6102b2611a87565b341561088557600080fd5b6102b2600160a060020a0360043581169060243516604435606435611a8c565b34156108b057600080fd5b6103e2611d00565b34156108c357600080fd5b6102b2600435611d7a565b34156108d957600080fd5b6102f263ffffffff600435166001608060020a0360243581169060443516611d8e565b341561090757600080fd5b6102b2600435611d9d565b341561091d57600080fd5b610925611dba565b6040518085815260200184815260200183815260200182815260200194505050505060405180910390f35b341561095b57600080fd5b6102b2600160a060020a0360043516611dc9565b341561097a57600080fd5b61034a63ffffffff600435166001608060020a0360243581169060443516611e26565b34156109a857600080fd5b6102f263ffffffff6004358116906001608060020a036024358116916044359091169060643516611f2f565b34156109df57600080fd5b6103e2600435611f3f565b34156109f557600080fd5b6102f263ffffffff600435166001608060020a0360243581169060443516612020565b3415610a2357600080fd5b6102f26001608060020a036004358116906024351663ffffffff60443516612044565b3415610a5157600080fd5b6102f2612077565b3415610a6457600080fd5b610662600160a060020a0360043516612159565b3415610a8357600080fd5b6102b2600160a060020a0360043516612213565b3415610aa257600080fd5b6107a363ffffffff60043516612235565b3415610abe57600080fd5b61034a6114ba565b3415610ad157600080fd5b6102b2600160a060020a0360043516612292565b3415610af057600080fd5b6103e2600160a060020a03600435166024356122a4565b3415610b1257600080fd5b6102b2600160a060020a0360043581169060243516612514565b3415610b3757600080fd5b6102b2612531565b3415610b4a57600080fd5b61034a612537565b3415610b5d57600080fd5b6102b2600160a060020a036004358116906024351661253c565b3415610b8257600080fd5b6102f26125e7565b3415610b9557600080fd5b6102f2612785565b3415610ba857600080fd5b6102f26004602481358181019083013580602081810201604051908101604052809392919081815260200183836020028082843782019150505050505091908035906020019082018035906020019080806020026020016040519081016040528093929190818152602001838360200280828437820191505050505050919080359060200190820180359060200190808060200260200160405190810160405280939291908181526020018383602002808284378201915050505050509190803590602001908201803590602001908080602002602001604051908101604052809392919081815260200183836020028082843782019150505050505091908035906020019082018035906020019080806020026020016040519081016040528093929190818152602001838360200280828437509496506127f795505050505050565b3415610cf757600080fd5b6106626128d5565b3415610d0a57600080fd5b6102f263ffffffff600435166128f2565b3415610d2657600080fd5b6107136128ff565b602081565b600160a060020a03331660009081526013602052604081208190610d569061290e565b9050610d66600182878787612953565b91505b509392505050565b60085460009069021e19e0c9bab240000090600160a060020a0316633012541683604051602001526040518163ffffffff1660e060020a028152600401602060405180830381600087803b1515610dc757600080fd5b6102c65a03f11515610dd857600080fd5b50505060405180519050601154840202811515610df157fe5b0490505b919050565b60008060008060006002800154876001608060020a031610151515610e1e57600080fd5b600d54600160a060020a03166385fcb4a8888860006040516020015260405160e060020a63ffffffff85160281526001608060020a03928316600482015291166024820152604401602060405180830381600087803b1515610e7f57600080fd5b6102c65a03f11515610e9057600080fd5b5050506040518051905093508763ffffffff168463ffffffff161415610f4357600d54600160a060020a03166361592b8589600060405160a0015260405163ffffffff83811660e060020a02825291909116600482015260240160a060405180830381600087803b1515610f0357600080fd5b6102c65a03f11515610f1457600080fd5b505050604051805190602001805190602001805190602001805190602001805191985093965091945090925050505b50919695505050505050565b600f6020526000908152604090205481565b6012602052600090815260409020805460019091015463ffffffff9091169082565b600160a060020a0382161515610f9857600080fd5b6b204fce5e3e250261100000008110610fb057600080fd5b600754600160a060020a03166323b872dd33308460006040516020015260405160e060020a63ffffffff8616028152600160a060020a0393841660048201529190921660248201526044810191909152606401602060405180830381600087803b151561101c57600080fd5b6102c65a03f1151561102d57600080fd5b50505060405180519050151561104257600080fd5b600160a060020a038083166000818152600e602090815260408083206007549095168352939052829020805484019055907fbc7c8a4d8049a3f99a02f2a20640c206a2e4d3f2fa54fd20da9f01fda3620cda9083905190815260200160405180910390a25050565b60015481565b33600160a060020a0381166000908152600e6020908152604080832060008051602061416f8339815191528452909152902054828110156110f057600080fd5b600160a060020a0382166000818152600e6020908152604080832060008051602061416f8339815191528452909152908190208054869003905584156108fc0290859051600060405180830381858888f19350505050151561115157600080fd5b505050565b6004546000906001608060020a038316101561117157600080fd5b600c54600160a060020a03166385fcb4a8848460006040516020015260405160e060020a63ffffffff85160281526001608060020a03928316600482015291166024820152604401602060405180830381600087803b15156111d257600080fd5b6102c65a03f115156111e357600080fd5b50505060405180519150505b92915050565b600581565b33600160a060020a038181166000908152600e60209081526040808320600754909416835292905220548281101561123157600080fd5b600160a060020a038083166000908152600e60209081526040808320600780548616855292528083208054889003905590549092169163a9059cbb918591879190516020015260405160e060020a63ffffffff8516028152600160a060020a0390921660048301526024820152604401602060405180830381600087803b15156112ba57600080fd5b6102c65a03f115156112cb57600080fd5b50505060405180519050151561115157600080fd5b600080600080600086518a51146112f657600080fd5b87518a511461130457600080fd5b88518a511461131257600080fd5b85518a511461132057600080fd5b5033925060009050805b89518110156114255785818151811061133f57fe5b906020019060200201516113685786818151811061135957fe5b9060200190602002015161136a565b815b92506113c48a828151811061137b57fe5b906020019060200201516113a657600160a060020a03851660009081526012602052604090206113bf565b600160a060020a03851660009081526013602052604090205b61290e565b91506114128a82815181106113d557fe5b90602001906020020151838b84815181106113ec57fe5b906020019060200201518b858151811061140257fe5b9060200190602002015187612953565b151561141d57600080fd5b60010161132a565b5060019998505050505050505050565b600160a060020a038116151561144a57600080fd5b600160a060020a0381166000818152600e6020908152604080832060008051602061416f8339815191528452909152908190208054349081019091557f939e51ac2fd009b158d6344f7e68a83d8d18d9b0cc88cf514aac6aaa9cad2a18915190815260200160405180910390a250565b600281565b6013602052600090815260409020805460019091015463ffffffff9091169082565b60006114f1600186868686612bdf565b15156114fc57600080fd5b5060015b949350505050565b6000611515600083612f02565b151561152057600080fd5b506001919050565b611530614072565b600160a060020a03821660009081526013602052604081209080611553836130c3565b6040518059106115605750595b9080825280602002602001820160405250935060009150600090505b60208163ffffffff1610156115e25760008163ffffffff1660019060020a0284600101541611156115da578254600183019263ffffffff9091168201908590815181106115c557fe5b63ffffffff9092166020928302909101909101525b60010161157c565b505050919050565b6115f2614072565b600c54600160a060020a0316611607816130f5565b91505090565b6004546000906001608060020a038416101561162857600080fd5b600d54600160a060020a03166385fcb4a8848460006040516020015260405160e060020a63ffffffff85160281526001608060020a03928316600482015291166024820152604401602060405180830381600087803b15156111d257600080fd5b620186a081565b600c54600160a060020a031681565b600654600754600854600954600a54600b54600160a060020a0395861695948516949384169392831692918216911686565b600c546000908190819081908190600160a060020a03166361592b85878360405160a0015260405163ffffffff83811660e060020a02825291909116600482015260240160a060405180830381600087803b151561172e57600080fd5b6102c65a03f1151561173f57600080fd5b5050506040518051906020018051906020018051906020018051906020018051949b939a50919850965091945092505050565b600954600090819033600160a060020a0390811691161461179257600080fd5b600160a060020a03881660008051602061416f83398151915214806117cd5750600160a060020a03861660008051602061416f833981519152145b15156117d857600080fd5b600754600160a060020a03898116911614806118015750600754600160a060020a038781169116145b151561180c57600080fd5b6b204fce5e3e2502611000000087111561182557600080fd5b600160a060020a03881660008051602061416f83398151915214156118555734871461185057600080fd5b6118f0565b341561186057600080fd5b87600160a060020a03166323b872dd33308a60006040516020015260405160e060020a63ffffffff8616028152600160a060020a0393841660048201529190921660248201526044810191909152606401602060405180830381600087803b15156118ca57600080fd5b6102c65a03f115156118db57600080fd5b5050506040518051905015156118f057600080fd5b6118fb8888886132b3565b9050611919878261190b8b6134a7565b6119148a6134a7565b61355b565b84111561192557600080fd5b600160a060020a03861660008051602061416f833981519152141561197a57600160a060020a03851681156108fc0282604051600060405180830381858888f19350505050151561197557600080fd5b6119fd565b85600160a060020a031663a9059cbb868360006040516020015260405160e060020a63ffffffff8516028152600160a060020a0390921660048301526024820152604401602060405180830381600087803b15156119d757600080fd5b6102c65a03f115156119e857600080fd5b5050506040518051905015156119fd57600080fd5b7f36cfc7e9779b5ccf22f92f2f0d9adf9c74df05ab07de27c8cb508020389f9adc88878984604051600160a060020a0394851681529290931660208301526040808301919091526060820192909252608001905180910390a1506001979650505050505050565b6000611a7283836000612044565b9392505050565b6000611a7283836000610d33565b606481565b6000806000611a99614084565b60008080600160a060020a038b1660008051602061416f8339815191521480611ad85750600160a060020a038a1660008051602061416f833981519152145b1515611ae357600080fd5b600754600160a060020a038c811691161480611b0c5750600754600160a060020a038b81169116145b1515611b1757600080fd5b6b204fce5e3e25026110000000891115611b3057600080fd5b611b38612785565b15611b465760009650611cf2565b600160a060020a038b1660008051602061416f83398151915214611b7557600d54600160a060020a0316611b82565b600c54600160a060020a03165b600354909650899350600092509050600160a060020a03861663a3fb591783604051604001526040518163ffffffff1660e060020a0281526004016040805180830381600087803b1515611bd557600080fd5b6102c65a03f11515611be657600080fd5b5050506040518051906020018051151560408701525094505b6000836001608060020a0316118015611c1a57508360400151155b8015611c2c5750600019810190600090115b15611cb757611c3b86866135f6565b9350826001608060020a031684608001516001608060020a031611611c7157836060015182019150836080015183039250611cab565b83608001516001608060020a0316836001608060020a031685606001516001608060020a031602811515611ca157fe5b0482019150600092505b83602001519450611bff565b6001608060020a03831615611ccf5760009650611cf2565b611cef89836001608060020a0316611ce68e6134a7565b6119148e6134a7565b96505b505050505050949350505050565b600854600090600160a060020a0316633012541682604051602001526040518163ffffffff1660e060020a028152600401602060405180830381600087803b1515611d4a57600080fd5b6102c65a03f11515611d5b57600080fd5b505050604051805190509050600154811015611d775760018190555b50565b60006005611d8783611d9d565b0292915050565b600061150084848460006114e1565b60015460115460009169021e19e0c9bab240000091840202610df1565b60025460035460045460055484565b600080611dd583612213565b600160a060020a0384166000908152600f6020526040902054909150811115611e015760009150611e20565b600160a060020a0383166000908152600f602052604090205481900391505b50919050565b60008060008060006002800154866001608060020a031610151515611e4a57600080fd5b600c54600160a060020a03166385fcb4a8888860006040516020015260405160e060020a63ffffffff85160281526001608060020a03928316600482015291166024820152604401602060405180830381600087803b1515611eab57600080fd5b6102c65a03f11515611ebc57600080fd5b5050506040518051905093508763ffffffff168463ffffffff161415610f4357600c54600160a060020a03166361592b8589600060405160a0015260405163ffffffff83811660e060020a02825291909116600482015260240160a060405180830381600087803b1515610f0357600080fd5b60006114f1600086868686612bdf565b33600160a060020a0381166000908152600f602052604090205482901015611f6657600080fd5b81611f7082611dc9565b1015611f7b57600080fd5b600160a060020a038082166000908152600f6020526040808220805486900390556006549092169163a9059cbb918491869190516020015260405160e060020a63ffffffff8516028152600160a060020a0390921660048301526024820152604401602060405180830381600087803b1515611ff657600080fd5b6102c65a03f1151561200757600080fd5b50505060405180519050151561201c57600080fd5b5050565b600061202f8484846000611f2f565b151561203a57600080fd5b5060019392505050565b600160a060020a033316600090815260126020526040812081906120679061290e565b9050610d66600082878787612953565b600a546000908190819081908190600160a060020a03166359e02dd782604051604001526040518163ffffffff1660e060020a0281526004016040805180830381600087803b15156120c857600080fd5b6102c65a03f115156120d957600080fd5b5050506040518051906020018051919550909350508215156120fa57600080fd5b670de0b6b3a76400008404915081151561211357600080fd5b620186a0821061212257600080fd5b60025484906ec097ce7bc90715b34b9f10000000000281151561214157fe5b04600481905560029004600555506001949350505050565b612161614072565b600160a060020a03821660009081526012602052604081209080612184836130c3565b6040518059106121915750595b9080825280602002602001820160405250935060009150600090505b60208163ffffffff1610156115e25760008163ffffffff1660019060020a02846001015416111561220b578254600183019263ffffffff9091168201908590815181106121f657fe5b63ffffffff9092166020928302909101909101525b6001016121ad565b600160a060020a0381166000908152601060205260408120546111ef90611d7a565b600d546000908190819081908190600160a060020a03166361592b85878360405160a0015260405163ffffffff83811660e060020a02825291909116600482015260240160a060405180830381600087803b151561172e57600080fd5b60106020526000908152604090205481565b600160a060020a03821615156122b957600080fd5b6b204fce5e3e2502611000000081106122d157600080fd5b600654600160a060020a03166323b872dd33308460006040516020015260405160e060020a63ffffffff8616028152600160a060020a0393841660048201529190921660248201526044810191909152606401602060405180830381600087803b151561233d57600080fd5b6102c65a03f1151561234e57600080fd5b50505060405180519050151561236357600080fd5b600160a060020a0382166000818152600f6020526040908190208054840190557f7616f7b36d352f805882b5e6af4b72e6d1f325e5d73feef17ba9f064468498769083905190815260200160405180910390a2600160a060020a03821660009081526012602052604090206123d7906136d0565b1561247557600160a060020a038083166000908152601260209081526040808320600c5461246a959194911692631f38c35892909190516020015260405163ffffffff83811660e060020a028252919091166004820152602401602060405180830381600087803b151561244a57600080fd5b6102c65a03f1151561245b57600080fd5b505050604051805190506136f1565b151561247557600080fd5b600160a060020a0382166000908152601360205260409020612496906136d0565b1561201c57600160a060020a038083166000908152601360209081526040808320600d54612509959194911692631f38c35892909190516020015260405163ffffffff83811660e060020a028252919091166004820152602401602060405180830381600087803b151561244a57600080fd5b151561201c57600080fd5b600e60209081526000928352604080842090915290825290205481565b60115481565b600181565b6000600160a060020a03831660008051602061416f833981519152141561256e5750600160a060020a038116316111ef565b82600160a060020a03166370a082318360006040516020015260405160e060020a63ffffffff8416028152600160a060020a039091166004820152602401602060405180830381600087803b15156125c557600080fd5b6102c65a03f115156125d657600080fd5b5050506040518051905090506111ef565b600c54600090600160a060020a03161580159061260e5750600d54600160a060020a031615155b1561261b57506001612782565b600c54600160a060020a031615158061263e5750600d54600160a060020a031615155b1561264857600080fd5b600b54600160a060020a031663fccf6e673060006040516020015260405160e060020a63ffffffff8416028152600160a060020a039091166004820152602401602060405180830381600087803b15156126a157600080fd5b6102c65a03f115156126b257600080fd5b5050506040518051600c805473ffffffffffffffffffffffffffffffffffffffff1916600160a060020a03928316179055600b5416905063fccf6e673060006040516020015260405160e060020a63ffffffff8416028152600160a060020a039091166004820152602401602060405180830381600087803b151561273657600080fd5b6102c65a03f1151561274757600080fd5b5050506040518051600d805473ffffffffffffffffffffffffffffffffffffffff1916600160a060020a039290921691909117905550600190505b90565b60015460085460009160050290600160a060020a0316633012541683604051602001526040518163ffffffff1660e060020a028152600401602060405180830381600087803b15156127d657600080fd5b6102c65a03f115156127e757600080fd5b5050506040518051905011905090565b600080855187511461280857600080fd5b845187511461281657600080fd5b835187511461282457600080fd5b825187511461283257600080fd5b5060005b86518110156128c8576128b587828151811061284e57fe5b9060200190602002015187838151811061286457fe5b9060200190602002015187848151811061287a57fe5b9060200190602002015187858151811061289057fe5b906020019060200201518786815181106128a657fe5b90602001906020020151612bdf565b15156128c057600080fd5b600101612836565b5060019695505050505050565b6128dd614072565b600d54600160a060020a0316611607816130f5565b6000611515600183612f02565b600d54600160a060020a031681565b600180820154600091825b602081101561029a578282161515612944578282176001860155845463ffffffff16810193506115e2565b60029190910290600101612919565b60008080806b204fce5e3e250261100000006001608060020a0388161061297957600080fd5b6b204fce5e3e250261100000006001608060020a0387161061299a57600080fd5b3392506129a9838a898961372d565b15156129b457600080fd5b6129d1876001608060020a0316876001608060020a03168b61379a565b15156129dc57600080fd5b60009150886129f657600c54600160a060020a0316612a03565b600d54600160a060020a03165b905063ffffffff851615612ab25780600160a060020a031663a5da0bf5848a8a8a8a60006040516020015260405163ffffffff87811660e060020a028252600160a060020a0396909616600482015293851660248501526001608060020a03928316604485015291166064830152909116608482015260a401602060405180830381600087803b1515612a9557600080fd5b6102c65a03f11515612aa657600080fd5b50505060405180519250505b811515612b5c5780600160a060020a031663c92ba8b2848a8a8a60006040516020015260405163ffffffff86811660e060020a028252600160a060020a039590951660048201529290931660248301526001608060020a0390811660448301529091166064820152608401602060405180830381600087803b1515612b3657600080fd5b6102c65a03f11515612b4757600080fd5b505050604051805190501515612b5c57600080fd5b82600160a060020a03167f2fb3fe66d41cb2d1b0d335656d86e7c779ebdc34c6f6fc806d35790a30be0e6d898b8a8a8760405163ffffffff909516855292151560208501526001608060020a0391821660408086019190915291166060840152901515608083015260a0909101905180910390a250600198975050505050505050565b6000808080808080806b204fce5e3e250261100000006001608060020a038c1610612c0957600080fd5b6b204fce5e3e250261100000006001608060020a038b1610612c2a57600080fd5b612c478b6001608060020a03168b6001608060020a03168f61379a565b1515612c5257600080fd5b8c612c6857600c54600160a060020a0316612c75565b600d54600160a060020a03165b915081600160a060020a03166361592b858d600060405160a0015260405163ffffffff83811660e060020a02825291909116600482015260240160a060405180830381600087803b1515612cc857600080fd5b6102c65a03f11515612cd957600080fd5b505050604051805190602001805190602001805190602001805190602001805150939a5090985090965094505033600160a060020a0390811690881614612d1f57600080fd5b612d2d878e87898f8f61380c565b1515612d3c5760009750612ef2565b50600063ffffffff891615612de35781600160a060020a031663a590529e8d8d8d8d60006040516040015260405163ffffffff86811660e060020a02825294851660048201526001608060020a039384166024820152919092166044820152911660648201526084016040805180830381600087803b1515612dbd57600080fd5b6102c65a03f11515612dce57600080fd5b50505060405180519060200180519450909150505b801515612e795781600160a060020a031663cb2f7b878d8d8d60006040516020015260405163ffffffff85811660e060020a0282529390931660048401526001608060020a039182166024840152166044820152606401602060405180830381600087803b1515612e5357600080fd5b6102c65a03f11515612e6457600080fd5b505050604051805190501515612e7957600080fd5b86600160a060020a03167f2bf327e052ee7ab98550e3d864a5b2a61f7737dc75cbcaada4e55f88222ebbd78e8e8e8e86604051941515855263ffffffff90931660208501526001608060020a0391821660408086019190915291166060840152901515608083015260a0909101905180910390a2600197505b5050505050505095945050505050565b6000806000612f0f614084565b600033935086612f2a57600c54600160a060020a0316612f37565b600d54600160a060020a03165b9250612f4383876135f6565b9150600160a060020a0384168251600160a060020a031614612f6457600080fd5b86612f73578160800151612f79565b81606001515b6001608060020a03169050612f90848260006138be565b1515612f9b57600080fd5b612fcc838589612fb657600754600160a060020a0316612fc6565b60008051602061416f8339815191525b89613999565b1515612fd757600080fd5b8160600151600160a060020a0385166000908152600e602052604081206001608060020a039290921691908961301857600754600160a060020a0316613028565b60008051602061416f8339815191525b600160a060020a0390811682526020820192909252604001600020805490920190915584167f179f16fddc625e40df9cb92cfcea70d64a6262c82b7a769e52996b1ff511ff56888860608601518660800151604051931515845263ffffffff90921660208401526001608060020a03908116604080850191909152911660608301526080909101905180910390a25060019695505050505050565b6000805b6020811015611e205760008160019060020a0284600101541611156130ed576001909101905b6001016130c7565b6130fd614072565b613105614084565b60008060008086600160a060020a031663a3fb59176000604051604001526040518163ffffffff1660e060020a0281526004016040805180830381600087803b151561315057600080fd5b6102c65a03f1151561316157600080fd5b50505060405180519060200180519195509093505082156131a357600060405180591061318b5750595b908082528060200260200182016040525095506132a9565b600091505b846040015115156131d1576131bd87856135f6565b9450600190910190602085015193506131a8565b816040518059106131df5750595b9080825280602002602001820160405250955086600160a060020a031663a3fb59176000604051604001526040518163ffffffff1660e060020a0281526004016040805180830381600087803b151561323757600080fd5b6102c65a03f1151561324857600080fd5b505050604051805190602001805115156040880152509350600090505b818110156132a9578386828151811061327a57fe5b63ffffffff90921660209283029091019091015261329887856135f6565b945084602001519350600101613265565b5050505050919050565b60008060006132c0614084565b60008080600160a060020a038a1660008051602061416f833981519152146132f357600d54600160a060020a0316613300565b600c54600160a060020a03165b95508892506000915085600160a060020a031663a3fb59176000604051604001526040518163ffffffff1660e060020a0281526004016040805180830381600087803b151561334e57600080fd5b6102c65a03f1151561335f57600080fd5b5050506040518051906020018051151560408701525094505b6000836001608060020a031611801561339357508360400151155b15613466576133a286866135f6565b9350826001608060020a031684608001516001608060020a0316116133fa578360600151820191508360800151909203916133ea8451868c8b88608001518960600151613a72565b15156133f557600080fd5b61345a565b83608001516001608060020a0316836001608060020a031685606001516001608060020a03160281151561342a57fe5b0491820191905061344a8451868c8b87868a606001518b60800151613b67565b151561345557600080fd5b600092505b83602001519450613378565b6001608060020a03831615801561348657506000826001608060020a0316115b151561349157600080fd5b506001608060020a031698975050505050505050565b600080600160a060020a03831660008051602061416f83398151915214156134d25760129150611e20565b50600160a060020a0382166000908152602081905260409020548015156111ef5782600160a060020a031663313ce5676000604051602001526040518163ffffffff1660e060020a028152600401602060405180830381600087803b151561353957600080fd5b6102c65a03f1151561354a57600080fd5b505050604051805190509150611e20565b60006b204fce5e3e2502611000000085111561357657600080fd5b6b204fce5e3e2502611000000084111561358f57600080fd5b8282106135ca57601283830311156135a657600080fd5b84838303600a0a02670de0b6b3a764000085028115156135c257fe5b049050611500565b601282840311156135da57600080fd5b84828403600a0a670de0b6b3a76400008602028115156135c257fe5b6135fe614084565b600083600160a060020a03166361592b8584600060405160a0015260405163ffffffff83811660e060020a02825291909116600482015260240160a060405180830381600087803b151561365157600080fd5b6102c65a03f1151561366257600080fd5b505050604051805190602001805190602001805190602001805190602001805163ffffffff16602088019081526001608060020a039384166080890152939092166060870152600160a060020a039093168552509091506001905163ffffffff161460408301525092915050565b805460009063ffffffff1615156136e957506001610df5565b506000919050565b815460009063ffffffff168190111561370c575060006111ef565b50815463ffffffff191663ffffffff91909116178155600060019182015590565b6000808461373b578261373d565b835b6004546001608060020a0391909116915081101561375a57600080fd5b61376e8686866001608060020a0316613dca565b151561377957600080fd5b6137838682613ea0565b151561378e57600080fd5b50600195945050505050565b60008082156137ce576007546137c790859087906137c090600160a060020a03166134a7565b601261355b565b90506137f1565b6007546137ee908590879060129061191490600160a060020a03166134a7565b90505b69d3c21bcecceda10000008111156114fc5760009150610d69565b60008060008761381c578361381e565b845b6001608060020a031691508761384857856001608060020a0316846001608060020a03160361385e565b866001608060020a0316856001608060020a0316035b60045490915082101561387057600080fd5b61388f8989896001608060020a0316886001608060020a031603613dca565b151561389a57600080fd5b6138a48982613ea0565b15156138af57600080fd5b50600198975050505050505050565b600080838311156138ce57600080fd5b600160a060020a03851660009081526010602052604090205484111561390c57600160a060020a03851660009081526010602052604081205561392c565b600160a060020a0385166000908152601060205260409020805485900390555b82151561393c5760019150610d69565b61394583610d71565b600160a060020a0386166000908152600f60205260409020549091508190101561396e57600080fd5b600160a060020a0385166000908152600f602052604090208054829003905560019150509392505050565b60008085600160a060020a031662d84fd88460006040516020015260405163ffffffff83811660e060020a028252919091166004820152602401602060405180830381600087803b15156139ec57600080fd5b6102c65a03f115156139fd57600080fd5b505050604051805190501515613a1257600080fd5b600160a060020a03841660008051602061416f83398151915214613a4d57600160a060020a0385166000908152601260205260409020613a66565b600160a060020a03851660009081526013602052604090205b90506137838184613f87565b600080600160a060020a03861660008051602061416f83398151915214613aa457600d54600160a060020a0316613ab1565b600c54600160a060020a03165b9050613abf8189878a613999565b1515613aca57600080fd5b7ffc2eaa59b7259e4eb0ce92d7a86fce8b0fb67fade6f9f69df98f4771035a50c28888600160a060020a03891660008051602061416f83398151915214604051600160a060020a03909316835263ffffffff909116602083015215156040808301919091526060909101905180910390a1613b5b8887866001608060020a0316866001608060020a03166000614004565b98975050505050505050565b6000808080806001608060020a03808716908a1610613b8557600080fd5b6001608060020a0380881690891610613b9d57600080fd5b95879003959488900394600160a060020a038b1660008051602061416f83398151915214613bd657600d54600160a060020a0316613be3565b600c54600160a060020a03165b9350600160a060020a038b1660008051602061416f83398151915214613c095786613c0b565b855b6001608060020a0316925060009150600260030154831015613c7a57600160a060020a03808e166000908152600e60209081526040808320938e1683529290522080546001608060020a038916019055829150613c6a848e8c8f613999565b1515613c7557600080fd5b613d1d565b83600160a060020a031663a590529e8d8989600260006040516040015260405163ffffffff86811660e060020a02825294851660048201526001608060020a039384166024820152919092166044820152911660648201526084016040805180830381600087803b1515613ced57600080fd5b6102c65a03f11515613cfe57600080fd5b50505060405180519060200180515090915050801515613d1d57600080fd5b7fd499cca7d46b5236c2cb522ceec930ccf485eefca1f0472c020a1b7328bf06438d8d600160a060020a038e1660008051602061416f8339815191521460008611604051600160a060020a03909416845263ffffffff9092166020840152151560408084019190915290151560608301526080909101905180910390a1613db98d8c8b6001608060020a03168b6001608060020a031686614004565b9d9c50505050505050505050505050565b60008083613de357600754600160a060020a0316613df3565b60008051602061416f8339815191525b90506000831215613e3557600160a060020a038581166000908152600e60209081526040808320938516835292905290812080549185900390910190556114fc565b600160a060020a038086166000908152600e602090815260408083209385168352929052205483901015613e6857600080fd5b600160a060020a038086166000908152600e602090815260408083209385168352929052208054849003905560019150509392505050565b6000806000831215613f155750600160a060020a0383166000908152601060205260408120549083900390811115613eed5750600160a060020a0383166000908152601060205260409020545b600160a060020a03841660009081526010602052604090208054829003905560019150613f80565b600160a060020a038416600090815260106020526040902054613f39908401611d7a565b600160a060020a0385166000908152600f60205260409020541015613f5d57600080fd5b600160a060020a0384166000908152601060205260409020805484019055600191505b5092915050565b81546000908190819063ffffffff9081169085161015613fa657600080fd5b845463ffffffff90811660200190851610613fc057600080fd5b50508254600184015463ffffffff9182169184169190910390600282900a90600090821611613fee57600080fd5b6001808601805483191690559250505092915050565b600080600160a060020a03861660008051602061416f8339815191521461402b578361402d565b845b600160a060020a038089166000908152600e60209081526040808320938b16835292905220805487019055905061406787848301836138be565b979650505050505050565b60206040519081016040526000815290565b60a0604051908101604090815260008083526020830181905290820181905260608201819052608082015290565b600160a060020a03811660008051602061416f83398151915214156140f257600160a060020a038116600090815260208190526040902060129055611d77565b80600160a060020a031663313ce5676000604051602001526040518163ffffffff1660e060020a028152600401602060405180830381600087803b151561413857600080fd5b6102c65a03f1151561414957600080fd5b5050506040518051600160a060020a03831660009081526020819052604090205550505600000000000000000000000000eeeeeeeeeeeeeeeeeeeeeeeeeeeeeeeeeeeeeeeea165627a7a72305820ee7685616dca632b46c45ab7d6996c4d19d0022550e2bf8918bf551e5344a8690029e12acf08fb18ff58234a202175353b298bbc088f0e3c0eab0986752c5701ce77a165627a7a72305820cc72375b5c366c41c40ad0abd5efabd56a8c9bd94ce0432c84e9eb7415ba6cae0029",
  "source": "pragma solidity 0.4.18;\n\n\nimport \"./OrderbookReserve.sol\";\nimport \"../FeeBurnerInterface.sol\";\n\n\ncontract InternalNetworkInterface {\n    function addReserve(\n        KyberReserveInterface reserve,\n        bool isPermissionless\n    )\n        public\n        returns(bool);\n\n    function removeReserve(\n        KyberReserveInterface reserve,\n        uint index\n    )\n        public\n        returns(bool);\n\n    function listPairForReserve(\n        address reserve,\n        ERC20 token,\n        bool ethToToken,\n        bool tokenToEth,\n        bool add\n    )\n        public\n        returns(bool);\n\n    FeeBurnerInterface public feeBurnerContract;\n}\n\n\ncontract PermissionlessOrderbookReserveLister {\n    // KNC burn fee per wei value of an order. 25 in BPS = 0.25%.\n    uint constant public ORDERBOOK_BURN_FEE_BPS = 25;\n\n    uint public minNewOrderValueUsd = 1000; // set in order book minimum USD value of a new limit order\n    uint public maxOrdersPerTrade;          // set in order book maximum orders to be traversed in rate query and trade\n\n    InternalNetworkInterface public kyberNetworkContract;\n    OrderListFactoryInterface public orderFactoryContract;\n    MedianizerInterface public medianizerContract;\n    ERC20 public kncToken;\n\n    enum ListingStage {NO_RESERVE, RESERVE_ADDED, RESERVE_INIT, RESERVE_LISTED}\n\n    mapping(address => OrderbookReserveInterface) public reserves; //Permissionless orderbook reserves mapped per token\n    mapping(address => ListingStage) public reserveListingStage;   //Reserves listing stage\n    mapping(address => bool) tokenListingBlocked;\n\n    function PermissionlessOrderbookReserveLister(\n        InternalNetworkInterface kyber,\n        OrderListFactoryInterface factory,\n        MedianizerInterface medianizer,\n        ERC20 knc,\n        address[] unsupportedTokens,\n        uint maxOrders,\n        uint minOrderValueUsd\n    )\n        public\n    {\n        require(kyber != address(0));\n        require(factory != address(0));\n        require(medianizer != address(0));\n        require(knc != address(0));\n        require(maxOrders > 1);\n        require(minOrderValueUsd > 0);\n\n        kyberNetworkContract = kyber;\n        orderFactoryContract = factory;\n        medianizerContract = medianizer;\n        kncToken = knc;\n        maxOrdersPerTrade = maxOrders;\n        minNewOrderValueUsd = minOrderValueUsd;\n\n        for (uint i = 0; i < unsupportedTokens.length; i++) {\n            require(unsupportedTokens[i] != address(0));\n            tokenListingBlocked[unsupportedTokens[i]] = true;\n        }\n    }\n\n    event TokenOrderbookListingStage(ERC20 token, ListingStage stage);\n\n    /// @dev anyone can call\n    function addOrderbookContract(ERC20 token) public returns(bool) {\n        require(reserveListingStage[token] == ListingStage.NO_RESERVE);\n        require(!(tokenListingBlocked[token]));\n\n        reserves[token] = new OrderbookReserve({\n            knc: kncToken,\n            reserveToken: token,\n            burner: kyberNetworkContract.feeBurnerContract(),\n            network: kyberNetworkContract,\n            medianizer: medianizerContract,\n            factory: orderFactoryContract,\n            minNewOrderUsd: minNewOrderValueUsd,\n            maxOrdersPerTrade: maxOrdersPerTrade,\n            burnFeeBps: ORDERBOOK_BURN_FEE_BPS\n        });\n\n        reserveListingStage[token] = ListingStage.RESERVE_ADDED;\n\n        TokenOrderbookListingStage(token, ListingStage.RESERVE_ADDED);\n        return true;\n    }\n\n    /// @dev anyone can call\n    function initOrderbookContract(ERC20 token) public returns(bool) {\n        require(reserveListingStage[token] == ListingStage.RESERVE_ADDED);\n        require(reserves[token].init());\n\n        reserveListingStage[token] = ListingStage.RESERVE_INIT;\n        TokenOrderbookListingStage(token, ListingStage.RESERVE_INIT);\n        return true;\n    }\n\n    /// @dev anyone can call\n    function listOrderbookContract(ERC20 token) public returns(bool) {\n        require(reserveListingStage[token] == ListingStage.RESERVE_INIT);\n\n        require(\n            kyberNetworkContract.addReserve(\n                KyberReserveInterface(reserves[token]),\n                true\n            )\n        );\n\n        require(\n            kyberNetworkContract.listPairForReserve(\n                KyberReserveInterface(reserves[token]),\n                token,\n                true,\n                true,\n                true\n            )\n        );\n\n        FeeBurnerInterface feeBurner = FeeBurnerInterface(kyberNetworkContract.feeBurnerContract());\n\n        feeBurner.setReserveData(\n            reserves[token], /* reserve */\n            ORDERBOOK_BURN_FEE_BPS, /* fee */\n            reserves[token] /* kncWallet */\n        );\n\n        reserveListingStage[token] = ListingStage.RESERVE_LISTED;\n        TokenOrderbookListingStage(token, ListingStage.RESERVE_LISTED);\n        return true;\n    }\n\n    function unlistOrderbookContract(ERC20 token, uint hintReserveIndex) public {\n        require(reserveListingStage[token] == ListingStage.RESERVE_LISTED);\n        require(reserves[token].kncRateBlocksTrade());\n        require(kyberNetworkContract.removeReserve(KyberReserveInterface(reserves[token]), hintReserveIndex));\n        reserveListingStage[token] = ListingStage.NO_RESERVE;\n        reserves[token] = OrderbookReserveInterface(0);\n        TokenOrderbookListingStage(token, ListingStage.NO_RESERVE);\n    }\n\n    /// @dev permission less reserve currently supports one token per reserve.\n    function getOrderbookListingStage(ERC20 token)\n        public\n        view\n        returns(address, ListingStage)\n    {\n        return (reserves[token], reserveListingStage[token]);\n    }\n}\n",
  "sourcePath": "/home/node/app/workshop-master/contracts/permissionless/PermissionlessOrderbookReserveLister.sol",
  "compiler": {
    "name": "solc",
    "version": "0.4.18+commit.9cf6e910.Emscripten.clang"
  },
  "schemaVersion": "3.0.16",
  "updatedAt": "2019-10-11T14:32:49.754Z",
  "devdoc": {
    "methods": {
      "addOrderbookContract(address)": {
        "details": "anyone can call"
      },
      "getOrderbookListingStage(address)": {
        "details": "permission less reserve currently supports one token per reserve."
      },
      "initOrderbookContract(address)": {
        "details": "anyone can call"
      },
      "listOrderbookContract(address)": {
        "details": "anyone can call"
      }
    }
  },
  "userdoc": {
    "methods": {}
  }
}