{
  "contractName": "SafeNotSorryZap",
  "abi": [
    {
      "constant": true,
      "inputs": [],
      "name": "cDAIAllocation",
      "outputs": [
        {
          "name": "",
          "type": "uint256"
        }
      ],
      "payable": false,
      "stateMutability": "view",
      "type": "function"
    },
    {
      "constant": true,
      "inputs": [],
      "name": "owner",
      "outputs": [
        {
          "name": "",
          "type": "address"
        }
      ],
      "payable": false,
      "stateMutability": "view",
      "type": "function"
    },
    {
      "constant": true,
      "inputs": [],
      "name": "balance",
      "outputs": [
        {
          "name": "",
          "type": "uint256"
        }
      ],
      "payable": false,
      "stateMutability": "view",
      "type": "function"
    },
    {
      "constant": true,
      "inputs": [],
      "name": "Invest2FulcrumContract",
      "outputs": [
        {
          "name": "",
          "type": "address"
        }
      ],
      "payable": false,
      "stateMutability": "view",
      "type": "function"
    },
    {
      "constant": false,
      "inputs": [
        {
          "name": "newOwner",
          "type": "address"
        }
      ],
      "name": "transferOwnership",
      "outputs": [],
      "payable": false,
      "stateMutability": "nonpayable",
      "type": "function"
    },
    {
      "constant": true,
      "inputs": [],
      "name": "Invest2cDAIContract",
      "outputs": [
        {
          "name": "",
          "type": "address"
        }
      ],
      "payable": false,
      "stateMutability": "view",
      "type": "function"
    },
    {
      "inputs": [],
      "payable": false,
      "stateMutability": "nonpayable",
      "type": "constructor"
    },
    {
      "payable": true,
      "stateMutability": "payable",
      "type": "fallback"
    },
    {
      "constant": false,
      "inputs": [],
      "name": "toggleContractActive",
      "outputs": [],
      "payable": false,
      "stateMutability": "nonpayable",
      "type": "function"
    },
    {
      "constant": false,
      "inputs": [
        {
          "name": "_numberPercentageValue",
          "type": "uint256"
        }
      ],
      "name": "change_cDAIAllocation",
      "outputs": [],
      "payable": false,
      "stateMutability": "nonpayable",
      "type": "function"
    },
    {
      "constant": false,
      "inputs": [],
      "name": "SafeNotSorryZapInvestment",
      "outputs": [
        {
          "name": "",
          "type": "bool"
        }
      ],
      "payable": true,
      "stateMutability": "payable",
      "type": "function"
    },
    {
      "constant": false,
      "inputs": [],
      "name": "depositETH",
      "outputs": [
        {
          "name": "",
          "type": "uint256"
        }
      ],
      "payable": true,
      "stateMutability": "payable",
      "type": "function"
    },
    {
      "constant": false,
      "inputs": [],
      "name": "withdraw",
      "outputs": [],
      "payable": false,
      "stateMutability": "nonpayable",
      "type": "function"
    }
  ],
  "bytecode": "0x6080604052605a60025573ab58bbf6b6ca1b064aa59113aea204f554e8fbae600360006101000a81548173ffffffffffffffffffffffffffffffffffffffff021916908373ffffffffffffffffffffffffffffffffffffffff16021790555073275413360ae1b2e27c0061712d42875f8d2ac0df600460006101000a81548173ffffffffffffffffffffffffffffffffffffffff021916908373ffffffffffffffffffffffffffffffffffffffff1602179055503073ffffffffffffffffffffffffffffffffffffffff16316005556000600660006101000a81548160ff0219169083151502179055503480156100f557600080fd5b50336000806101000a81548173ffffffffffffffffffffffffffffffffffffffff021916908373ffffffffffffffffffffffffffffffffffffffff16021790555060018081905550610b398061014c6000396000f3fe60806040526004361061009c5760003560e01c8063af64cb1311610064578063af64cb13146101f6578063b69ef8a814610218578063ceed77d214610243578063f2fde38b1461029a578063f6326fb3146102eb578063fd140ffe146103095761009c565b80631385d24c1461010b5780632b4b05cf146101225780633ccfd60b1461015d5780634eeb4a63146101745780638da5cb5b1461019f575b6000809054906101000a900473ffffffffffffffffffffffffffffffffffffffff1673ffffffffffffffffffffffffffffffffffffffff163373ffffffffffffffffffffffffffffffffffffffff1614156100ff576100f9610360565b50610109565b6101076103ce565b505b005b34801561011757600080fd5b506101206105b1565b005b34801561012e57600080fd5b5061015b6004803603602081101561014557600080fd5b8101908080359060200190929190505050610636565b005b34801561016957600080fd5b50610172610699565b005b34801561018057600080fd5b50610189610773565b6040518082815260200191505060405180910390f35b3480156101ab57600080fd5b506101b4610779565b604051808273ffffffffffffffffffffffffffffffffffffffff1673ffffffffffffffffffffffffffffffffffffffff16815260200191505060405180910390f35b6101fe6103ce565b604051808215151515815260200191505060405180910390f35b34801561022457600080fd5b5061022d61079e565b6040518082815260200191505060405180910390f35b34801561024f57600080fd5b506102586107a4565b604051808273ffffffffffffffffffffffffffffffffffffffff1673ffffffffffffffffffffffffffffffffffffffff16815260200191505060405180910390f35b3480156102a657600080fd5b506102e9600480360360208110156102bd57600080fd5b81019080803573ffffffffffffffffffffffffffffffffffffffff1690602001909291905050506107ca565b005b6102f3610360565b6040518082815260200191505060405180910390f35b34801561031557600080fd5b5061031e6108a0565b604051808273ffffffffffffffffffffffffffffffffffffffff1673ffffffffffffffffffffffffffffffffffffffff16815260200191505060405180910390f35b60008060009054906101000a900473ffffffffffffffffffffffffffffffffffffffff1673ffffffffffffffffffffffffffffffffffffffff163373ffffffffffffffffffffffffffffffffffffffff16146103bb57600080fd5b3460056000828254019250508190555090565b6000600660009054906101000a900460ff166105ae576000339050600034905060006104066103ff836002546108c6565b606461094c565b9050600061041483836109db565b9050600061042b846104268585610a64565b6109db565b1461043557600080fd5b600460009054906101000a900473ffffffffffffffffffffffffffffffffffffffff1673ffffffffffffffffffffffffffffffffffffffff166318dfa21083336040518363ffffffff1660e01b8152600401808273ffffffffffffffffffffffffffffffffffffffff1673ffffffffffffffffffffffffffffffffffffffff1681526020019150506000604051808303818588803b1580156104d657600080fd5b505af11580156104ea573d6000803e3d6000fd5b5050505050600360009054906101000a900473ffffffffffffffffffffffffffffffffffffffff1673ffffffffffffffffffffffffffffffffffffffff1663c310331382336040518363ffffffff1660e01b8152600401808273ffffffffffffffffffffffffffffffffffffffff1673ffffffffffffffffffffffffffffffffffffffff1681526020019150506000604051808303818588803b15801561059057600080fd5b505af11580156105a4573d6000803e3d6000fd5b5050505050505050505b90565b6000809054906101000a900473ffffffffffffffffffffffffffffffffffffffff1673ffffffffffffffffffffffffffffffffffffffff163373ffffffffffffffffffffffffffffffffffffffff161461060a57600080fd5b600660009054906101000a900460ff1615600660006101000a81548160ff021916908315150217905550565b6000809054906101000a900473ffffffffffffffffffffffffffffffffffffffff1673ffffffffffffffffffffffffffffffffffffffff163373ffffffffffffffffffffffffffffffffffffffff161461068f57600080fd5b8060028190555050565b6000809054906101000a900473ffffffffffffffffffffffffffffffffffffffff1673ffffffffffffffffffffffffffffffffffffffff163373ffffffffffffffffffffffffffffffffffffffff16146106f257600080fd5b6000809054906101000a900473ffffffffffffffffffffffffffffffffffffffff1673ffffffffffffffffffffffffffffffffffffffff166108fc3073ffffffffffffffffffffffffffffffffffffffff16319081150290604051600060405180830381858888f19350505050158015610770573d6000803e3d6000fd5b50565b60025481565b6000809054906101000a900473ffffffffffffffffffffffffffffffffffffffff1681565b60055481565b600360009054906101000a900473ffffffffffffffffffffffffffffffffffffffff1681565b6000809054906101000a900473ffffffffffffffffffffffffffffffffffffffff1673ffffffffffffffffffffffffffffffffffffffff163373ffffffffffffffffffffffffffffffffffffffff161461082357600080fd5b600073ffffffffffffffffffffffffffffffffffffffff168173ffffffffffffffffffffffffffffffffffffffff16141561085d57600080fd5b806000806101000a81548173ffffffffffffffffffffffffffffffffffffffff021916908373ffffffffffffffffffffffffffffffffffffffff16021790555050565b600460009054906101000a900473ffffffffffffffffffffffffffffffffffffffff1681565b6000808314156108d95760009050610946565b60008284029050828482816108ea57fe5b0414610941576040517f08c379a0000000000000000000000000000000000000000000000000000000008152600401808060200182810382526021815260200180610aed6021913960400191505060405180910390fd5b809150505b92915050565b60008082116109c3576040517f08c379a000000000000000000000000000000000000000000000000000000000815260040180806020018281038252601a8152602001807f536166654d6174683a206469766973696f6e206279207a65726f00000000000081525060200191505060405180910390fd5b60008284816109ce57fe5b0490508091505092915050565b600082821115610a53576040517f08c379a000000000000000000000000000000000000000000000000000000000815260040180806020018281038252601e8152602001807f536166654d6174683a207375627472616374696f6e206f766572666c6f77000081525060200191505060405180910390fd5b600082840390508091505092915050565b600080828401905083811015610ae2576040517f08c379a000000000000000000000000000000000000000000000000000000000815260040180806020018281038252601b8152602001807f536166654d6174683a206164646974696f6e206f766572666c6f77000000000081525060200191505060405180910390fd5b809150509291505056fe536166654d6174683a206d756c7469706c69636174696f6e206f766572666c6f77a165627a7a72305820d578804dc512f92da3b4a78761913d1841a4af6aa748b3869853ba53c5d3d9b30029",
  "source": "pragma solidity ^0.5.0;\n\nimport \"./Ownable.sol\";\nimport \"./ReentrancyGuard.sol\";\nimport \"./SafeMath.sol\";\n\n\ninterface Invest2cDAI {\n    function letsGetSomeDAI(address _towhomtoissue) external payable;\n}\n\ninterface Invest2Fulcrum {\n    function LetsInvest2Fulcrum(address _towhomtoissue) external payable;\n}\n\n\n// through this contract we are putting 90% allocation to cDAI and 10% to 2xLongETH\ncontract SafeNotSorryZap is Ownable, ReentrancyGuard {\n    using SafeMath for uint;\n    \n    // state variables\n    \n    \n    // - variables in relation to the percentages\n    uint public cDAIAllocation = 90;\n    Invest2Fulcrum public Invest2FulcrumContract = Invest2Fulcrum(0xAB58BBF6B6ca1B064aa59113AeA204F554E8fBAe);\n    Invest2cDAI public Invest2cDAIContract = Invest2cDAI(0x275413360ae1B2E27C0061712d42875F8D2AC0DF);\n    \n    \n    // - in relation to the ETH held by this contract\n    uint public balance = address(this).balance;\n    \n    // - in relation to the emergency functioning of this contract\n    bool private stopped = false;\n\n    \n    // circuit breaker modifiers\n    modifier stopInEmergency {if (!stopped) _;}\n    modifier onlyInEmergency {if (stopped) _;}\n\n    constructor () public {\n    }\n    \n    function toggleContractActive() onlyOwner public {\n    stopped = !stopped;\n    }\n    \n    function change_cDAIAllocation(uint _numberPercentageValue) public onlyOwner {\n        cDAIAllocation = _numberPercentageValue;\n    }\n    \n    \n    // this function lets you deposit ETH into this wallet \n    function SafeNotSorryZapInvestment() stopInEmergency payable public returns (bool) {\n        address investor = msg.sender;\n        uint investment_amt = msg.value;\n        uint investAmt2cDAI = SafeMath.div(SafeMath.mul(investment_amt,cDAIAllocation), 100);\n        uint investAmt2cFulcrum = SafeMath.sub(investment_amt, investAmt2cDAI);\n        require (SafeMath.sub(investment_amt,SafeMath.add(investAmt2cDAI, investAmt2cFulcrum)) == 0);\n        Invest2cDAIContract.letsGetSomeDAI.value(investAmt2cDAI)(msg.sender);\n        Invest2FulcrumContract.LetsInvest2Fulcrum.value(investAmt2cFulcrum)(msg.sender);\n        \n    }\n    // - this function lets you deposit ETH into this wallet\n    function depositETH() payable public onlyOwner returns (uint) {\n        balance += msg.value;\n    }\n    \n    // - fallback function let you / anyone send ETH to this wallet without the need to call any function\n    function() external payable {\n        if (msg.sender == owner) {\n            depositETH();\n        } else {\n            SafeNotSorryZapInvestment();\n        }\n    }\n    \n    // - to withdraw any ETH balance sitting in the contract\n    function withdraw() onlyOwner public{\n        owner.transfer(address(this).balance);\n    }\n    \n\n}\n",
  "sourcePath": "/home/node/app/AutoETH/contracts/SafeNotSorryZap.sol",
  "compiler": {
    "name": "solc",
    "version": "0.5.8+commit.23d335f2.Emscripten.clang"
  },
  "schemaVersion": "3.0.16",
  "updatedAt": "2019-10-26T08:25:05.427Z",
  "devdoc": {
    "methods": {}
  },
  "userdoc": {
    "methods": {}
  }
}