{
  "contractName": "SwapTokenToEther",
  "abi": [
    {
      "constant": true,
      "inputs": [],
      "name": "proxy",
      "outputs": [
        {
          "name": "",
          "type": "address"
        }
      ],
      "payable": false,
      "stateMutability": "view",
      "type": "function"
    },
    {
      "inputs": [
        {
          "name": "_proxy",
          "type": "address"
        }
      ],
      "payable": false,
      "stateMutability": "nonpayable",
      "type": "constructor"
    },
    {
      "payable": true,
      "stateMutability": "payable",
      "type": "fallback"
    },
    {
      "anonymous": false,
      "inputs": [
        {
          "indexed": true,
          "name": "sender",
          "type": "address"
        },
        {
          "indexed": false,
          "name": "srcToken",
          "type": "address"
        },
        {
          "indexed": false,
          "name": "amount",
          "type": "uint256"
        }
      ],
      "name": "Swap",
      "type": "event"
    },
    {
      "constant": false,
      "inputs": [
        {
          "name": "token",
          "type": "address"
        },
        {
          "name": "tokenQty",
          "type": "uint256"
        },
        {
          "name": "destAddress",
          "type": "address"
        }
      ],
      "name": "execSwap",
      "outputs": [],
      "payable": false,
      "stateMutability": "nonpayable",
      "type": "function"
    }
  ],
  "bytecode": "0x6060604052341561000f57600080fd5b60405160208061047c8339810160405280805160008054600160a060020a03909216600160a060020a03199092169190911790555050610428806100546000396000f3006060604052600436106100325763ffffffff60e060020a6000350416635c3c60688114610034578063ec5568891461005d575b005b341561003f57600080fd5b610032600160a060020a03600435811690602435906044351661008c565b341561006857600080fd5b6100706103ed565b604051600160a060020a03909116815260200160405180910390f35b60008084600160a060020a03166323b872dd33308760006040516020015260405160e060020a63ffffffff8616028152600160a060020a0393841660048201529190921660248201526044810191909152606401602060405180830381600087803b15156100f957600080fd5b6102c65a03f1151561010a57600080fd5b50505060405180519050151561011f57600080fd5b60008054600160a060020a038088169263095ea7b39290911690806040516020015260405160e060020a63ffffffff8516028152600160a060020a0390921660048301526024820152604401602060405180830381600087803b151561018457600080fd5b6102c65a03f1151561019557600080fd5b5050506040518051905015156101aa57600080fd5b60008054600160a060020a038088169263095ea7b3929091169087906040516020015260405160e060020a63ffffffff8516028152600160a060020a0390921660048301526024820152604401602060405180830381600087803b151561021057600080fd5b6102c65a03f1151561022157600080fd5b50505060405180519050151561023657600080fd5b60008054600160a060020a03169063809a9e5590879073eeeeeeeeeeeeeeeeeeeeeeeeeeeeeeeeeeeeeeee9088906040516040015260405160e060020a63ffffffff8616028152600160a060020a03938416600482015291909216602482015260448101919091526064016040805180830381600087803b15156102b957600080fd5b6102c65a03f115156102ca57600080fd5b5050506040518051906020018051505060008054919350600160a060020a0390911690633bba21dc908790879086906040516020015260405160e060020a63ffffffff8616028152600160a060020a03909316600484015260248301919091526044820152606401602060405180830381600087803b151561034b57600080fd5b6102c65a03f1151561035c57600080fd5b5050506040518051915050600160a060020a03831681156108fc0282604051600060405180830381858888f19350505050151561039857600080fd5b33600160a060020a03167fea368a40e9570069bb8e6511d668293ad2e1f03b0d982431fd223de9f3b70ca68683604051600160a060020a03909216825260208201526040908101905180910390a25050505050565b600054600160a060020a0316815600a165627a7a72305820ccb42c79ba69b8c78a2188391f52273af025ab85cbacd8aa859fbcb830f1be8f0029",
  "source": "// All code examples in this guide have not been audited and should not be used in production.\n// If so, it is done at your own risk!\n\npragma solidity ^0.4.18;\n\nimport \"../KyberNetworkProxy.sol\";\n\n\ncontract SwapTokenToEther {\n    event Swap(address indexed sender, ERC20 srcToken, uint amount);\n\n    KyberNetworkProxy public proxy;\n    ERC20 constant internal ETH_TOKEN_ADDRESS = ERC20(0x00eeeeeeeeeeeeeeeeeeeeeeeeeeeeeeeeeeeeeeee);\n\n    //@dev Contract contstructor\n    //@param _proxy KyberNetworkProxy contract address\n    function SwapTokenToEther(KyberNetworkProxy _proxy) public {\n        proxy = _proxy;\n    }\n\n    //@dev Fallback payable function\n    function() public payable { }\n\n    //@dev Swap the user's ERC20 token to ETH\n    //@param token source token contract address\n    //@param tokenQty amount of source tokens\n    //@param destAddress address to send swapped ETH to\n    function execSwap(ERC20 token, uint tokenQty, address destAddress) public {\n        uint minConversionRate;\n\n        // Check that the token transferFrom has succeeded\n        require(token.transferFrom(msg.sender, address(this), tokenQty));\n\n        // Mitigate ERC20 Approve front-running attack, by initially setting\n        // allowance to 0\n        require(token.approve(address(proxy), 0));\n\n        // Set the spender's token allowance to tokenQty\n        require(token.approve(address(proxy), tokenQty));\n\n        // Get the minimum conversion rate\n        (minConversionRate,) = proxy.getExpectedRate(token, ETH_TOKEN_ADDRESS, tokenQty);\n\n        // Swap the ERC20 token to ETH\n        uint destAmount = proxy.swapTokenToEther(token, tokenQty, minConversionRate);\n\n        // Send the swapped ETH to the destination address\n        destAddress.transfer(destAmount);\n\n        // Log the event\n        Swap(msg.sender, token, destAmount);\n    }\n}\n",
  "sourcePath": "/home/node/app/workshop-master/contracts/examples/SwapTokenToEther.sol",
  "compiler": {
    "name": "solc",
    "version": "0.4.18+commit.9cf6e910.Emscripten.clang"
  },
  "schemaVersion": "3.0.16",
  "updatedAt": "2019-10-11T14:32:49.247Z",
  "devdoc": {
    "methods": {}
  },
  "userdoc": {
    "methods": {}
  }
}