{
  "contractName": "SwapTokenToToken",
  "abi": [
    {
      "constant": true,
      "inputs": [],
      "name": "proxy",
      "outputs": [
        {
          "name": "",
          "type": "address"
        }
      ],
      "payable": false,
      "stateMutability": "view",
      "type": "function"
    },
    {
      "inputs": [
        {
          "name": "_proxy",
          "type": "address"
        }
      ],
      "payable": false,
      "stateMutability": "nonpayable",
      "type": "constructor"
    },
    {
      "anonymous": false,
      "inputs": [
        {
          "indexed": true,
          "name": "sender",
          "type": "address"
        },
        {
          "indexed": false,
          "name": "srcToken",
          "type": "address"
        },
        {
          "indexed": false,
          "name": "destToken",
          "type": "address"
        },
        {
          "indexed": false,
          "name": "amount",
          "type": "uint256"
        }
      ],
      "name": "Swap",
      "type": "event"
    },
    {
      "constant": false,
      "inputs": [
        {
          "name": "srcToken",
          "type": "address"
        },
        {
          "name": "srcQty",
          "type": "uint256"
        },
        {
          "name": "destToken",
          "type": "address"
        },
        {
          "name": "destAddress",
          "type": "address"
        }
      ],
      "name": "execSwap",
      "outputs": [],
      "payable": false,
      "stateMutability": "nonpayable",
      "type": "function"
    }
  ],
  "bytecode": "0x6060604052341561000f57600080fd5b6040516020806104f28339810160405280805160008054600160a060020a03909216600160a060020a0319909216919091179055505061049e806100546000396000f3006060604052600436106100325763ffffffff60e060020a6000350416635d47135c8114610037578063ec55688914610068575b600080fd5b341561004257600080fd5b610066600160a060020a036004358116906024359060443581169060643516610097565b005b341561007357600080fd5b61007b610463565b604051600160a060020a03909116815260200160405180910390f35b60008085600160a060020a03166323b872dd33308860006040516020015260405160e060020a63ffffffff8616028152600160a060020a0393841660048201529190921660248201526044810191909152606401602060405180830381600087803b151561010457600080fd5b6102c65a03f1151561011557600080fd5b50505060405180519050151561012a57600080fd5b60008054600160a060020a038089169263095ea7b39290911690806040516020015260405160e060020a63ffffffff8516028152600160a060020a0390921660048301526024820152604401602060405180830381600087803b151561018f57600080fd5b6102c65a03f115156101a057600080fd5b5050506040518051905015156101b557600080fd5b60008054600160a060020a038089169263095ea7b3929091169088906040516020015260405160e060020a63ffffffff8516028152600160a060020a0390921660048301526024820152604401602060405180830381600087803b151561021b57600080fd5b6102c65a03f1151561022c57600080fd5b50505060405180519050151561024157600080fd5b60008054600160a060020a03169063809a9e5590889073eeeeeeeeeeeeeeeeeeeeeeeeeeeeeeeeeeeeeeee9089906040516040015260405160e060020a63ffffffff8616028152600160a060020a03938416600482015291909216602482015260448101919091526064016040805180830381600087803b15156102c457600080fd5b6102c65a03f115156102d557600080fd5b5050506040518051906020018051505060008054919350600160a060020a0390911690637409e2eb9088908890889087906040516020015260405160e060020a63ffffffff8716028152600160a060020a0394851660048201526024810193909352921660448201526064810191909152608401602060405180830381600087803b151561036257600080fd5b6102c65a03f1151561037357600080fd5b5050506040518051915050600160a060020a03841663a9059cbb848360006040516020015260405160e060020a63ffffffff8516028152600160a060020a0390921660048301526024820152604401602060405180830381600087803b15156103db57600080fd5b6102c65a03f115156103ec57600080fd5b50505060405180519050151561040157600080fd5b33600160a060020a03167fffebebfb273923089a3ed6bac0fd4686ac740307859becadeb82f998e30db614878684604051600160a060020a039384168152919092166020820152604080820192909252606001905180910390a2505050505050565b600054600160a060020a0316815600a165627a7a723058203d2980c1816401edfcbf23ea56cd269b272b2597088f424f23e190fca554f4a00029",
  "source": "// All code examples in this guide have not been audited and should not be used in production.\n// If so, it is done at your own risk!\n\npragma solidity ^0.4.18;\n\nimport \"../KyberNetworkProxy.sol\";\n\n\ncontract SwapTokenToToken {\n    event Swap(address indexed sender, ERC20 srcToken, ERC20 destToken, uint amount);\n\n    KyberNetworkProxy public proxy;\n    ERC20 constant internal ETH_TOKEN_ADDRESS = ERC20(0x00eeeeeeeeeeeeeeeeeeeeeeeeeeeeeeeeeeeeeeee);\n\n    //@dev Contract contstructor\n    //@param _proxy KyberNetworkProxy contract address\n    function SwapTokenToToken(KyberNetworkProxy _proxy) public {\n        proxy = _proxy;\n    }\n\n    //@dev Swap the user's ERC20 token to another ERC20 token\n    //@param srcToken source token contract address\n    //@param srcQty amount of source tokens\n    //@param destToken destination token contract address\n    //@param destAddress address to send swapped tokens to\n    function execSwap(ERC20 srcToken, uint srcQty, ERC20 destToken, address destAddress) public {\n        uint minConversionRate;\n\n        // Check that the token transferFrom has succeeded\n        require(srcToken.transferFrom(msg.sender, address(this), srcQty));\n\n        // Mitigate ERC20 Approve front-running attack, by initially setting\n        // allowance to 0\n        require(srcToken.approve(address(proxy), 0));\n\n        // Set the spender's token allowance to tokenQty\n        require(srcToken.approve(address(proxy), srcQty));\n\n        // Get the minimum conversion rate\n        (minConversionRate,) = proxy.getExpectedRate(srcToken, ETH_TOKEN_ADDRESS, srcQty);\n\n        // Swap the ERC20 token to ETH\n        uint destAmount = proxy.swapTokenToToken(srcToken, srcQty, destToken, minConversionRate);\n\n        // Send the swapped tokens to the destination address\n        require(destToken.transfer(destAddress, destAmount));\n\n        // Log the event\n        Swap(msg.sender, srcToken, destToken, destAmount);\n    }\n}\n",
  "sourcePath": "/home/node/app/workshop-master/contracts/examples/SwapTokenToToken.sol",
  "compiler": {
    "name": "solc",
    "version": "0.4.18+commit.9cf6e910.Emscripten.clang"
  },
  "schemaVersion": "3.0.16",
  "updatedAt": "2019-10-11T14:32:49.254Z",
  "devdoc": {
    "methods": {}
  },
  "userdoc": {
    "methods": {}
  }
}