{
  "contractName": "TestingKyberUniswapReserve",
  "abi": [
    {
      "constant": false,
      "inputs": [],
      "name": "enableTrade",
      "outputs": [
        {
          "name": "",
          "type": "bool"
        }
      ],
      "payable": false,
      "stateMutability": "nonpayable",
      "type": "function"
    },
    {
      "constant": false,
      "inputs": [
        {
          "name": "alerter",
          "type": "address"
        }
      ],
      "name": "removeAlerter",
      "outputs": [],
      "payable": false,
      "stateMutability": "nonpayable",
      "type": "function"
    },
    {
      "constant": true,
      "inputs": [
        {
          "name": "",
          "type": "address"
        }
      ],
      "name": "tokenExchange",
      "outputs": [
        {
          "name": "",
          "type": "address"
        }
      ],
      "payable": false,
      "stateMutability": "view",
      "type": "function"
    },
    {
      "constant": true,
      "inputs": [
        {
          "name": "",
          "type": "address"
        }
      ],
      "name": "internalPricePremiumBps",
      "outputs": [
        {
          "name": "",
          "type": "uint256"
        }
      ],
      "payable": false,
      "stateMutability": "view",
      "type": "function"
    },
    {
      "constant": false,
      "inputs": [
        {
          "name": "token",
          "type": "address"
        }
      ],
      "name": "listToken",
      "outputs": [],
      "payable": false,
      "stateMutability": "nonpayable",
      "type": "function"
    },
    {
      "constant": true,
      "inputs": [],
      "name": "feeBps",
      "outputs": [
        {
          "name": "",
          "type": "uint256"
        }
      ],
      "payable": false,
      "stateMutability": "view",
      "type": "function"
    },
    {
      "constant": true,
      "inputs": [],
      "name": "pendingAdmin",
      "outputs": [
        {
          "name": "",
          "type": "address"
        }
      ],
      "payable": false,
      "stateMutability": "view",
      "type": "function"
    },
    {
      "constant": true,
      "inputs": [],
      "name": "getOperators",
      "outputs": [
        {
          "name": "",
          "type": "address[]"
        }
      ],
      "payable": false,
      "stateMutability": "view",
      "type": "function"
    },
    {
      "constant": true,
      "inputs": [],
      "name": "DEFAULT_FEE_BPS",
      "outputs": [
        {
          "name": "",
          "type": "uint256"
        }
      ],
      "payable": false,
      "stateMutability": "view",
      "type": "function"
    },
    {
      "constant": true,
      "inputs": [
        {
          "name": "token",
          "type": "address"
        },
        {
          "name": "amount",
          "type": "uint256"
        }
      ],
      "name": "addPremium",
      "outputs": [
        {
          "name": "",
          "type": "uint256"
        }
      ],
      "payable": false,
      "stateMutability": "view",
      "type": "function"
    },
    {
      "constant": false,
      "inputs": [
        {
          "name": "token",
          "type": "address"
        },
        {
          "name": "amount",
          "type": "uint256"
        },
        {
          "name": "sendTo",
          "type": "address"
        }
      ],
      "name": "withdrawToken",
      "outputs": [],
      "payable": false,
      "stateMutability": "nonpayable",
      "type": "function"
    },
    {
      "constant": false,
      "inputs": [
        {
          "name": "newAlerter",
          "type": "address"
        }
      ],
      "name": "addAlerter",
      "outputs": [],
      "payable": false,
      "stateMutability": "nonpayable",
      "type": "function"
    },
    {
      "constant": true,
      "inputs": [
        {
          "name": "",
          "type": "address"
        }
      ],
      "name": "internalInventoryMin",
      "outputs": [
        {
          "name": "",
          "type": "uint256"
        }
      ],
      "payable": false,
      "stateMutability": "view",
      "type": "function"
    },
    {
      "constant": false,
      "inputs": [
        {
          "name": "_kyberNetwork",
          "type": "address"
        }
      ],
      "name": "setKyberNetwork",
      "outputs": [],
      "payable": false,
      "stateMutability": "nonpayable",
      "type": "function"
    },
    {
      "constant": true,
      "inputs": [
        {
          "name": "srcToken",
          "type": "address"
        },
        {
          "name": "srcAmount",
          "type": "uint256"
        },
        {
          "name": "destToken",
          "type": "address"
        },
        {
          "name": "destAmount",
          "type": "uint256"
        },
        {
          "name": "rateSrcDest",
          "type": "uint256"
        },
        {
          "name": "rateDestSrc",
          "type": "uint256"
        }
      ],
      "name": "shouldUseInternalInventory",
      "outputs": [
        {
          "name": "",
          "type": "bool"
        }
      ],
      "payable": false,
      "stateMutability": "view",
      "type": "function"
    },
    {
      "constant": false,
      "inputs": [],
      "name": "disableTrade",
      "outputs": [
        {
          "name": "",
          "type": "bool"
        }
      ],
      "payable": false,
      "stateMutability": "nonpayable",
      "type": "function"
    },
    {
      "constant": false,
      "inputs": [
        {
          "name": "bps",
          "type": "uint256"
        }
      ],
      "name": "setFee",
      "outputs": [],
      "payable": false,
      "stateMutability": "nonpayable",
      "type": "function"
    },
    {
      "constant": false,
      "inputs": [
        {
          "name": "srcToken",
          "type": "address"
        },
        {
          "name": "srcAmount",
          "type": "uint256"
        },
        {
          "name": "destToken",
          "type": "address"
        },
        {
          "name": "destAddress",
          "type": "address"
        },
        {
          "name": "conversionRate",
          "type": "uint256"
        },
        {
          "name": "validate",
          "type": "bool"
        }
      ],
      "name": "trade",
      "outputs": [
        {
          "name": "",
          "type": "bool"
        }
      ],
      "payable": true,
      "stateMutability": "payable",
      "type": "function"
    },
    {
      "constant": false,
      "inputs": [
        {
          "name": "newAdmin",
          "type": "address"
        }
      ],
      "name": "transferAdmin",
      "outputs": [],
      "payable": false,
      "stateMutability": "nonpayable",
      "type": "function"
    },
    {
      "constant": false,
      "inputs": [],
      "name": "claimAdmin",
      "outputs": [],
      "payable": false,
      "stateMutability": "nonpayable",
      "type": "function"
    },
    {
      "constant": false,
      "inputs": [
        {
          "name": "newAdmin",
          "type": "address"
        }
      ],
      "name": "transferAdminQuickly",
      "outputs": [],
      "payable": false,
      "stateMutability": "nonpayable",
      "type": "function"
    },
    {
      "constant": true,
      "inputs": [
        {
          "name": "src",
          "type": "address"
        },
        {
          "name": "dest",
          "type": "address"
        }
      ],
      "name": "isValidTokens",
      "outputs": [
        {
          "name": "",
          "type": "bool"
        }
      ],
      "payable": false,
      "stateMutability": "view",
      "type": "function"
    },
    {
      "constant": false,
      "inputs": [
        {
          "name": "token",
          "type": "address"
        },
        {
          "name": "minSpreadBps",
          "type": "uint256"
        },
        {
          "name": "premiumBps",
          "type": "uint256"
        }
      ],
      "name": "setInternalActivationConfig",
      "outputs": [],
      "payable": false,
      "stateMutability": "nonpayable",
      "type": "function"
    },
    {
      "constant": true,
      "inputs": [],
      "name": "getAlerters",
      "outputs": [
        {
          "name": "",
          "type": "address[]"
        }
      ],
      "payable": false,
      "stateMutability": "view",
      "type": "function"
    },
    {
      "constant": true,
      "inputs": [
        {
          "name": "src",
          "type": "address"
        },
        {
          "name": "dest",
          "type": "address"
        },
        {
          "name": "srcQty",
          "type": "uint256"
        },
        {
          "name": "blockNumber",
          "type": "uint256"
        }
      ],
      "name": "getConversionRate",
      "outputs": [
        {
          "name": "",
          "type": "uint256"
        }
      ],
      "payable": false,
      "stateMutability": "view",
      "type": "function"
    },
    {
      "constant": true,
      "inputs": [],
      "name": "uniswapFactory",
      "outputs": [
        {
          "name": "",
          "type": "address"
        }
      ],
      "payable": false,
      "stateMutability": "view",
      "type": "function"
    },
    {
      "constant": false,
      "inputs": [
        {
          "name": "newOperator",
          "type": "address"
        }
      ],
      "name": "addOperator",
      "outputs": [],
      "payable": false,
      "stateMutability": "nonpayable",
      "type": "function"
    },
    {
      "constant": true,
      "inputs": [
        {
          "name": "",
          "type": "address"
        }
      ],
      "name": "internalInventoryMax",
      "outputs": [
        {
          "name": "",
          "type": "uint256"
        }
      ],
      "payable": false,
      "stateMutability": "view",
      "type": "function"
    },
    {
      "constant": false,
      "inputs": [
        {
          "name": "token",
          "type": "address"
        },
        {
          "name": "minBalance",
          "type": "uint256"
        },
        {
          "name": "maxBalance",
          "type": "uint256"
        }
      ],
      "name": "setInternalInventoryLimits",
      "outputs": [],
      "payable": false,
      "stateMutability": "nonpayable",
      "type": "function"
    },
    {
      "constant": true,
      "inputs": [
        {
          "name": "amount",
          "type": "uint256"
        }
      ],
      "name": "deductFee",
      "outputs": [
        {
          "name": "",
          "type": "uint256"
        }
      ],
      "payable": false,
      "stateMutability": "view",
      "type": "function"
    },
    {
      "constant": false,
      "inputs": [
        {
          "name": "token",
          "type": "address"
        }
      ],
      "name": "delistToken",
      "outputs": [],
      "payable": false,
      "stateMutability": "nonpayable",
      "type": "function"
    },
    {
      "constant": false,
      "inputs": [
        {
          "name": "operator",
          "type": "address"
        }
      ],
      "name": "removeOperator",
      "outputs": [],
      "payable": false,
      "stateMutability": "nonpayable",
      "type": "function"
    },
    {
      "constant": true,
      "inputs": [],
      "name": "kyberNetwork",
      "outputs": [
        {
          "name": "",
          "type": "address"
        }
      ],
      "payable": false,
      "stateMutability": "view",
      "type": "function"
    },
    {
      "constant": true,
      "inputs": [
        {
          "name": "_askRate",
          "type": "uint256"
        },
        {
          "name": "_bidRate",
          "type": "uint256"
        }
      ],
      "name": "calculateSpreadBps",
      "outputs": [
        {
          "name": "",
          "type": "int256"
        }
      ],
      "payable": false,
      "stateMutability": "pure",
      "type": "function"
    },
    {
      "constant": true,
      "inputs": [
        {
          "name": "",
          "type": "address"
        }
      ],
      "name": "internalActivationMinSpreadBps",
      "outputs": [
        {
          "name": "",
          "type": "uint256"
        }
      ],
      "payable": false,
      "stateMutability": "view",
      "type": "function"
    },
    {
      "constant": false,
      "inputs": [
        {
          "name": "amount",
          "type": "uint256"
        },
        {
          "name": "sendTo",
          "type": "address"
        }
      ],
      "name": "withdrawEther",
      "outputs": [],
      "payable": false,
      "stateMutability": "nonpayable",
      "type": "function"
    },
    {
      "constant": true,
      "inputs": [
        {
          "name": "token",
          "type": "address"
        },
        {
          "name": "user",
          "type": "address"
        }
      ],
      "name": "getBalance",
      "outputs": [
        {
          "name": "",
          "type": "uint256"
        }
      ],
      "payable": false,
      "stateMutability": "view",
      "type": "function"
    },
    {
      "constant": true,
      "inputs": [],
      "name": "tradeEnabled",
      "outputs": [
        {
          "name": "",
          "type": "bool"
        }
      ],
      "payable": false,
      "stateMutability": "view",
      "type": "function"
    },
    {
      "constant": true,
      "inputs": [],
      "name": "admin",
      "outputs": [
        {
          "name": "",
          "type": "address"
        }
      ],
      "payable": false,
      "stateMutability": "view",
      "type": "function"
    },
    {
      "inputs": [
        {
          "name": "_uniswapFactory",
          "type": "address"
        },
        {
          "name": "_admin",
          "type": "address"
        },
        {
          "name": "_kyberNetwork",
          "type": "address"
        }
      ],
      "payable": false,
      "stateMutability": "nonpayable",
      "type": "constructor"
    },
    {
      "payable": true,
      "stateMutability": "payable",
      "type": "fallback"
    },
    {
      "anonymous": false,
      "inputs": [
        {
          "indexed": true,
          "name": "sender",
          "type": "address"
        },
        {
          "indexed": false,
          "name": "src",
          "type": "address"
        },
        {
          "indexed": false,
          "name": "srcAmount",
          "type": "uint256"
        },
        {
          "indexed": false,
          "name": "destToken",
          "type": "address"
        },
        {
          "indexed": false,
          "name": "destAmount",
          "type": "uint256"
        },
        {
          "indexed": false,
          "name": "destAddress",
          "type": "address"
        },
        {
          "indexed": false,
          "name": "useInternalInventory",
          "type": "bool"
        }
      ],
      "name": "TradeExecute",
      "type": "event"
    },
    {
      "anonymous": false,
      "inputs": [
        {
          "indexed": false,
          "name": "bps",
          "type": "uint256"
        }
      ],
      "name": "FeeUpdated",
      "type": "event"
    },
    {
      "anonymous": false,
      "inputs": [
        {
          "indexed": false,
          "name": "token",
          "type": "address"
        },
        {
          "indexed": false,
          "name": "minSpreadBps",
          "type": "uint256"
        },
        {
          "indexed": false,
          "name": "premiumBps",
          "type": "uint256"
        }
      ],
      "name": "InternalActivationConfigUpdated",
      "type": "event"
    },
    {
      "anonymous": false,
      "inputs": [
        {
          "indexed": false,
          "name": "token",
          "type": "address"
        },
        {
          "indexed": false,
          "name": "minBalance",
          "type": "uint256"
        },
        {
          "indexed": false,
          "name": "maxBalance",
          "type": "uint256"
        }
      ],
      "name": "InternalInventoryLimitsUpdated",
      "type": "event"
    },
    {
      "anonymous": false,
      "inputs": [
        {
          "indexed": false,
          "name": "token",
          "type": "address"
        },
        {
          "indexed": false,
          "name": "exchange",
          "type": "address"
        }
      ],
      "name": "TokenListed",
      "type": "event"
    },
    {
      "anonymous": false,
      "inputs": [
        {
          "indexed": false,
          "name": "token",
          "type": "address"
        }
      ],
      "name": "TokenDelisted",
      "type": "event"
    },
    {
      "anonymous": false,
      "inputs": [
        {
          "indexed": false,
          "name": "enable",
          "type": "bool"
        }
      ],
      "name": "TradeEnabled",
      "type": "event"
    },
    {
      "anonymous": false,
      "inputs": [
        {
          "indexed": false,
          "name": "kyberNetwork",
          "type": "address"
        }
      ],
      "name": "KyberNetworkSet",
      "type": "event"
    },
    {
      "anonymous": false,
      "inputs": [
        {
          "indexed": false,
          "name": "token",
          "type": "address"
        },
        {
          "indexed": false,
          "name": "amount",
          "type": "uint256"
        },
        {
          "indexed": false,
          "name": "sendTo",
          "type": "address"
        }
      ],
      "name": "TokenWithdraw",
      "type": "event"
    },
    {
      "anonymous": false,
      "inputs": [
        {
          "indexed": false,
          "name": "amount",
          "type": "uint256"
        },
        {
          "indexed": false,
          "name": "sendTo",
          "type": "address"
        }
      ],
      "name": "EtherWithdraw",
      "type": "event"
    },
    {
      "anonymous": false,
      "inputs": [
        {
          "indexed": false,
          "name": "pendingAdmin",
          "type": "address"
        }
      ],
      "name": "TransferAdminPending",
      "type": "event"
    },
    {
      "anonymous": false,
      "inputs": [
        {
          "indexed": false,
          "name": "newAdmin",
          "type": "address"
        },
        {
          "indexed": false,
          "name": "previousAdmin",
          "type": "address"
        }
      ],
      "name": "AdminClaimed",
      "type": "event"
    },
    {
      "anonymous": false,
      "inputs": [
        {
          "indexed": false,
          "name": "newAlerter",
          "type": "address"
        },
        {
          "indexed": false,
          "name": "isAdd",
          "type": "bool"
        }
      ],
      "name": "AlerterAdded",
      "type": "event"
    },
    {
      "anonymous": false,
      "inputs": [
        {
          "indexed": false,
          "name": "newOperator",
          "type": "address"
        },
        {
          "indexed": false,
          "name": "isAdd",
          "type": "bool"
        }
      ],
      "name": "OperatorAdded",
      "type": "event"
    },
    {
      "constant": true,
      "inputs": [
        {
          "name": "token",
          "type": "address"
        }
      ],
      "name": "getTokenDecimals",
      "outputs": [
        {
          "name": "",
          "type": "uint256"
        }
      ],
      "payable": false,
      "stateMutability": "view",
      "type": "function"
    }
  ],
  "bytecode": "0x60606040526019600955600f805460ff19166001179055341561002157600080fd5b60405160608061262e83398101604052808051919060200180519190602001805160008054600160a060020a03191633600160a060020a0390811691909117909155909250849150839083908316151561007a57600080fd5b600160a060020a038216151561008f57600080fd5b600160a060020a03811615156100a457600080fd5b60078054600160a060020a03948516600160a060020a03199182161790915560008054938516938216939093179092556008805491909316911617905550505061253b806100f36000396000f3006060604052600436106101d35763ffffffff60e060020a60003504166299d38681146101d557806301a12fd3146101fc5780630dd94b961461021b5780631db95078146102565780631fc1e25f1461028757806324a9d853146102a657806326782247146102b957806327a099d8146102cc57806333d8262c146103325780633a6e7d39146103455780633ccdbb2814610367578063408ee7fe1461039057806348caa206146103af57806354a325a6146103ce5780635a65d4c9146103ed5780636940030f1461041f57806369fe0e2d146104325780636cf698111461044857806375829def1461047457806377f50f9714610493578063785c7cf6146104a65780637acc8678146104c55780637be98598146104e45780637bec03aa146105095780637c423f541461052e5780637cd44272146105415780638bdb2afa1461056c5780639870d7fe1461057f578063998614cb1461059e5780639b9a33ff146105bd578063a9afaaaf146105e2578063abffc9ac146105f8578063ac8a584a14610617578063b78b842d14610636578063bc91970a14610649578063c3e0d71214610662578063ce56c45414610681578063d4fac45d146106a3578063d621e813146106c8578063f851a440146106db575b005b34156101e057600080fd5b6101e86106ee565b604051901515815260200160405180910390f35b341561020757600080fd5b6101d3600160a060020a0360043516610756565b341561022657600080fd5b61023a600160a060020a03600435166108c6565b604051600160a060020a03909116815260200160405180910390f35b341561026157600080fd5b610275600160a060020a03600435166108e1565b60405190815260200160405180910390f35b341561029257600080fd5b6101d3600160a060020a03600435166108f3565b34156102b157600080fd5b610275610ae5565b34156102c457600080fd5b61023a610aeb565b34156102d757600080fd5b6102df610afa565b60405160208082528190810183818151815260200191508051906020019060200280838360005b8381101561031e578082015183820152602001610306565b505050509050019250505060405180910390f35b341561033d57600080fd5b610275610b62565b341561035057600080fd5b610275600160a060020a0360043516602435610b67565b341561037257600080fd5b6101d3600160a060020a036004358116906024359060443516610bac565b341561039b57600080fd5b6101d3600160a060020a0360043516610ca3565b34156103ba57600080fd5b610275600160a060020a0360043516610d9f565b34156103d957600080fd5b6101d3600160a060020a0360043516610db1565b34156103f857600080fd5b6101e8600160a060020a03600435811690602435906044351660643560843560a435610e43565b341561042a57600080fd5b6101e8611067565b341561043d57600080fd5b6101d36004356110d4565b6101e8600160a060020a03600435811690602435906044358116906064351660843560a4351515611139565b341561047f57600080fd5b6101d3600160a060020a0360043516611561565b341561049e57600080fd5b6101d36115fc565b34156104b157600080fd5b610275600160a060020a0360043516611696565b34156104d057600080fd5b6101d3600160a060020a03600435166116b1565b34156104ef57600080fd5b6101e8600160a060020a0360043581169060243516611793565b341561051457600080fd5b6101d3600160a060020a0360043516602435604435611820565b341561053957600080fd5b6102df611909565b341561054c57600080fd5b610275600160a060020a036004358116906024351660443560643561196f565b341561057757600080fd5b61023a611a8f565b341561058a57600080fd5b6101d3600160a060020a0360043516611a9e565b34156105a957600080fd5b610275600160a060020a0360043516611b6e565b34156105c857600080fd5b6101d3600160a060020a0360043516602435604435611b80565b34156105ed57600080fd5b610275600435611c57565b341561060357600080fd5b6101d3600160a060020a0360043516611c68565b341561062257600080fd5b6101d3600160a060020a0360043516611d3c565b341561064157600080fd5b61023a611ea8565b341561065457600080fd5b610275600435602435611eb7565b341561066d57600080fd5b610275600160a060020a0360043516611ed8565b341561068c57600080fd5b6101d3600435600160a060020a0360243516611eea565b34156106ae57600080fd5b610275600160a060020a0360043581169060243516611f7d565b34156106d357600080fd5b6101e8612028565b34156106e657600080fd5b61023a612031565b6000805433600160a060020a0390811691161461070a57600080fd5b600f805460ff191660019081179091557f7d7f00509dd73ac4449f698ae75ccc797895eff5fa9d446d3df387598a26e73590604051901515815260200160405180910390a15060015b90565b6000805433600160a060020a0390811691161461077257600080fd5b600160a060020a03821660009081526003602052604090205460ff16151561079957600080fd5b50600160a060020a0381166000908152600360205260408120805460ff191690555b6005548110156108c25781600160a060020a03166005828154811015156107de57fe5b600091825260209091200154600160a060020a031614156108ba5760058054600019810190811061080b57fe5b60009182526020909120015460058054600160a060020a03909216918390811061083157fe5b60009182526020909120018054600160a060020a031916600160a060020a0392909216919091179055600580549061086d906000198301612496565b507f5611bf3e417d124f97bf2c788843ea8bb502b66079fbee02158ef30b172cb762826000604051600160a060020a039092168252151560208201526040908101905180910390a16108c2565b6001016107bb565b5050565b600a60205260009081526040902054600160a060020a031681565b600e6020526000908152604090205481565b6000805433600160a060020a0390811691161461090f57600080fd5b600160a060020a038216151561092457600080fd5b600754600160a060020a03166306f2bf628360006040516020015260405160e060020a63ffffffff8416028152600160a060020a039091166004820152602401602060405180830381600087803b151561097d57600080fd5b6102c65a03f1151561098e57600080fd5b5050506040518051600160a060020a038481166000908152600a602052604090208054600160a060020a03191691831691909117905591506109d1905082612040565b81600160a060020a031663095ea7b38260ff60020a60006040516020015260405160e060020a63ffffffff8516028152600160a060020a0390921660048301526024820152604401602060405180830381600087803b1515610a3257600080fd5b6102c65a03f11515610a4357600080fd5b505050604051805190501515610a5857600080fd5b600160a060020a0382166000908152600b6020908152604080832060ff60020a9055600c8252808320839055600d8252808320839055600e909152808220919091557f99d2b755eb38920131acb332adf086ea38d15009f223c21f3aa978d6ab234786908390839051600160a060020a039283168152911660208201526040908101905180910390a15050565b60095481565b600154600160a060020a031681565b610b026124bf565b6004805480602002602001604051908101604052809291908181526020018280548015610b5857602002820191906000526020600020905b8154600160a060020a03168152600190910190602001808311610b3a575b5050505050905090565b601981565b60006b204fce5e3e25026110000000821115610b8257600080fd5b50600160a060020a0382166000908152600e60205260409020546127109081018202045b92915050565b60005433600160a060020a03908116911614610bc757600080fd5b82600160a060020a031663a9059cbb828460006040516020015260405160e060020a63ffffffff8516028152600160a060020a0390921660048301526024820152604401602060405180830381600087803b1515610c2457600080fd5b6102c65a03f11515610c3557600080fd5b505050604051805190501515610c4a57600080fd5b7f72cb8a894ddb372ceec3d2a7648d86f17d5a15caae0e986c53109b8a9a9385e6838383604051600160a060020a03938416815260208101929092529091166040808301919091526060909101905180910390a1505050565b60005433600160a060020a03908116911614610cbe57600080fd5b600160a060020a03811660009081526003602052604090205460ff1615610ce457600080fd5b60055460329010610cf457600080fd5b7f5611bf3e417d124f97bf2c788843ea8bb502b66079fbee02158ef30b172cb762816001604051600160a060020a039092168252151560208201526040908101905180910390a1600160a060020a0381166000908152600360205260409020805460ff191660019081179091556005805490918101610d738382612496565b5060009182526020909120018054600160a060020a031916600160a060020a0392909216919091179055565b600b6020526000908152604090205481565b60005433600160a060020a03908116911614610dcc57600080fd5b600160a060020a0381161515610de157600080fd5b60088054600160a060020a031916600160a060020a0383811691909117918290557f38622430bb6defd4452b087e8d0b4a6d1c4d35c179c2d7d875d4abb272b9d88b9116604051600160a060020a03909116815260200160405180910390a150565b600080808080806b204fce5e3e250261100000008b10610e6257600080fd5b6b204fce5e3e250261100000008910610e7a57600080fd5b600160a060020a038c166000805160206124f08339815191521415610f495789945084600160a060020a03166370a082313060006040516020015260405160e060020a63ffffffff8416028152600160a060020a039091166004820152602401602060405180830381600087803b1515610ef357600080fd5b6102c65a03f11515610f0457600080fd5b505050604051805194505088841080610f365750600160a060020a0385166000908152600b6020526040902054898503105b15610f445760009550611058565b610ffc565b8b94508830600160a060020a0316311015610f675760009550611058565b600160a060020a0385166000818152600c602052604080822054928e9290916370a08231913091516020015260405160e060020a63ffffffff8416028152600160a060020a039091166004820152602401602060405180830381600087803b1515610fd157600080fd5b6102c65a03f11515610fe257600080fd5b50505060405180519050011115610ffc5760009550611058565b866ec097ce7bc90715b34b9f100000000081151561101657fe5b0492508288111561102a5760009550611058565b600160a060020a0385166000908152600d6020526040902054915061104f8389611eb7565b90508181101595505b50505050509695505050505050565b600160a060020a03331660009081526003602052604081205460ff16151561108e57600080fd5b600f805460ff191690557f7d7f00509dd73ac4449f698ae75ccc797895eff5fa9d446d3df387598a26e7356000604051901515815260200160405180910390a150600190565b60005433600160a060020a039081169116146110ef57600080fd5b6127108111156110fe57600080fd5b60098190557f8c4d35e54a3f2ef1134138fd8ea3daee6a3c89e10d2665996babdf70261e2c768160405190815260200160405180910390a150565b600f546000908190819081908190819060ff16151561115757600080fd5b60085433600160a060020a0390811691161461117257600080fd5b61117c8c8b611793565b151561118757600080fd5b86156111d5576000881161119a57600080fd5b600160a060020a038c166000805160206124f083398151915214156111ca57348b146111c557600080fd5b6111d5565b34156111d557600080fd5b600160a060020a038c166000805160206124f083398151915214611283578b600160a060020a03166323b872dd33308e60006040516020015260405160e060020a63ffffffff8616028152600160a060020a0393841660048201529190921660248201526044810191909152606401602060405180830381600087803b151561125d57600080fd5b6102c65a03f1151561126e57600080fd5b50505060405180519050151561128357600080fd5b61128f8c8b8d8b6120fd565b9450600160028906149350600160a060020a038c166000805160206124f083398151915214156113f157831515611369576112c98b611c57565b600160a060020a03808c166000908152600a6020526040808220549092169450919250839163f39b5b9b91849160019160ff60020a9190516020015260405160e060020a63ffffffff8616028152600481019290925260248201526044016020604051808303818588803b151561133f57600080fd5b6125ee5a03f1151561135057600080fd5b5050505060405180519350508483101561136957600080fd5b89600160a060020a031663a9059cbb8a8760006040516020015260405160e060020a63ffffffff8516028152600160a060020a0390921660048301526024820152604401602060405180830381600087803b15156113c657600080fd5b6102c65a03f115156113d757600080fd5b5050506040518051905015156113ec57600080fd5b6114d9565b8315156114a857600160a060020a03808d166000908152600a602052604080822054909216935083916395e3c50b918e9160019160ff60020a91516020015260405160e060020a63ffffffff8616028152600481019390935260248301919091526044820152606401602060405180830381600087803b151561147357600080fd5b6102c65a03f1151561148457600080fd5b50505060405180519050925061149983611c57565b9250848310156114a857600080fd5b600160a060020a03891685156108fc0286604051600060405180830381858888f1935050505015156114d957600080fd5b33600160a060020a03167f3e5691bfb48667c037c1014f0b320bbf4095c37ad5cd1f0b2573366756f54ac68d8d8d898e8a604051600160a060020a039687168152602081019590955292851660408086019190915260608501929092529093166080830152151560a082015260c001905180910390a25060019b9a5050505050505050505050565b60005433600160a060020a0390811691161461157c57600080fd5b600160a060020a038116151561159157600080fd5b6001547f3b81caf78fa51ecbc8acb482fd7012a277b428d9b80f9d156e8a54107496cc4090600160a060020a0316604051600160a060020a03909116815260200160405180910390a160018054600160a060020a031916600160a060020a0392909216919091179055565b60015433600160a060020a0390811691161461161757600080fd5b6001546000547f65da1cfc2c2e81576ad96afb24a581f8e109b7a403b35cbd3243a1c99efdb9ed91600160a060020a039081169116604051600160a060020a039283168152911660208201526040908101905180910390a16001805460008054600160a060020a0319908116600160a060020a03841617909155169055565b600160a060020a031660009081526006602052604090205490565b60005433600160a060020a039081169116146116cc57600080fd5b600160a060020a03811615156116e157600080fd5b7f3b81caf78fa51ecbc8acb482fd7012a277b428d9b80f9d156e8a54107496cc4081604051600160a060020a03909116815260200160405180910390a16000547f65da1cfc2c2e81576ad96afb24a581f8e109b7a403b35cbd3243a1c99efdb9ed908290600160a060020a0316604051600160a060020a039283168152911660208201526040908101905180910390a160008054600160a060020a031916600160a060020a0392909216919091179055565b6000600160a060020a0383166000805160206124f08339815191521480156117d45750600160a060020a038281166000908152600a60205260409020541615155b806118195750600160a060020a038381166000908152600a602052604090205416158015906118195750600160a060020a0382166000805160206124f0833981519152145b9392505050565b60005433600160a060020a0390811691161461183b57600080fd5b600160a060020a038381166000908152600a602052604090205416151561186157600080fd5b6103e882111561187057600080fd5b6101f481111561187f57600080fd5b600160a060020a0383166000908152600d60209081526040808320859055600e909152908190208290557ff32eb6e759557a6efda6830142e2357097b173bc01c7a45d4f409fd9ce87387b90849084908490518084600160a060020a0316600160a060020a03168152602001838152602001828152602001935050505060405180910390a1505050565b6119116124bf565b6005805480602002602001604051908101604052809291908181526020018280548015610b5857602002820191906000526020600020908154600160a060020a03168152600190910190602001808311610b3a575050505050905090565b6000806000806000806000806119858c8c611793565b15156119945760009750611a80565b600f5460ff1615156119a95760009750611a80565b8915156119b95760009750611a80565b600160a060020a038c166000805160206124f083398151915214156119e0578a9650611a0c565b600160a060020a038b166000805160206124f08339815191521415611a07578b9650611a0c565b600080fd5b611a178c8c8c612126565b9096509450611a278b8d88612126565b9450611a3590508787610b67565b9250611a458c8b8d868989610e43565b91508115611a7057611a698a84611a5b8f612283565b611a648f612283565b612341565b9050611a73565b50835b611a7d81836123dc565b97505b50505050505050949350505050565b600754600160a060020a031681565b60005433600160a060020a03908116911614611ab957600080fd5b600160a060020a03811660009081526002602052604090205460ff1615611adf57600080fd5b60045460329010611aef57600080fd5b7f091a7a4b85135fdd7e8dbc18b12fabe5cc191ea867aa3c2e1a24a102af61d58b816001604051600160a060020a039092168252151560208201526040908101905180910390a1600160a060020a0381166000908152600260205260409020805460ff191660019081179091556004805490918101610d738382612496565b600c6020526000908152604090205481565b600160a060020a03331660009081526002602052604090205460ff161515611ba757600080fd5b600160a060020a038381166000908152600a6020526040902054161515611bcd57600080fd5b600160a060020a0383166000908152600b60209081526040808320859055600c909152908190208290557f5421c19be109a988c30678d84f56dd237868f8147ba05c20a6b78726e8f5d8ca90849084908490518084600160a060020a0316600160a060020a03168152602001838152602001828152602001935050505060405180910390a1505050565b600954612710908103919091020490565b60005433600160a060020a03908116911614611c8357600080fd5b600160a060020a038181166000908152600a6020526040902054161515611ca957600080fd5b600160a060020a0381166000908152600a602090815260408083208054600160a060020a0319169055600b8252808320839055600c8252808320839055600d8252808320839055600e909152808220919091557f6621c4efc5efa31320394260425b7d14cbb9d7e3754b2c98c04af66b1cbf315b90829051600160a060020a03909116815260200160405180910390a150565b6000805433600160a060020a03908116911614611d5857600080fd5b600160a060020a03821660009081526002602052604090205460ff161515611d7f57600080fd5b50600160a060020a0381166000908152600260205260408120805460ff191690555b6004548110156108c25781600160a060020a0316600482815481101515611dc457fe5b600091825260209091200154600160a060020a03161415611ea057600480546000198101908110611df157fe5b60009182526020909120015460048054600160a060020a039092169183908110611e1757fe5b60009182526020909120018054600160a060020a031916600160a060020a0392909216919091179055600480546000190190611e539082612496565b507f091a7a4b85135fdd7e8dbc18b12fabe5cc191ea867aa3c2e1a24a102af61d58b826000604051600160a060020a039092168252151560208201526040908101905180910390a16108c2565b600101611da1565b600854600160a060020a031681565b60008282808201614e2082840302811515611ece57fe5b0595945050505050565b600d6020526000908152604090205481565b60005433600160a060020a03908116911614611f0557600080fd5b600160a060020a03811682156108fc0283604051600060405180830381858888f193505050501515611f3657600080fd5b7fec47e7ed86c86774d1a72c19f35c639911393fe7c1a34031fdbd260890da90de8282604051918252600160a060020a031660208201526040908101905180910390a15050565b6000600160a060020a0383166000805160206124f08339815191521415611faf5750600160a060020a03811631610ba6565b82600160a060020a03166370a082318360006040516020015260405160e060020a63ffffffff8416028152600160a060020a039091166004820152602401602060405180830381600087803b151561200657600080fd5b6102c65a03f1151561201757600080fd5b505050604051805190509050610ba6565b600f5460ff1681565b600054600160a060020a031681565b600160a060020a0381166000805160206124f0833981519152141561208057600160a060020a0381166000908152600660205260409020601290556120fa565b80600160a060020a031663313ce5676000604051602001526040518163ffffffff1660e060020a028152600401602060405180830381600087803b15156120c657600080fd5b6102c65a03f115156120d757600080fd5b5050506040518051600160a060020a038316600090815260066020526040902055505b50565b600061211b8361210c87612283565b61211587612283565b85612409565b90505b949350505050565b60008080600160a060020a0386166000805160206124f083398151915214156121d55750600160a060020a038085166000908152600a6020526040902054168063cd7724c361217486611c57565b60006040516020015260405160e060020a63ffffffff84160281526004810191909152602401602060405180830381600087803b15156121b357600080fd5b6102c65a03f115156121c457600080fd5b505050604051805190509250612261565b50600160a060020a038086166000908152600a6020526040808220549092169161225e9183916395b68fe7918891516020015260405160e060020a63ffffffff84160281526004810191909152602401602060405180830381600087803b151561223e57600080fd5b6102c65a03f1151561224f57600080fd5b50505060405180519050611c57565b92505b612278848461226f89612283565b611a6489612283565b915050935093915050565b600080600160a060020a0383166000805160206124f083398151915214156122ae576012915061233b565b50600160a060020a0382166000908152600660205260409020548015156123375782600160a060020a031663313ce5676000604051602001526040518163ffffffff1660e060020a028152600401602060405180830381600087803b151561231557600080fd5b6102c65a03f1151561232657600080fd5b50505060405180519050915061233b565b8091505b50919050565b60006b204fce5e3e2502611000000085111561235c57600080fd5b6b204fce5e3e2502611000000084111561237557600080fd5b8282106123b0576012838303111561238c57600080fd5b84838303600a0a02670de0b6b3a764000085028115156123a857fe5b04905061211e565b601282840311156123c057600080fd5b84828403600a0a670de0b6b3a76400008602028115156123a857fe5b6000816123ea5760006123ed565b60015b60ff1660028406146124025760018303611819565b5090919050565b60006b204fce5e3e2502611000000085111561242457600080fd5b69d3c21bcecceda100000082111561243b57600080fd5b83831061246a576012848403111561245257600080fd5b670de0b6b3a7640000858302858503600a0a026123a8565b6012838503111561247a57600080fd5b828403600a0a670de0b6b3a7640000028286028115156123a857fe5b8154818355818115116124ba576000838152602090206124ba9181019083016124d1565b505050565b60206040519081016040526000815290565b61075391905b808211156124eb57600081556001016124d7565b50905600000000000000000000000000eeeeeeeeeeeeeeeeeeeeeeeeeeeeeeeeeeeeeeeea165627a7a72305820967d09bca04ce903fb91baa0a472457538b9b3510aa0c382b78dc49290b5a6920029",
  "source": "pragma solidity 0.4.18;\n\nimport \"../KyberUniswapReserve.sol\";\n\n\ncontract TestingKyberUniswapReserve is KyberUniswapReserve {\n    function TestingKyberUniswapReserve(\n        UniswapFactory _uniswapFactory,\n        address _admin,\n        address _kyberNetwork\n    )\n        public\n        KyberUniswapReserve(_uniswapFactory, _admin, _kyberNetwork)\n    {\n    }\n\n    function getTokenDecimals(ERC20 token)\n        public\n        view\n        returns(uint)\n    {\n        return decimals[token];\n    }\n}\n",
  "sourcePath": "/home/node/app/workshop-master/contracts/uniswap/forTesting/KyberTestingUniswapReserve.sol",
  "compiler": {
    "name": "solc",
    "version": "0.4.18+commit.9cf6e910.Emscripten.clang"
  },
  "schemaVersion": "3.0.16",
  "updatedAt": "2019-10-11T14:32:49.886Z",
  "devdoc": {
    "methods": {
      "claimAdmin()": {
        "details": "Allows the pendingAdmin address to finalize the change admin process."
      },
      "getBalance(address,address)": {
        "details": "get the balance of a user.",
        "params": {
          "token": "The token type"
        },
        "return": "The balance"
      },
      "transferAdmin(address)": {
        "details": "Allows the current admin to set the pendingAdmin address.",
        "params": {
          "newAdmin": "The address to transfer ownership to."
        }
      },
      "transferAdminQuickly(address)": {
        "details": "Allows the current admin to set the admin in one tx. Useful initial deployment.",
        "params": {
          "newAdmin": "The address to transfer ownership to."
        }
      },
      "withdrawEther(uint256,address)": {
        "details": "Withdraw Ethers"
      },
      "withdrawToken(address,uint256,address)": {
        "details": "Withdraw all ERC20 compatible tokens",
        "params": {
          "token": "ERC20 The address of the token contract"
        }
      }
    }
  },
  "userdoc": {
    "methods": {
      "getConversionRate(address,address,uint256,uint256)": {
        "notice": "Returns dest quantity / source quantity. Last bit of the rate indicates whether to use internal inventory: 0 - use uniswap 1 - use internal inventory"
      },
      "trade(address,uint256,address,address,uint256,bool)": {
        "notice": "conversionRate: expected conversion rate should be >= this value."
      }
    }
  }
}