{
  "contractName": "Trade",
  "abi": [
    {
      "constant": true,
      "inputs": [],
      "name": "proxy",
      "outputs": [
        {
          "name": "",
          "type": "address"
        }
      ],
      "payable": false,
      "stateMutability": "view",
      "type": "function"
    },
    {
      "inputs": [
        {
          "name": "_proxy",
          "type": "address"
        }
      ],
      "payable": false,
      "stateMutability": "nonpayable",
      "type": "constructor"
    },
    {
      "anonymous": false,
      "inputs": [
        {
          "indexed": true,
          "name": "sender",
          "type": "address"
        },
        {
          "indexed": false,
          "name": "srcToken",
          "type": "address"
        },
        {
          "indexed": false,
          "name": "destToken",
          "type": "address"
        }
      ],
      "name": "Swap",
      "type": "event"
    },
    {
      "constant": false,
      "inputs": [
        {
          "name": "destToken",
          "type": "address"
        },
        {
          "name": "destAddress",
          "type": "address"
        },
        {
          "name": "maxDestAmount",
          "type": "uint256"
        }
      ],
      "name": "execSwapETH",
      "outputs": [],
      "payable": true,
      "stateMutability": "payable",
      "type": "function"
    },
    {
      "constant": false,
      "inputs": [
        {
          "name": "srcToken",
          "type": "address"
        },
        {
          "name": "srcQty",
          "type": "uint256"
        },
        {
          "name": "destToken",
          "type": "address"
        },
        {
          "name": "destAddress",
          "type": "address"
        },
        {
          "name": "maxDestAmount",
          "type": "uint256"
        }
      ],
      "name": "execSwap",
      "outputs": [],
      "payable": false,
      "stateMutability": "nonpayable",
      "type": "function"
    }
  ],
  "bytecode": "0x6060604052341561000f57600080fd5b60405160208061066c8339810160405280805160008054600160a060020a03909216600160a060020a03199092169190911790555050610618806100546000396000f30060606040526004361061003d5763ffffffff60e060020a600035041663933d4fab8114610042578063b8c5447514610076578063ec55688914610093575b600080fd5b341561004d57600080fd5b610074600160a060020a0360043581169060243590604435811690606435166084356100c2565b005b610074600160a060020a0360043581169060243516604435610403565b341561009e57600080fd5b6100a66105dd565b604051600160a060020a03909116815260200160405180910390f35b600085600160a060020a03166323b872dd33308860006040516020015260405160e060020a63ffffffff8616028152600160a060020a0393841660048201529190921660248201526044810191909152606401602060405180830381600087803b151561012e57600080fd5b6102c65a03f1151561013f57600080fd5b50505060405180519050151561015457600080fd5b60008054600160a060020a038089169263095ea7b39290911690806040516020015260405160e060020a63ffffffff8516028152600160a060020a0390921660048301526024820152604401602060405180830381600087803b15156101b957600080fd5b6102c65a03f115156101ca57600080fd5b5050506040518051905015156101df57600080fd5b60008054600160a060020a038089169263095ea7b3929091169088906040516020015260405160e060020a63ffffffff8516028152600160a060020a0390921660048301526024820152604401602060405180830381600087803b151561024557600080fd5b6102c65a03f1151561025657600080fd5b50505060405180519050151561026b57600080fd5b60008054600160a060020a03169063809a9e55908890879089906040516040015260405160e060020a63ffffffff8616028152600160a060020a03938416600482015291909216602482015260448101919091526064016040805180830381600087803b15156102da57600080fd5b6102c65a03f115156102eb57600080fd5b5050506040518051906020018051505060008054919250600160a060020a039091169063cb3c28c790889088908890889088908890806040516020015260405160e060020a63ffffffff8a16028152600160a060020a039788166004820152602481019690965293861660448601529185166064850152608484015260a483015290911660c482015260e401602060405180830381600087803b151561039057600080fd5b6102c65a03f115156103a157600080fd5b50505060405180515050600160a060020a0333167f11f4b7a3b533a03660188385e81861fb044615f4dafe593932037df7b7836ecd8786604051600160a060020a039283168152911660208201526040908101905180910390a2505050505050565b60008054600160a060020a031663809a9e5573eeeeeeeeeeeeeeeeeeeeeeeeeeeeeeeeeeeeeeee8634856040516040015260405160e060020a63ffffffff8616028152600160a060020a03938416600482015291909216602482015260448101919091526064016040805180830381600087803b151561048257600080fd5b6102c65a03f1151561049357600080fd5b5050506040518051906020018051905050809150506000809054906101000a9004600160a060020a0316600160a060020a031663cb3c28c73473eeeeeeeeeeeeeeeeeeeeeeeeeeeeeeeeeeeeeeee34888888886000806040516020015260405160e060020a63ffffffff8b16028152600160a060020a039788166004820152602481019690965293861660448601529185166064850152608484015260a483015290911660c482015260e4016020604051808303818588803b151561055757600080fd5b6125ee5a03f1151561056857600080fd5b5050505060405180515050600160a060020a0333167f11f4b7a3b533a03660188385e81861fb044615f4dafe593932037df7b7836ecd73eeeeeeeeeeeeeeeeeeeeeeeeeeeeeeeeeeeeeeee86604051600160a060020a039283168152911660208201526040908101905180910390a250505050565b600054600160a060020a0316815600a165627a7a7230582074fa63161cc7987a60996a90ca5ffffd09bba36dc4754902e11c0d02ce1331e30029",
  "source": "// All code examples in this guide have not been audited and should not be used in production.\n// If so, it is done at your own risk!\n\npragma solidity ^0.4.18;\n\nimport \"../KyberNetworkProxy.sol\";\n\n\ncontract Trade {\n    event Swap(address indexed sender, ERC20 srcToken, ERC20 destToken);\n\n    KyberNetworkProxy public proxy;\n    ERC20 constant internal ETH_TOKEN_ADDRESS = ERC20(0x00eeeeeeeeeeeeeeeeeeeeeeeeeeeeeeeeeeeeeeee);\n\n    //@dev Contract contstructor\n    //@param _proxy KyberNetworkProxy contract address\n    function Trade(KyberNetworkProxy _proxy) public {\n        proxy = _proxy;\n    }\n\n    //@dev Swap the user's ETH to another ERC20 token\n    //@param destToken destination token contract address\n    //@param destAddress address to send swapped tokens to\n    //@param maxDestAmount address to send swapped tokens to\n    function execSwapETH(\n        ERC20 destToken,\n        address destAddress,\n        uint maxDestAmount\n    ) public payable {\n        uint minConversionRate;\n        // Get the minimum conversion rate\n        (minConversionRate,) = proxy.getExpectedRate(ETH_TOKEN_ADDRESS, destToken, msg.value);\n\n        // Swap the ERC20 token and send to destAddress\n        proxy.trade.value(msg.value)(\n            ETH_TOKEN_ADDRESS,\n            msg.value,\n            destToken,\n            destAddress,\n            maxDestAmount,\n            minConversionRate,\n            0\n        );\n\n        // Log the event\n        Swap(msg.sender, ETH_TOKEN_ADDRESS, destToken);\n    }\n\n    //@dev Swap the user's ERC20 token to ETH or another ERC20 token\n    //@param srcToken source token contract address\n    //@param srcQty amount of source tokens\n    //@param destToken destination token contract address\n    //@param destAddress address to send swapped tokens to\n    //@param maxDestAmount address to send swapped tokens to\n    function execSwap(\n        ERC20 srcToken,\n        uint srcQty,\n        ERC20 destToken,\n        address destAddress,\n        uint maxDestAmount\n    ) public {\n        uint minConversionRate;\n\n        // Check that the token transferFrom has succeeded\n        require(srcToken.transferFrom(msg.sender, address(this), srcQty));\n\n        // Mitigate ERC20 Approve front-running attack, by initially setting\n        // allowance to 0\n        require(srcToken.approve(address(proxy), 0));\n\n        // Set the spender's token allowance to tokenQty\n        require(srcToken.approve(address(proxy), srcQty));\n\n        // Get the minimum conversion rate\n        (minConversionRate,) = proxy.getExpectedRate(srcToken, destToken, srcQty);\n\n        // Swap the ERC20 token and send to destAddress\n        proxy.trade(\n            srcToken,\n            srcQty,\n            destToken,\n            destAddress,\n            maxDestAmount,\n            minConversionRate,\n            0\n        );\n\n        // Log the event\n        Swap(msg.sender, srcToken, destToken);\n    }\n}\n",
  "sourcePath": "/home/node/app/workshop-master/contracts/examples/Trade.sol",
  "compiler": {
    "name": "solc",
    "version": "0.4.18+commit.9cf6e910.Emscripten.clang"
  },
  "schemaVersion": "3.0.16",
  "updatedAt": "2019-10-11T14:32:49.263Z",
  "devdoc": {
    "methods": {}
  },
  "userdoc": {
    "methods": {}
  }
}