{
  "contractName": "UtilMath",
  "abi": [
    {
      "constant": true,
      "inputs": [],
      "name": "BIG_NUMBER",
      "outputs": [
        {
          "name": "",
          "type": "uint256"
        }
      ],
      "payable": false,
      "stateMutability": "view",
      "type": "function"
    },
    {
      "constant": true,
      "inputs": [
        {
          "name": "x",
          "type": "uint256"
        },
        {
          "name": "y",
          "type": "uint256"
        }
      ],
      "name": "checkMultOverflow",
      "outputs": [
        {
          "name": "",
          "type": "bool"
        }
      ],
      "payable": false,
      "stateMutability": "pure",
      "type": "function"
    },
    {
      "constant": true,
      "inputs": [
        {
          "name": "p",
          "type": "uint256"
        },
        {
          "name": "q",
          "type": "uint256"
        },
        {
          "name": "precision",
          "type": "uint256"
        }
      ],
      "name": "compactFraction",
      "outputs": [
        {
          "name": "",
          "type": "uint256"
        },
        {
          "name": "",
          "type": "uint256"
        }
      ],
      "payable": false,
      "stateMutability": "pure",
      "type": "function"
    },
    {
      "constant": true,
      "inputs": [
        {
          "name": "p",
          "type": "uint256"
        },
        {
          "name": "q",
          "type": "uint256"
        },
        {
          "name": "precision",
          "type": "uint256"
        }
      ],
      "name": "exp",
      "outputs": [
        {
          "name": "",
          "type": "uint256"
        }
      ],
      "payable": false,
      "stateMutability": "pure",
      "type": "function"
    },
    {
      "constant": true,
      "inputs": [
        {
          "name": "p",
          "type": "uint256"
        },
        {
          "name": "q",
          "type": "uint256"
        }
      ],
      "name": "countLeadingZeros",
      "outputs": [
        {
          "name": "",
          "type": "uint256"
        }
      ],
      "payable": false,
      "stateMutability": "pure",
      "type": "function"
    },
    {
      "constant": true,
      "inputs": [
        {
          "name": "x",
          "type": "uint256"
        },
        {
          "name": "numPrecisionBits",
          "type": "uint256"
        }
      ],
      "name": "log2ForSmallNumber",
      "outputs": [
        {
          "name": "",
          "type": "uint256"
        }
      ],
      "payable": false,
      "stateMutability": "pure",
      "type": "function"
    },
    {
      "constant": true,
      "inputs": [
        {
          "name": "p",
          "type": "uint256"
        },
        {
          "name": "q",
          "type": "uint256"
        },
        {
          "name": "numPrecisionBits",
          "type": "uint256"
        }
      ],
      "name": "logBase2",
      "outputs": [
        {
          "name": "",
          "type": "uint256"
        }
      ],
      "payable": false,
      "stateMutability": "pure",
      "type": "function"
    },
    {
      "constant": true,
      "inputs": [
        {
          "name": "p",
          "type": "uint256"
        },
        {
          "name": "q",
          "type": "uint256"
        },
        {
          "name": "numPrecisionBits",
          "type": "uint256"
        }
      ],
      "name": "ln",
      "outputs": [
        {
          "name": "",
          "type": "uint256"
        }
      ],
      "payable": false,
      "stateMutability": "pure",
      "type": "function"
    }
  ],
  "bytecode": "0x6060604052341561000f57600080fd5b6105268061001e6000396000f30060606040526004361061008d5763ffffffff7c0100000000000000000000000000000000000000000000000000000000600035041663275acbe381146100925780632f4fda30146100c05780635111249e146100d35780638369ff08146101005780638401824f14610119578063869d7d931461014d578063a0dbde9d14610166578063b5debaf514610182575b600080fd5b341561009d57600080fd5b6100ae60043560243560443561019e565b60405190815260200160405180910390f35b34156100cb57600080fd5b6100ae6101f1565b34156100de57600080fd5b6100ec6004356024356101f9565b604051901515815260200160405180910390f35b341561010b57600080fd5b6100ae600435602435610224565b341561012457600080fd5b6101356004356024356044356102a2565b60405191825260208201526040908101905180910390f35b341561015857600080fd5b6100ae6004356024356102e7565b341561017157600080fd5b6100ae600435602435604435610370565b341561018d57600080fd5b6100ae600435602435604435610423565b6000690177c17eb2ae5edd211c69021e19e0c9bab2400000826101c2878787610370565b90506101ce83826101f9565b156101d857600080fd5b818184028115156101e557fe5b04979650505050505050565b60c860020a81565b600081151561020a5750600061021e565b828283850281151561021857fe5b04141590505b92915050565b600080600283810a90810281838188108015906102415750828811155b151561024c57600080fd5b607d871061025957600080fd5b50855b6000811115610296578388890281151561027257fe5b04975060028204915082881061028d57600288049750938101935b6000190161025c565b50929695505050505050565b6000808283028410156102b95750839050826102df565b6102da83868115156102c757fe5b0484868115156102d357fe5b04856102a2565b915091505b935093915050565b60007f800000000000000000000000000000000000000000000000000000000000000060ff5b6000811261036257838283860281151561032357fe5b041461033457600282049150610359565b60008285028681151561034357fe5b04111561035257809250610368565b6002820491505b6000190161030d565b60001992505b505092915050565b600080600283900a81808688111561038f5761038c88886102e7565b93505b61039988846101f9565b156103a357600080fd5b6103ad84846101f9565b156103b757600080fd5b6103c5600285900a886101f9565b156103cf57600080fd5b600284900a87028884028115156103e257fe5b0491506103ef8287610224565b905060c860020a848402111561040457600080fd5b60c860020a81111561041557600080fd5b919092020195945050505050565b6000806001808083805b61043784896101f9565b15610444578196506104ed565b61044e83866101f9565b1561045b578196506104ed565b84830288850281151561046a57fe5b04820191508082141561047f578196506104ed565b5060019094019380610491848b6101f9565b1561049e578196506104ed565b6104a8838a6101f9565b156104b5578196506104ed565b6104bf85876101f9565b156104cc578196506104ed565b9385029392890292918802916104e384848a6102a2565b909450925061042d565b50505050505093925050505600a165627a7a72305820007aa7957890abebb5326438ea5dc7dc3c1b5b2f7a12f8ea3e8d514c67717de80029",
  "source": "pragma solidity 0.4.18;\n\n\ncontract UtilMath {\n    uint public constant BIG_NUMBER = (uint(1)<<uint(200));\n\n    function checkMultOverflow(uint x, uint y) public pure returns(bool) {\n        if (y == 0) return false;\n        return (((x*y) / y) != x);\n    }\n\n    function compactFraction(uint p, uint q, uint precision) public pure returns (uint, uint) {\n        if (q < precision * precision) return (p, q);\n        return compactFraction(p/precision, q/precision, precision);\n    }\n\n    /* solhint-disable code-complexity */\n    function exp(uint p, uint q, uint precision) public pure returns (uint) {\n        uint n = 0;\n        uint nFact = 1;\n        uint currentP = 1;\n        uint currentQ = 1;\n\n        uint sum = 0;\n        uint prevSum = 0;\n\n        while (true) {\n            if (checkMultOverflow(currentP, precision)) return sum;\n            if (checkMultOverflow(currentQ, nFact)) return sum;\n\n            sum += (currentP * precision) / (currentQ * nFact);\n\n            if (sum == prevSum) return sum;\n            prevSum = sum;\n\n            n++;\n\n            if (checkMultOverflow(currentP, p)) return sum;\n            if (checkMultOverflow(currentQ, q)) return sum;\n            if (checkMultOverflow(nFact, n)) return sum;\n\n            currentP *= p;\n            currentQ *= q;\n            nFact *= n;\n\n            (currentP, currentQ) = compactFraction(currentP, currentQ, precision);\n        }\n    }\n    /* solhint-enable code-complexity */\n\n    function countLeadingZeros(uint p, uint q) public pure returns (uint) {\n        uint denomator = (uint(1)<<255);\n        for (int i = 255; i >= 0; i--) {\n            if ((q*denomator)/denomator != q) {\n                // overflow\n                denomator = denomator/2;\n                continue;\n            }\n            if (p/(q*denomator) > 0) return uint(i);\n            denomator = denomator/2;\n        }\n\n        return uint(-1);\n    }\n\n    // log2 for a number that it in [1,2)\n    function log2ForSmallNumber(uint x, uint numPrecisionBits) public pure returns (uint) {\n        uint res = 0;\n        uint one = (uint(1)<<numPrecisionBits);\n        uint two = 2 * one;\n        uint addition = one;\n\n        require((x >= one) && (x <= two));\n        require(numPrecisionBits < 125);\n\n        for (uint i = numPrecisionBits; i > 0; i--) {\n            x = (x*x) / one;\n            addition = addition/2;\n            if (x >= two) {\n                x = x/2;\n                res += addition;\n            }\n        }\n\n        return res;\n    }\n\n    function logBase2 (uint p, uint q, uint numPrecisionBits) public pure returns (uint) {\n        uint n = 0;\n        uint precision = (uint(1)<<numPrecisionBits);\n\n        if (p > q) {\n            n = countLeadingZeros(p, q);\n        }\n\n        require(!checkMultOverflow(p, precision));\n        require(!checkMultOverflow(n, precision));\n        require(!checkMultOverflow(uint(1)<<n, q));\n\n        uint y = p * precision / (q * (uint(1)<<n));\n        uint log2Small = log2ForSmallNumber(y, numPrecisionBits);\n\n        require(n*precision <= BIG_NUMBER);\n        require(log2Small <= BIG_NUMBER);\n\n        return n * precision + log2Small;\n    }\n\n    function ln(uint p, uint q, uint numPrecisionBits) public pure returns (uint) {\n        uint ln2Numerator   = 6931471805599453094172;\n        uint ln2Denomerator = 10000000000000000000000;\n\n        uint log2x = logBase2(p, q, numPrecisionBits);\n\n        require(!checkMultOverflow(ln2Numerator, log2x));\n\n        return ln2Numerator * log2x / ln2Denomerator;\n    }\n}\n\n\ncontract LiquidityFormula is UtilMath {\n    function pE(uint r, uint pMIn, uint e, uint precision) public pure returns (uint) {\n        uint expRE = exp(r*e, precision*precision, precision);\n        require(!checkMultOverflow(expRE, pMIn));\n        return pMIn*expRE / precision;\n    }\n\n    function deltaTFunc(uint r, uint pMIn, uint e, uint deltaE, uint precision) public pure returns (uint) {\n        uint pe = pE(r, pMIn, e, precision);\n        uint rpe = r * pe;\n        uint erdeltaE = exp(r*deltaE, precision*precision, precision);\n\n        require(erdeltaE >= precision);\n        require(!checkMultOverflow(erdeltaE - precision, precision));\n        require(!checkMultOverflow((erdeltaE - precision)*precision, precision));\n        require(!checkMultOverflow((erdeltaE - precision)*precision*precision, precision));\n        require(!checkMultOverflow(rpe, erdeltaE));\n        require(!checkMultOverflow(r, pe));\n\n        return (erdeltaE - precision) * precision * precision * precision / (rpe*erdeltaE);\n    }\n\n    function deltaEFunc(uint r, uint pMIn, uint e, uint deltaT, uint precision, uint numPrecisionBits)\n        public pure\n        returns (uint)\n    {\n        uint pe = pE(r, pMIn, e, precision);\n        uint rpe = r * pe;\n        uint lnPart = ln(precision*precision + rpe*deltaT/precision, precision*precision, numPrecisionBits);\n\n        require(!checkMultOverflow(r, pe));\n        require(!checkMultOverflow(precision, precision));\n        require(!checkMultOverflow(rpe, deltaT));\n        require(!checkMultOverflow(lnPart, precision));\n\n        return lnPart * precision / r;\n    }\n}\n",
  "sourcePath": "/home/node/app/workshop-master/contracts/LiquidityFormula.sol",
  "compiler": {
    "name": "solc",
    "version": "0.4.18+commit.9cf6e910.Emscripten.clang"
  },
  "schemaVersion": "3.0.16",
  "updatedAt": "2019-10-11T14:32:48.986Z",
  "devdoc": {
    "methods": {}
  },
  "userdoc": {
    "methods": {}
  }
}