{
  "contractName": "Withdrawable",
  "abi": [
    {
      "constant": false,
      "inputs": [
        {
          "name": "alerter",
          "type": "address"
        }
      ],
      "name": "removeAlerter",
      "outputs": [],
      "payable": false,
      "stateMutability": "nonpayable",
      "type": "function"
    },
    {
      "constant": true,
      "inputs": [],
      "name": "pendingAdmin",
      "outputs": [
        {
          "name": "",
          "type": "address"
        }
      ],
      "payable": false,
      "stateMutability": "view",
      "type": "function"
    },
    {
      "constant": true,
      "inputs": [],
      "name": "getOperators",
      "outputs": [
        {
          "name": "",
          "type": "address[]"
        }
      ],
      "payable": false,
      "stateMutability": "view",
      "type": "function"
    },
    {
      "constant": false,
      "inputs": [
        {
          "name": "newAlerter",
          "type": "address"
        }
      ],
      "name": "addAlerter",
      "outputs": [],
      "payable": false,
      "stateMutability": "nonpayable",
      "type": "function"
    },
    {
      "constant": false,
      "inputs": [
        {
          "name": "newAdmin",
          "type": "address"
        }
      ],
      "name": "transferAdmin",
      "outputs": [],
      "payable": false,
      "stateMutability": "nonpayable",
      "type": "function"
    },
    {
      "constant": false,
      "inputs": [],
      "name": "claimAdmin",
      "outputs": [],
      "payable": false,
      "stateMutability": "nonpayable",
      "type": "function"
    },
    {
      "constant": false,
      "inputs": [
        {
          "name": "newAdmin",
          "type": "address"
        }
      ],
      "name": "transferAdminQuickly",
      "outputs": [],
      "payable": false,
      "stateMutability": "nonpayable",
      "type": "function"
    },
    {
      "constant": true,
      "inputs": [],
      "name": "getAlerters",
      "outputs": [
        {
          "name": "",
          "type": "address[]"
        }
      ],
      "payable": false,
      "stateMutability": "view",
      "type": "function"
    },
    {
      "constant": false,
      "inputs": [
        {
          "name": "newOperator",
          "type": "address"
        }
      ],
      "name": "addOperator",
      "outputs": [],
      "payable": false,
      "stateMutability": "nonpayable",
      "type": "function"
    },
    {
      "constant": false,
      "inputs": [
        {
          "name": "operator",
          "type": "address"
        }
      ],
      "name": "removeOperator",
      "outputs": [],
      "payable": false,
      "stateMutability": "nonpayable",
      "type": "function"
    },
    {
      "constant": true,
      "inputs": [],
      "name": "admin",
      "outputs": [
        {
          "name": "",
          "type": "address"
        }
      ],
      "payable": false,
      "stateMutability": "view",
      "type": "function"
    },
    {
      "anonymous": false,
      "inputs": [
        {
          "indexed": false,
          "name": "token",
          "type": "address"
        },
        {
          "indexed": false,
          "name": "amount",
          "type": "uint256"
        },
        {
          "indexed": false,
          "name": "sendTo",
          "type": "address"
        }
      ],
      "name": "TokenWithdraw",
      "type": "event"
    },
    {
      "anonymous": false,
      "inputs": [
        {
          "indexed": false,
          "name": "amount",
          "type": "uint256"
        },
        {
          "indexed": false,
          "name": "sendTo",
          "type": "address"
        }
      ],
      "name": "EtherWithdraw",
      "type": "event"
    },
    {
      "anonymous": false,
      "inputs": [
        {
          "indexed": false,
          "name": "pendingAdmin",
          "type": "address"
        }
      ],
      "name": "TransferAdminPending",
      "type": "event"
    },
    {
      "anonymous": false,
      "inputs": [
        {
          "indexed": false,
          "name": "newAdmin",
          "type": "address"
        },
        {
          "indexed": false,
          "name": "previousAdmin",
          "type": "address"
        }
      ],
      "name": "AdminClaimed",
      "type": "event"
    },
    {
      "anonymous": false,
      "inputs": [
        {
          "indexed": false,
          "name": "newAlerter",
          "type": "address"
        },
        {
          "indexed": false,
          "name": "isAdd",
          "type": "bool"
        }
      ],
      "name": "AlerterAdded",
      "type": "event"
    },
    {
      "anonymous": false,
      "inputs": [
        {
          "indexed": false,
          "name": "newOperator",
          "type": "address"
        },
        {
          "indexed": false,
          "name": "isAdd",
          "type": "bool"
        }
      ],
      "name": "OperatorAdded",
      "type": "event"
    },
    {
      "constant": false,
      "inputs": [
        {
          "name": "token",
          "type": "address"
        },
        {
          "name": "amount",
          "type": "uint256"
        },
        {
          "name": "sendTo",
          "type": "address"
        }
      ],
      "name": "withdrawToken",
      "outputs": [],
      "payable": false,
      "stateMutability": "nonpayable",
      "type": "function"
    },
    {
      "constant": false,
      "inputs": [
        {
          "name": "amount",
          "type": "uint256"
        },
        {
          "name": "sendTo",
          "type": "address"
        }
      ],
      "name": "withdrawEther",
      "outputs": [],
      "payable": false,
      "stateMutability": "nonpayable",
      "type": "function"
    }
  ],
  "bytecode": "0x606060405260008054600160a060020a033316600160a060020a0319909116179055610c72806100306000396000f3006060604052600436106100c45763ffffffff7c010000000000000000000000000000000000000000000000000000000060003504166301a12fd381146100c957806326782247146100ea57806327a099d8146101195780633ccdbb281461017f578063408ee7fe146101a857806375829def146101c757806377f50f97146101e65780637acc8678146101f95780637c423f54146102185780639870d7fe1461022b578063ac8a584a1461024a578063ce56c45414610269578063f851a4401461028b575b600080fd5b34156100d457600080fd5b6100e8600160a060020a036004351661029e565b005b34156100f557600080fd5b6100fd61040e565b604051600160a060020a03909116815260200160405180910390f35b341561012457600080fd5b61012c61041d565b60405160208082528190810183818151815260200191508051906020019060200280838360005b8381101561016b578082015183820152602001610153565b505050509050019250505060405180910390f35b341561018a57600080fd5b6100e8600160a060020a036004358116906024359060443516610486565b34156101b357600080fd5b6100e8600160a060020a0360043516610596565b34156101d257600080fd5b6100e8600160a060020a0360043516610692565b34156101f157600080fd5b6100e861072d565b341561020457600080fd5b6100e8600160a060020a03600435166107c7565b341561022357600080fd5b61012c6108a9565b341561023657600080fd5b6100e8600160a060020a036004351661090f565b341561025557600080fd5b6100e8600160a060020a03600435166109df565b341561027457600080fd5b6100e8600435600160a060020a0360243516610b4b565b341561029657600080fd5b6100fd610bde565b6000805433600160a060020a039081169116146102ba57600080fd5b600160a060020a03821660009081526003602052604090205460ff1615156102e157600080fd5b50600160a060020a0381166000908152600360205260408120805460ff191690555b60055481101561040a5781600160a060020a031660058281548110151561032657fe5b600091825260209091200154600160a060020a031614156104025760058054600019810190811061035357fe5b60009182526020909120015460058054600160a060020a03909216918390811061037957fe5b60009182526020909120018054600160a060020a031916600160a060020a039290921691909117905560058054906103b5906000198301610bed565b507f5611bf3e417d124f97bf2c788843ea8bb502b66079fbee02158ef30b172cb762826000604051600160a060020a039092168252151560208201526040908101905180910390a161040a565b600101610303565b5050565b600154600160a060020a031681565b610425610c16565b600480548060200260200160405190810160405280929190818152602001828054801561047b57602002820191906000526020600020905b8154600160a060020a0316815260019091019060200180831161045d575b505050505090505b90565b60005433600160a060020a039081169116146104a157600080fd5b82600160a060020a031663a9059cbb82846000604051602001526040517c010000000000000000000000000000000000000000000000000000000063ffffffff8516028152600160a060020a0390921660048301526024820152604401602060405180830381600087803b151561051757600080fd5b6102c65a03f1151561052857600080fd5b50505060405180519050151561053d57600080fd5b7f72cb8a894ddb372ceec3d2a7648d86f17d5a15caae0e986c53109b8a9a9385e6838383604051600160a060020a03938416815260208101929092529091166040808301919091526060909101905180910390a1505050565b60005433600160a060020a039081169116146105b157600080fd5b600160a060020a03811660009081526003602052604090205460ff16156105d757600080fd5b600554603290106105e757600080fd5b7f5611bf3e417d124f97bf2c788843ea8bb502b66079fbee02158ef30b172cb762816001604051600160a060020a039092168252151560208201526040908101905180910390a1600160a060020a0381166000908152600360205260409020805460ff1916600190811790915560058054909181016106668382610bed565b5060009182526020909120018054600160a060020a031916600160a060020a0392909216919091179055565b60005433600160a060020a039081169116146106ad57600080fd5b600160a060020a03811615156106c257600080fd5b6001547f3b81caf78fa51ecbc8acb482fd7012a277b428d9b80f9d156e8a54107496cc4090600160a060020a0316604051600160a060020a03909116815260200160405180910390a160018054600160a060020a031916600160a060020a0392909216919091179055565b60015433600160a060020a0390811691161461074857600080fd5b6001546000547f65da1cfc2c2e81576ad96afb24a581f8e109b7a403b35cbd3243a1c99efdb9ed91600160a060020a039081169116604051600160a060020a039283168152911660208201526040908101905180910390a16001805460008054600160a060020a0319908116600160a060020a03841617909155169055565b60005433600160a060020a039081169116146107e257600080fd5b600160a060020a03811615156107f757600080fd5b7f3b81caf78fa51ecbc8acb482fd7012a277b428d9b80f9d156e8a54107496cc4081604051600160a060020a03909116815260200160405180910390a16000547f65da1cfc2c2e81576ad96afb24a581f8e109b7a403b35cbd3243a1c99efdb9ed908290600160a060020a0316604051600160a060020a039283168152911660208201526040908101905180910390a160008054600160a060020a031916600160a060020a0392909216919091179055565b6108b1610c16565b600580548060200260200160405190810160405280929190818152602001828054801561047b57602002820191906000526020600020908154600160a060020a0316815260019091019060200180831161045d575050505050905090565b60005433600160a060020a0390811691161461092a57600080fd5b600160a060020a03811660009081526002602052604090205460ff161561095057600080fd5b6004546032901061096057600080fd5b7f091a7a4b85135fdd7e8dbc18b12fabe5cc191ea867aa3c2e1a24a102af61d58b816001604051600160a060020a039092168252151560208201526040908101905180910390a1600160a060020a0381166000908152600260205260409020805460ff1916600190811790915560048054909181016106668382610bed565b6000805433600160a060020a039081169116146109fb57600080fd5b600160a060020a03821660009081526002602052604090205460ff161515610a2257600080fd5b50600160a060020a0381166000908152600260205260408120805460ff191690555b60045481101561040a5781600160a060020a0316600482815481101515610a6757fe5b600091825260209091200154600160a060020a03161415610b4357600480546000198101908110610a9457fe5b60009182526020909120015460048054600160a060020a039092169183908110610aba57fe5b60009182526020909120018054600160a060020a031916600160a060020a0392909216919091179055600480546000190190610af69082610bed565b507f091a7a4b85135fdd7e8dbc18b12fabe5cc191ea867aa3c2e1a24a102af61d58b826000604051600160a060020a039092168252151560208201526040908101905180910390a161040a565b600101610a44565b60005433600160a060020a03908116911614610b6657600080fd5b600160a060020a03811682156108fc0283604051600060405180830381858888f193505050501515610b9757600080fd5b7fec47e7ed86c86774d1a72c19f35c639911393fe7c1a34031fdbd260890da90de8282604051918252600160a060020a031660208201526040908101905180910390a15050565b600054600160a060020a031681565b815481835581811511610c1157600083815260209020610c11918101908301610c28565b505050565b60206040519081016040526000815290565b61048391905b80821115610c425760008155600101610c2e565b50905600a165627a7a723058206295ab9c95f7115261ea49848b58d0dbba0c9edcca88dd1c123ee94d39dae08b0029",
  "source": "pragma solidity 0.4.18;\n\n\nimport \"./ERC20Interface.sol\";\nimport \"./PermissionGroups.sol\";\n\n\n/**\n * @title Contracts that should be able to recover tokens or ethers\n * @author Ilan Doron\n * @dev This allows to recover any tokens or Ethers received in a contract.\n * This will prevent any accidental loss of tokens.\n */\ncontract Withdrawable is PermissionGroups {\n\n    event TokenWithdraw(ERC20 token, uint amount, address sendTo);\n\n    /**\n     * @dev Withdraw all ERC20 compatible tokens\n     * @param token ERC20 The address of the token contract\n     */\n    function withdrawToken(ERC20 token, uint amount, address sendTo) external onlyAdmin {\n        require(token.transfer(sendTo, amount));\n        TokenWithdraw(token, amount, sendTo);\n    }\n\n    event EtherWithdraw(uint amount, address sendTo);\n\n    /**\n     * @dev Withdraw Ethers\n     */\n    function withdrawEther(uint amount, address sendTo) external onlyAdmin {\n        sendTo.transfer(amount);\n        EtherWithdraw(amount, sendTo);\n    }\n}\n",
  "sourcePath": "/home/node/app/workshop-master/contracts/Withdrawable.sol",
  "compiler": {
    "name": "solc",
    "version": "0.4.18+commit.9cf6e910.Emscripten.clang"
  },
  "schemaVersion": "3.0.16",
  "updatedAt": "2019-10-11T14:32:49.120Z",
  "devdoc": {
    "author": "Ilan Doron",
    "methods": {
      "claimAdmin()": {
        "details": "Allows the pendingAdmin address to finalize the change admin process."
      },
      "transferAdmin(address)": {
        "details": "Allows the current admin to set the pendingAdmin address.",
        "params": {
          "newAdmin": "The address to transfer ownership to."
        }
      },
      "transferAdminQuickly(address)": {
        "details": "Allows the current admin to set the admin in one tx. Useful initial deployment.",
        "params": {
          "newAdmin": "The address to transfer ownership to."
        }
      },
      "withdrawEther(uint256,address)": {
        "details": "Withdraw Ethers"
      },
      "withdrawToken(address,uint256,address)": {
        "details": "Withdraw all ERC20 compatible tokens",
        "params": {
          "token": "ERC20 The address of the token contract"
        }
      }
    },
    "title": "Contracts that should be able to recover tokens or ethers"
  },
  "userdoc": {
    "methods": {}
  }
}